:020000040000FA
:10000000803102288731D52F7608F1007508F0007D
:100010007708F8007808F200023080311120803132
:100020000800F400700871040319172818282928FB
:100030007435A03E860087017008C03F7108C13F3B
:100040007208F3007408AC3E8600870173088100D3
:1000500036287435A03E860087010030C03F00304E
:10006000C13F7408AC3E8600870181010800FB0097
:10007000F901FA014D287808F500F6017508F1003C
:100080007608F2007408F7007708F3008D31CE256A
:1000900080310130F9070030FA3D79087B07F5001F
:1000A00075088600013087000108F6007608F80020
:1000B0007808031D5C285D283B2808004001EC00FF
:1000C0006808EE006708ED004101C201C3017C2809
:1000D0006D30EA006A08CE006908EB006B08CF00BB
:1000E0006C088331AA23803140014E084101C207C8
:1000F00040014F084101C33D40016D0884006E0876
:1001000085001200031D85288628682841014308C0
:100110004001E800410142084001E7000800F30007
:10012000F401F40A41013C1996289728D128730854
:10013000F2007208B600BC103C153C100E30F20004
:100140007208BA00F430B4000130B500BC150030BC
:10015000A0000030A100AC010030A2000030A300DC
:10016000AD010030A4000030A500AE010030A600B3
:100170000030A700AF010030A8000030A900B00196
:100180000030F0000030F1008D31D82580318D3104
:10019000B52580318E31222680318D31C1258031C7
:1001A000F401740808008E3140268031E730860063
:1001B00000308700D63084000030850005304101D2
:1001C000D40016001A00D40BE128DB308600003082
:1001D00087000530D40000301E00D40BEC2800301E
:1001E0004001A000A100AA304101D4005408400100
:1001F000A2008F314E27803100304001A000A100C5
:100200008F31922780314101D4005408E0008E30B4
:10021000CD009030CE006008D400D5015408CF0046
:100220005508D0008E316126803115298031022891
:1002300040019C0108309B0098010830990018305B
:100240009A0009309600E4309200F8309300FB30B9
:1002500094007730950077307E01D900E130CE00F0
:10026000F030C3000130E400E430B800DA01E50109
:10027000C401B9011830CF00E601BA01C501183038
:10028000D000DB01FF30BB00FF30C600FF30D100E3
:10029000FF30DC000730E700FF30BC00FF30C70054
:1002A000FF30D200FF30DD000F30E80013307D0159
:1002B000C50015307E01A3001630A4000F30A20047
:1002C00014307D01C6001130CB0008004001A700AA
:1002D0004101481C6C296D29762940012708FC0042
:1002E0007C08F40020088031372081314001A21BB6
:1002F0007A297B2980292208A6002108A5008229C5
:10030000A501A601A301A40196292030F100003027
:10031000F20040012708FC007C08F3008D31CE2557
:10032000813101304001A3070030A43D2408803A08
:10033000FC002608803A7C02031DA0292508230220
:10034000031CA329A429852941014818A829A92902
:10035000B22940012708FC007C08F4002008803105
:1003600037208131400120088E31C1268131400182
:1003700025087007A0002608713DA1000800F201C1
:100380002830860000308700473FF000F01FC92961
:10039000CA29EB294001A809A909AA09AB09AC0996
:1003A000AD09AE09AF09A80A031DE929A90A031D71
:1003B000E929AA0A031DE929AB0A031DE929AC0AA8
:1003C000031DE929AD0A031DE929AE0A031DE92928
:1003D000AF0AF201F20A2030860000308700473F62
:1003E000F000F01FF429F529142A4001A009A10901
:1003F000A209A309A409A509A609A709A00A031D22
:10040000142AA10A031D142AA20A031D142AA30AEE
:10041000031D142AA40A031D142AA50A031D142A65
:10042000A60A031D142AA70A400120082104220459
:10043000230424042504260427040319202A212A3E
:10044000742AF101F10A302AA035A10DA20DA30DE5
:10045000A40DA50DA60DA70D0130F0007008F10741
:10046000A71F332A342A242A27082F02031D522AC1
:1004700026082E02031D522A25082D02031D522A8A
:1004800024082C02031D522A23082B02031D522A82
:1004900022082A02031D522A21082902031D522A7A
:1004A00020082802031C552A562A662A2008A8027A
:1004B0002108A93B2208AA3B2308AB3B2408AC3BFC
:1004C0002508AD3B2608AE3B2708AF3BA736A60C58
:1004D000A50CA40CA30CA20CA10CA00C0130F102E1
:1004E000031D732A742A342A72080319782A792A78
:1004F000972AA809A909AA09AB09AC09AD09AE094F
:10050000AF09A80A031D972AA90A031D972AAA0A58
:10051000031D972AAB0A031D972AAC0A031D972ACD
:10052000AD0A031D972AAE0A031D972AAF0A4001A0
:100530002808A0002908A1002A08A2002B08A3006F
:100540002C08A4002D08A5002E08A6002F08A7003F
:100550000800F2012030860000308700473FF0009D
:10056000F01FB32AB42AD52A4001A009A109A20983
:10057000A309A409A509A609A709A00A031DD32A4E
:10058000A10A031DD32AA20A031DD32AA30A031D0D
:10059000D32AA40A031DD32AA50A031DD32AA60A17
:1005A000031DD32AA70AF201F20A28308600003080
:1005B0008700473FF000F01FDE2ADF2A022B4001B0
:1005C000A809A909AA09AB09AC09AD09AE09AF0987
:1005D000A80A031DFE2AA90A031DFE2AAA0A031D52
:1005E000FE2AAB0A031DFE2AAC0A031DFE2AAD0A31
:1005F000031DFE2AAE0A031DFE2AAF0A0130F000D9
:100600007008F20673308600003087000830F00072
:1006100000301E00F00B092B4001200821042204A9
:10062000230424042504260427040319182B192B5A
:10063000752BF101F10A282BA035A10DA20DA30DF8
:10064000A40DA50DA60DA70D0130F0007008F1074F
:10065000A71F2B2B2C2B1C2BF335F40DF50DF60DB2
:10066000F70DF80DF90DFA0D27082F02031D522B77
:1006700026082E02031D522B25082D02031D522B86
:1006800024082C02031D522B23082B02031D522B7E
:1006900022082A02031D522B21082902031D522B76
:1006A00020082802031C552B562B672B2008A80274
:1006B0002108A93B2208AA3B2308AB3B2408AC3BFA
:1006C0002508AD3B2608AE3B2708AF3B7314A73681
:1006D000A60CA50CA40CA30CA20CA10CA00C013020
:1006E000F102031D742B752B2C2B72080319792B27
:1006F0007A2B982BF309F409F509F609F709F8099B
:10070000F909FA09F30A031D982BF40A031D982B23
:10071000F50A031D982BF60A031D982BF70A031DF3
:10072000982BF80A031D982BF90A031D982BFA0A37
:1007300073084001A0007408A1007508A2007608A3
:10074000A3007708A4007808A5007908A6007A0815
:10075000A70008004001E6004E0886008701403FE0
:10076000D000413FD100500884005108850012009C
:10077000253A031DBC2BBD2BCA2C4E0886008701D1
:100780000130810741310318810A4101C401C501CB
:10079000C801C901FF30C600FF30C70040014E0844
:1007A00086008701403FD000413FD10050088400BF
:1007B000510885001200643A0319DF2BE02BF12B5E
:1007C0004E0886008701403FD000413FD1005008CD
:1007D0008400510885001200693A031DF02BF12BAB
:1007E0002C2C4E0886008701013081074131031807
:1007F000810A4F08860087010108840085010230C4
:100800008107003FD000013FD1005008D5005108BA
:10081000D600890D893B8909D700D800D900DA00B4
:10082000DB00DC005508B0005608B1005708B200E4
:100830005808B3005908B4005A08B5005B08B60060
:100840005C08B70066088431EE248331400131082A
:10085000CF003008CE00ED2C4E0886008701403FC7
:10086000D000413FD100500884005108850012009B
:10087000783A03193C2C3D2C4E2C4E0886008701FB
:10088000403FD000413FD10050088400510885000E
:100890001200583A031D4D2C4E2C952C4E08860004
:1008A0008701403FD000413FD100500884005108EB
:1008B00085000008D2005208E5004E088600870136
:1008C0000130810741310318810A4F0886008701F2
:1008D00001088400850102308107003FDD00013FEF
:1008E000DE00DF01E001E101E201E301E4015D0876
:1008F000A8005E08A9005F08AA006008AB006108B4
:10090000AC006208AD006308AE006408AF00650883
:10091000D0005008B000660886315E268331400161
:100920002908CF002808CE00ED2C4E08860087014C
:10093000403FD000413FD10050088400510885005D
:100940001200253A031DA52CA62CBF2C4E088600AC
:1009500087010130810741310318810A2530F100F8
:100960000030F2006608D0005008F3008D31CE252B
:10097000833101304001CE000030CF00ED2C4E0815
:10098000860087010130810741310318810ACE01B9
:10099000CF01ED2C4E0886008701403FD000413F3B
:1009A000D10050088400510885000008D200D3010E
:1009B0005208F1005308F2006608D4005408F3000E
:1009C0008D31CE25833140014E08860087010130EC
:1009D000810741310318810AB92C08004001BF008A
:1009E0003008C4003108C5003208C6003308C7000B
:1009F0003408C8003508C9003608CA003708CB00DB
:100A00004430860000308700473FB800B81B092DEE
:100A10000B2D01300C2D00304001B900BA0139080E
:100A2000C2003A08C300420843040319182D192DC7
:100A3000372DC409C509C609C709C809C909CA09A2
:100A4000CB09C40A031D372DC50A031D372DC60A5D
:100A5000031D372DC70A031D372DC80A031D372D67
:100A6000C90A031D372DCA0A031D372DCB0A4101C0
:100A7000C71B3B2D3C2D402DFD30C805FF30C9055F
:100A80004708803A4001B80080303802031D4B2DE2
:100A900001304101460203184E2D4F2D552D0130D6
:100AA0004001BD000030BE005D2D410147084001FE
:100AB000BE00410146084001BD004101450840011A
:100AC000C100410144084001C00042084304031D25
:100AD0006A2D6B2D702D4101481D6F2D702D752DC8
:100AE000FF304001C007FF30C13D1F304001CC0046
:100AF0000030CD004201BF01E62DFF304001CC07A0
:100B0000FF30CD3D0A30A000A101A201A301A40144
:100B1000A501A601A7014408A8004508A9004608A8
:100B2000AA004708AB004808AC004908AD004A08D5
:100B3000AE004B08AF008131BF2184314001210854
:100B4000F4002008F3008E31A72684317308303E6C
:100B50004001B8004C08203E86000130870038086C
:100B60008100FF30BD07FF30BE3DFF30C007FF30C2
:100B7000C13D0A30A000A101A201A301A401A50169
:100B8000A601A7014408A8004508A9004608AA0034
:100B90004708AB004808AC004908AD004A08AE0061
:100BA0004B08AF008231A922843140012008C400E3
:100BB0002108C5002208C6002308C7002408C80071
:100BC0002508C9002608CA002708CB0040014D08A7
:100BD000803AB80080303802031DF02D01304C02FD
:100BE000031CF32DF42D212E400144084504460436
:100BF0004704480449044A044B04031D002E012EF7
:100C00007D2D3E08803AB80080303802031D0A2E40
:100C100001303D0203180D2E0E2E7D2D400141089E
:100C2000803AB80080303802031D182E013040028F
:100C3000031C1B2E1C2E212E4101C818202E212EF4
:100C40007D2D400142084304031D272E282E2D2E02
:100C50004101481D2C2E2D2E4A2EFF304001CC077D
:100C6000FF30CD3D42084304031D372E382E3D2E64
:100C70002B30BB000030BC00412E2D30BB000030BB
:100C8000BC003B08B8004C08203E860001308700BD
:100C90003808810040014C08203EB8003808A00008
:100CA0004108A2004008A1003F088131662184313B
:100CB00040012108B1002008B00008004001BF0039
:100CC0004101C71B642E652E692EFD30C805FF301B
:100CD000C9054708803A4001B10080303102031D48
:100CE000742E0130410146020318772E782E7E2E95
:100CF00001304001BD000030BE00862E4101470892
:100D00004001BE00410146084001BD0041014508C7
:100D10004001C100410144084001C0004101481E9A
:100D2000922E932E982EFE304001C007FF30C13D19
:100D300040012808C2002908C3002A08C4002B0863
:100D4000C5002C08C6002D08C7002E08C8002F08B3
:100D5000C9001F30CA000030CB004201BF01662F1E
:100D6000FF304001CA07FF30CB3D0F304205CC00B9
:100D700000304305CD004D08803AB100803031028B
:100D8000031DC42E0A304C02031CC72EC82ED02EC1
:100D900040014C08573ECC0000304D3DCD00D72ED1
:100DA00040014C08303ECC0000304D3DCD003008B5
:100DB000BF3EB100FF3003180030B20000303202F5
:100DC0001A3003193102031CE62EE82E0130E92EF9
:100DD0000030B300B4013308B9003408BA00390850
:100DE0003A040319F42EF52E242F20304C04B100C0
:100DF00000304D04B20031089F3EB300FF30323D59
:100E0000B400003034021A3003193302031C092FD6
:100E10000B2F01300C2F0030B500B6013508BB0098
:100E20003608BC003B083C040319172F182F242F49
:100E30004D08F7004C08F6008F31DB278631770824
:100E40004001CD007608CC004C08B1004A08203E95
:100E500086000130870031088100FF30BD07FF3078
:100E6000BE3DFF30C007FF30C13D4230860000303C
:100E70008700403FB100413FB200423FB300433FD3
:100E8000B400443FB500453FB600463FB700473F7A
:100E9000B80004304001B836B70CB60CB50CB40C31
:100EA000B30CB20CB10C890B4A2F40013808C900B1
:100EB0003708C8003608C7003508C6003408C50022
:100EC0003308C4003208C3003108C20040014B0897
:100ED000803AB10080303102031D702F02304A0287
:100EE000031C732F742FA12F4001420843044404B4
:100EF00045044604470448044904031D802F812FFC
:100F0000B02E3E08803AB10080303102031D8A2F96
:100F100001303D0203188D2F8E2FB02E4001410865
:100F2000803AB10080303102031D982F0130400219
:100F3000031C9B2F9C2FA12F4101C818A02FA12F6C
:100F4000B02E4101481EA52FA62FC12FFF30400112
:100F5000CA07FF30CB3D3008B1004A08203E86006A
:100F60000130870031088100FF30CA07FF30CB3DD8
:100F70003030B1004A08203E860001308700310839
:100F8000810040014A08203EB1003108A00041081C
:100F9000A2004008A1003F0881316621863140014E
:100FA0002108A9002008A8000800D33084008D3053
:100FB0008500E73086000030870005308D31F6254A
:100FC0008731503084008E308500403086000130FB
:100FD000870011308D31F6258731A0308400003034
:100FE00085002D308D31F02587312030840001308F
:100FF000850020308D31F025873140018031D328A4
:101000002D342D342D342D342D342D342D342D34D8
:101010002D342D342D342D342D342D342D342D34C8
:101020002D342D342D342D342D342D342D342D34B8
:101030002D342D342D342D342D342D342D342D34A8
:101040002D342D342D342D342D342D342D342D3498
:101050002D342D342D342D342D342D342D340A34AB
:041060000D34003417
:101B6A004E010F1008004301901208004E0119108F
:101B7A0008004301111408004E011914080001302D
:101B8A008E31DB268D31080000308E31DB268D3117
:101B9A00080071088E3118268D310800003401348E
:101BAA0002340334043471084101CB007008CA00BE
:101BBA00080071084101E2007008E100080071089C
:101BCA004101E6007008E500080071084101E400DF
:101BDA007008E3000800640080010131890BF12DCF
:101BEA000034FE0012001E00FE0BF72D00344F01D8
:101BFA0096019701980199019A019B01080080308A
:101C0A0043018F0008309000910109308D00901235
:101C1A000800603051018D008F019101023093005C
:101C2A00900192010800F0004E010F1E1D2E1E2E7B
:101C3A00192E700842019A0008004301901A262EB4
:101C4A00272E2F2E80308F00083090009101093006
:101C5A008D0090160800F3004101BC1D352E362E6A
:101C6A003F2E7308F2007208B7007108B9007008B5
:101C7A00B800BC1108008D31FC258E318E31042646
:101C8A008E31813118218E318E310E268E318F316F
:101C9A0070278E31080000340034A134A234A334F2
:101CAA00A434A534A634A734A834A934AA34AB344E
:101CBA00AC34AD34AE34AF34CF304001EF006F08EE
:101CCA004101D3004E084001E80041014D0840019E
:101CDA00E700D330EF006F08E900003080315E2062
:101CEA008E3108007008BF3EF200FF30713DF300EC
:101CFA00003073021A3003197202031C852E872ED4
:101D0A000130882E0030F400F5017408F0007508DF
:101D1A00F100080070089F3EF200FF30713DF300A9
:101D2A00003073021A3003197202031C9D2E9F2E73
:101D3A000130A02E0030F400F5017408F000750897
:101D4A00F10008007408803AF50080307502031D1E
:101D5A00B02E013073020318B32EB42EC02E7309AD
:101D6A00F5007409F600F50A0319F60A7508F30076
:101D7A007608F400C02E0800F4007408F200720815
:101D8A00F300CB2E0130F2007208F40774088600C3
:101D9A00013087000108031DD32ED42EC72E7308E5
:101DAA007402F000F101F01BF1030800F100F201E6
:101DBA00F20A4101BC18E22EE32EF42EBC14F20101
:101DCA0071080319E92EEA2EED2EBA01BA0AF12E8C
:101DDA000230F0007008BA008D31BE258E317208CB
:101DEA000800F101F10A4101BC18FC2EFD2E102F4A
:101DFA003C11FF30F0007008B6008D31B5258E31E8
:101E0A008D31BB258E318D31B8258E3141013B088C
:101E1A00F0007008F10071080800F80078088031B5
:101E2A008F208F31003A03191B2F1C2F132F77088D
:101E3A00F1007608F00075088E3130268F318D3129
:101E4A00C4258F318E31F6268F31013A03192E2F90
:101E5A002F2F272F080020307004F2000030710461
:101E6A00F30072089F3EF400FF30733DF500003026
:101E7A0075021A3003197402031C442F462F0130CD
:101E8A00472F0030F600F7017608F0007708F100D6
:101E9A00080040012108FD007D08A3002008FD007C
:101EAA007D08A4002208FD007D08A5002330FD005E
:101EBA007D08F9000330FA000030FB0050308F3102
:101ECA00B6278F310730FD007D30890B6A2FFD0B55
:101EDA006A2F00000800083042019F0090309D00E0
:101EEA0024309E0067309B009C010030F0000030D7
:101EFA00F1008D31E4258F310030F0000030F1001F
:101F0A008D31EA258F310030F0000030F1008D313B
:101F1A00DE258F314101CC01080040012108FD0076
:101F2A007D08A2002008FD007D08A3002230FD00E4
:101F3A007D08F9000230FA000030FB0050308F3182
:101F4A00B6278F312430FD007D08F5000130F600F8
:101F5A000030F70050308F3112278F3140012408AA
:101F6A000800FC007C0880318F208F31003A031969
:101F7A00BF2FC02FB72F7B08F1007A08F00079082D
:101F8A008E3130268F310030F500F600F7018031AE
:101F9A0004208F318D31C9258F318E31F6268F314C
:101FAA00013A0319D92FDA2FD22F080076089F3E5B
:101FBA00F800FF30773DF900003079021A30031932
:101FCA007802031CE92FEB2F0130EC2F0030FA00C6
:101FDA00FB017A08FC007B08FD007C087D040319DC
:101FEA00F72FF82FFF2F5F307605F60000307705C0
:101FFA00F700FF2F08000A34443461347434613422
:10200A00203474346F3420346234653420347734A5
:10201A00723469347434743465346E3420347434EC
:10202A006F34203445344534503452344F344D34AF
:10203A003A340A340A340D3400340034003400349B
:10204A0000340034003400340034003400340034E6
:10205A0000340034003400340034003400340034D6
:10206A0000340034003400340034003400340034C6
:10207A0000340034003400340034453445345034DC
:10208A0052344F344D342034483469346734683418
:10209A0020344134643464347234653473347334B0
:1020AA003A3430347834253478340A340D340034F0
:1020BA0045344534503452344F344D3420344C3442
:1020CA006F34773420344134643464347234653480
:1020DA00733473343A3430347834253478340A34E7
:1020EA000D3400340A340D344534453450345234F6
:1020FA004F344D34203452346534613464342034DE
:10210A0044346134743461343A340A340A340D3450
:10211A00003461343A342034253464340A340034C7
:0E212A003034783425347834203420340034B6
:020000040001F9
:0A000E00EC3FFF3F9F3FFF1FFF3F45
:00000001FF
