:020000040000FA
:10000000803102288731D52FFE0012001E00FE0B22
:10001000052800348B3184238031FA0041013708F0
:10002000860087017A0881000130FA007A08B70754
:100030000130B8020030B93B3808390403192128CF
:10004000222827288B318E23803105304F28BC157C
:1000500031288B31BA2380314F288B31B523803141
:100060004F282C08FA007A08F90021088A00200895
:100070000A008031FB00FC017C08003A031941288A
:100080002D287B08013A03192D28033A0319292842
:10009000013A03192928073A03192D282D280800A9
:1000A00040019C0108309B009801083099009A019A
:1000B00009309600E4309200F8309300FB30940051
:1000C0007730950077307E01D900E130CE00F030F6
:1000D000C3000130E400E430B800DA01E501C401F6
:1000E000B9011830CF00E601BA01C501D001DB012A
:1000F000FF30BB00FF30C600FF30D100FF30DC0016
:100100000730E700FF30BC00FF30C700FF30D200EF
:10011000FF30DD000F30E80013307D01C5001530E1
:100120007E01A3001630A4000F30A20014307D0120
:10013000C6001130CB0008008B31EA238031003A31
:100140000319A328A428D428B1288B319C238031FB
:10015000F0288B31A1238031F0288B31AB23803103
:10016000F02841012F08FA007A08F9000630A03E75
:1001700086008701413F8A00403F0A008031FB0032
:10018000FC017C08003A0319C628AD287B08013A17
:100190000319AD28033A0319A528013A0319A92820
:1001A000073A0319AD28AD2841013C101730A03E95
:1001B00086008701403F84008501810A00088B3159
:1001C0009223803101304101B8020030B93B380838
:1001D0003904031DEC28ED28EF280630F028033001
:1001E00008004001A7004101481CF728F828012910
:1001F00040012708FC007C08F40020088E31BD2651
:1002000080314001A21B052906290B292208A600DE
:100210002108A5000D29A501A601A301A4012129FA
:100220002030F1000030F20040012708FC007C087B
:10023000F3008B31CE23803101304001A307003021
:10024000A43D2408803AFC002608803A7C02031D65
:100250002B2925082302031C2E292F2910294101AF
:100260004818332934293D2940012708FC007C081F
:10027000F40020088E31BD268031400120088D31E8
:10028000B8258031400125087007A0002608713D7F
:10029000A10008008C316F248131E33086000030EA
:1002A0008700D23084000030850005304101D00045
:1002B00016001A00D00B5829D7308600003087006E
:1002C0000530D00000301E00D00B6329D230D000A2
:1002D00050084001A5000530A6000030A700A0305E
:1002E0008E31E4268131D7304101D00050084001E1
:1002F000A5000530A6000030A700A0308E310C26E6
:10030000813103304101D1008A30D0005530890B52
:100310008729D00B8729D10B87290032C0304101B2
:10032000CB009030CC008D31282581314101DC019A
:10033000CE30CB009030CC005C08D73E86008701E1
:100340000108D000D1015008CD005108CE008D31F8
:100350002825813101304101D0005008DC070530EB
:100360005C02031CB429B5299829D330CB00903006
:10037000CC008D3128258131812980310228F2017C
:100380002830860000308700473FF000F01FC92961
:10039000CA29EB294001A809A909AA09AB09AC0996
:1003A000AD09AE09AF09A80A031DE929A90A031D71
:1003B000E929AA0A031DE929AB0A031DE929AC0AA8
:1003C000031DE929AD0A031DE929AE0A031DE92928
:1003D000AF0AF201F20A2030860000308700473F62
:1003E000F000F01FF429F529142A4001A009A10901
:1003F000A209A309A409A509A609A709A00A031D22
:10040000142AA10A031D142AA20A031D142AA30AEE
:10041000031D142AA40A031D142AA50A031D142A65
:10042000A60A031D142AA70A400120082104220459
:10043000230424042504260427040319202A212A3E
:10044000742AF101F10A302AA035A10DA20DA30DE5
:10045000A40DA50DA60DA70D0130F0007008F10741
:10046000A71F332A342A242A27082F02031D522AC1
:1004700026082E02031D522A25082D02031D522A8A
:1004800024082C02031D522A23082B02031D522A82
:1004900022082A02031D522A21082902031D522A7A
:1004A00020082802031C552A562A662A2008A8027A
:1004B0002108A93B2208AA3B2308AB3B2408AC3BFC
:1004C0002508AD3B2608AE3B2708AF3BA736A60C58
:1004D000A50CA40CA30CA20CA10CA00C0130F102E1
:1004E000031D732A742A342A72080319782A792A78
:1004F000972AA809A909AA09AB09AC09AD09AE094F
:10050000AF09A80A031D972AA90A031D972AAA0A58
:10051000031D972AAB0A031D972AAC0A031D972ACD
:10052000AD0A031D972AAE0A031D972AAF0A4001A0
:100530002808A0002908A1002A08A2002B08A3006F
:100540002C08A4002D08A5002E08A6002F08A7003F
:100550000800F2012030860000308700473FF0009D
:10056000F01FB32AB42AD52A4001A009A109A20983
:10057000A309A409A509A609A709A00A031DD32A4E
:10058000A10A031DD32AA20A031DD32AA30A031D0D
:10059000D32AA40A031DD32AA50A031DD32AA60A17
:1005A000031DD32AA70AF201F20A28308600003080
:1005B0008700473FF000F01FDE2ADF2A022B4001B0
:1005C000A809A909AA09AB09AC09AD09AE09AF0987
:1005D000A80A031DFE2AA90A031DFE2AAA0A031D52
:1005E000FE2AAB0A031DFE2AAC0A031DFE2AAD0A31
:1005F000031DFE2AAE0A031DFE2AAF0A0130F000D9
:100600007008F20673308600003087000830F00072
:1006100000301E00F00B092B4001200821042204A9
:10062000230424042504260427040319182B192B5A
:10063000752BF101F10A282BA035A10DA20DA30DF8
:10064000A40DA50DA60DA70D0130F0007008F1074F
:10065000A71F2B2B2C2B1C2BF335F40DF50DF60DB2
:10066000F70DF80DF90DFA0D27082F02031D522B77
:1006700026082E02031D522B25082D02031D522B86
:1006800024082C02031D522B23082B02031D522B7E
:1006900022082A02031D522B21082902031D522B76
:1006A00020082802031C552B562B672B2008A80274
:1006B0002108A93B2208AA3B2308AB3B2408AC3BFA
:1006C0002508AD3B2608AE3B2708AF3B7314A73681
:1006D000A60CA50CA40CA30CA20CA10CA00C013020
:1006E000F102031D742B752B2C2B72080319792B27
:1006F0007A2B982BF309F409F509F609F709F8099B
:10070000F909FA09F30A031D982BF40A031D982B23
:10071000F50A031D982BF60A031D982BF70A031DF3
:10072000982BF80A031D982BF90A031D982BFA0A37
:1007300073084001A0007408A1007508A2007608A3
:10074000A3007708A4007808A5007908A6007A0815
:10075000A70008004001E6004E0886008701403FE0
:10076000D000413FD100500884005108850012009C
:10077000253A031DBC2BBD2BCA2C4E0886008701D1
:100780000130810741310318810A4101C401C501CB
:10079000C801C901FF30C600FF30C70040014E0844
:1007A00086008701403FD000413FD10050088400BF
:1007B000510885001200643A0319DF2BE02BF12B5E
:1007C0004E0886008701403FD000413FD1005008CD
:1007D0008400510885001200693A031DF02BF12BAB
:1007E0002C2C4E0886008701013081074131031807
:1007F000810A4F08860087010108840085010230C4
:100800008107003FD000013FD1005008D5005108BA
:10081000D600890D893B8909D700D800D900DA00B4
:10082000DB00DC005508B0005608B1005708B200E4
:100830005808B3005908B4005A08B5005B08B60060
:100840005C08B70066088431EE248331400131082A
:10085000CF003008CE00ED2C4E0886008701403FC7
:10086000D000413FD100500884005108850012009B
:10087000783A03193C2C3D2C4E2C4E0886008701FB
:10088000403FD000413FD10050088400510885000E
:100890001200583A031D4D2C4E2C952C4E08860004
:1008A0008701403FD000413FD100500884005108EB
:1008B00085000008D2005208E5004E088600870136
:1008C0000130810741310318810A4F0886008701F2
:1008D00001088400850102308107003FDD00013FEF
:1008E000DE00DF01E001E101E201E301E4015D0876
:1008F000A8005E08A9005F08AA006008AB006108B4
:10090000AC006208AD006308AE006408AF00650883
:10091000D0005008B000660886315E268331400161
:100920002908CF002808CE00ED2C4E08860087014C
:10093000403FD000413FD10050088400510885005D
:100940001200253A031DA52CA62CBF2C4E088600AC
:1009500087010130810741310318810A2530F100F8
:100960000030F2006608D0005008F3008B31CE232F
:10097000833101304001CE000030CF00ED2C4E0815
:10098000860087010130810741310318810ACE01B9
:10099000CF01ED2C4E0886008701403FD000413F3B
:1009A000D10050088400510885000008D200D3010E
:1009B0005208F1005308F2006608D4005408F3000E
:1009C0008B31CE23833140014E08860087010130F0
:1009D000810741310318810AB92C08004001BF008A
:1009E0003008C4003108C5003208C6003308C7000B
:1009F0003408C8003508C9003608CA003708CB00DB
:100A00004430860000308700473FB800B81B092DEE
:100A10000B2D01300C2D00304001B900BA0139080E
:100A2000C2003A08C300420843040319182D192DC7
:100A3000372DC409C509C609C709C809C909CA09A2
:100A4000CB09C40A031D372DC50A031D372DC60A5D
:100A5000031D372DC70A031D372DC80A031D372D67
:100A6000C90A031D372DCA0A031D372DCB0A4101C0
:100A7000C71B3B2D3C2D402DFD30C805FF30C9055F
:100A80004708803A4001B80080303802031D4B2DE2
:100A900001304101460203184E2D4F2D552D0130D6
:100AA0004001BD000030BE005D2D410147084001FE
:100AB000BE00410146084001BD004101450840011A
:100AC000C100410144084001C00042084304031D25
:100AD0006A2D6B2D702D4101481D6F2D702D752DC8
:100AE000FF304001C007FF30C13D1F304001CC0046
:100AF0000030CD004201BF01E62DFF304001CC07A0
:100B0000FF30CD3D0A30A000A101A201A301A40144
:100B1000A501A601A7014408A8004508A9004608A8
:100B2000AA004708AB004808AC004908AD004A08D5
:100B3000AE004B08AF008131BF2184314001210854
:100B4000F4002008F3008D319E2584317308303E77
:100B50004001B8004C08203E86000130870038086C
:100B60008100FF30BD07FF30BE3DFF30C007FF30C2
:100B7000C13D0A30A000A101A201A301A401A50169
:100B8000A601A7014408A8004508A9004608AA0034
:100B90004708AB004808AC004908AD004A08AE0061
:100BA0004B08AF008231A922843140012008C400E3
:100BB0002108C5002208C6002308C7002408C80071
:100BC0002508C9002608CA002708CB0040014D08A7
:100BD000803AB80080303802031DF02D01304C02FD
:100BE000031CF32DF42D212E400144084504460436
:100BF0004704480449044A044B04031D002E012EF7
:100C00007D2D3E08803AB80080303802031D0A2E40
:100C100001303D0203180D2E0E2E7D2D400141089E
:100C2000803AB80080303802031D182E013040028F
:100C3000031C1B2E1C2E212E4101C818202E212EF4
:100C40007D2D400142084304031D272E282E2D2E02
:100C50004101481D2C2E2D2E4A2EFF304001CC077D
:100C6000FF30CD3D42084304031D372E382E3D2E64
:100C70002B30BB000030BC00412E2D30BB000030BB
:100C8000BC003B08B8004C08203E860001308700BD
:100C90003808810040014C08203EB8003808A00008
:100CA0004108A2004008A1003F088031F1208431B2
:100CB00040012108B1002008B00008004001BF0039
:100CC0004101C71B642E652E692EFD30C805FF301B
:100CD000C9054708803A4001B10080303102031D48
:100CE000742E0130410146020318772E782E7E2E95
:100CF00001304001BD000030BE00862E4101470892
:100D00004001BE00410146084001BD0041014508C7
:100D10004001C100410144084001C0004101481E9A
:100D2000922E932E982EFE304001C007FF30C13D19
:100D300040012808C2002908C3002A08C4002B0863
:100D4000C5002C08C6002D08C7002E08C8002F08B3
:100D5000C9001F30CA000030CB004201BF01662F1E
:100D6000FF304001CA07FF30CB3D0F304205CC00B9
:100D700000304305CD004D08803AB100803031028B
:100D8000031DC42E0A304C02031CC72EC82ED02EC1
:100D900040014C08573ECC0000304D3DCD00D72ED1
:100DA00040014C08303ECC0000304D3DCD003008B5
:100DB000BF3EB100FF3003180030B20000303202F5
:100DC0001A3003193102031CE62EE82E0130E92EF9
:100DD0000030B300B4013308B9003408BA00390850
:100DE0003A040319F42EF52E242F20304C04B100C0
:100DF00000304D04B20031089F3EB300FF30323D59
:100E0000B400003034021A3003193302031C092FD6
:100E10000B2F01300C2F0030B500B6013508BB0098
:100E20003608BC003B083C040319172F182F242F49
:100E30004D08F7004C08F6008E317226863177088F
:100E40004001CD007608CC004C08B1004A08203E95
:100E500086000130870031088100FF30BD07FF3078
:100E6000BE3DFF30C007FF30C13D4230860000303C
:100E70008700403FB100413FB200423FB300433FD3
:100E8000B400443FB500453FB600463FB700473F7A
:100E9000B80004304001B836B70CB60CB50CB40C31
:100EA000B30CB20CB10C890B4A2F40013808C900B1
:100EB0003708C8003608C7003508C6003408C50022
:100EC0003308C4003208C3003108C20040014B0897
:100ED000803AB10080303102031D702F02304A0287
:100EE000031C732F742FA12F4001420843044404B4
:100EF00045044604470448044904031D802F812FFC
:100F0000B02E3E08803AB10080303102031D8A2F96
:100F100001303D0203188D2F8E2FB02E4001410865
:100F2000803AB10080303102031D982F0130400219
:100F3000031C9B2F9C2FA12F4101C818A02FA12F6C
:100F4000B02E4101481EA52FA62FC12FFF30400112
:100F5000CA07FF30CB3D3008B1004A08203E86006A
:100F60000130870031088100FF30CA07FF30CB3DD8
:100F70003030B1004A08203E860001308700310839
:100F8000810040014A08203EB1003108A00041081C
:100F9000A2004008A1003F088031F12086314001C5
:100FA0002108A9002008A8000800D33084008B3055
:100FB0008500E33086000030870005308031042052
:100FC0008731173084008D30850040308600013035
:100FD00087001130803104208731A0308400003038
:100FE00085002B308B31F62387312030840001308F
:100FF000850020308B31F6238731400181314A2929
:1016D60001300800053008004E010F1008004301D4
:1016E600901208004E011910080043011114080059
:1016F6004301911408004301111508004301911597
:10170600080043010C0808004E010F1408004301AD
:101716009116111608004301911211160800F000E7
:10172600700843018C0008004101BC10BB010E305B
:1017360008008B317B238B31013008008B317B23F2
:101746008B31023008008B317B238B31013008004E
:101756008B317E238B31003008008B318E238B3109
:10176600053008008B318A238B310A3008008B3113
:101776008A238B31093008004101BC10BB010E30B1
:10178600080001308E314F268B31080000308E3133
:101796004F268B31080071088C3130248B310800BC
:1017A6000134023403340434053471084101DE0087
:1017B6007008DD00080071084101E2007008E100D0
:1017C600080071084101E0007008DF0008004301CD
:1017D600110E890C890C013908004E010F1CF42BDF
:1017E600F52BF02B0800640080010131890BF72BE3
:1017F600003441013C108B3181238B3104300800C9
:101806004F0196019701980199019A019B010800E1
:1018160041013C1436358B3192238C31033008005C
:1018260041013C140314360D8B3192238C31053063
:101836000800803043018F00083090009101093084
:101846008D0090120800603051018D008F019101CA
:1018560002309300900192010800F0004E010F1E25
:10186600352C362C312C700842019A000800760877
:10187600F1007508F0007708F8007808F2000030EB
:101886008E3197268C3108004E2C8B31F0238C310B
:101896008F3138278C314101BC18522C532C482CDF
:1018A60008007608F1007508F0007708F800780857
:1018B600F20002308E3197268C3108004301901ACF
:1018C600652C662C6E2C80308F00083090009101BC
:1018D60009308D00901608008C3103248C318C3130
:1018E6001C248C31803150208C318C3126248C3153
:1018F6008E312D268C310800F3004101BC1D842C4D
:10190600852C8E2C7308F2007208B7007108B90096
:101916007008B800BC1108000230F0000030F10079
:1019260079088C317F248C310030F500F600F70100
:101936008C313A248C31043008000130F00000303C
:10194600F10079088C317F248C310030F500F600E7
:10195600F7018C313A248C31043008000130F00054
:101966000030F10079088C317F248C310030F5008D
:10197600F600F7018C313A248C310230080002302F
:10198600F0000030F10079088C317F248C31003072
:10199600F500F600F7018C313A248C31023008004C
:1019A6000230F0000030F10079088C317F248C3150
:1019B6000030F500F600F7018C313A248C31043002
:1019C60008000130F0000030F10079088C317F24E6
:1019D6008C310030F500F600F7018C313A248C3159
:1019E600023008000230F0000030F10079088C3136
:1019F6007F248C310030F500F600F7018C313A2453
:101A06008C31023008000130F0000030F100790816
:101A16008C317F248D310030F500F600F7018C31D2
:101A26003A248D310430080000340034A134A23445
:101A3600A334A434A534A634A734A834A934AA34CC
:101A4600AB34AC34AD34AE34AF34CD304001EF00FE
:101A56006F084101CF004C084001E80041014B08E6
:101A66004001E700CF30EF006F08E90000308F310A
:101A760095278D310800790886008701403FF000E0
:101A8600413FF1007908023E8600870101088C314A
:101A96007F248D310030F500F600F7018C313A24B1
:101AA6008D3102300800790886008701403FF0003A
:101AB600413FF1007908023E8600870101088C311A
:101AC6007F248D310030F500F600F7018C313A2481
:101AD6008D31023008007008BF3EF200FF30713DC4
:101AE600F300003073021A3003197202031C7C2DB6
:101AF6007E2D01307F2D0030F400F5017408F000D2
:101B06007508F100080070089F3EF200FF30713D35
:101B1600F300003073021A3003197202031C942D6D
:101B2600962D0130972D0030F400F5017408F00071
:101B36007508F10008007408803AF50080307502D7
:101B4600031DA72D013073020318AA2DAB2DB72D47
:101B56007309F5007409F600F50A0319F60A750803
:101B6600F3007608F400B72D0800F4007408F200BC
:101B76007208F300C22D0130F2007208F4077408EF
:101B86008600013087000108031DCA2DCB2DBE2D0E
:101B960073087402F000F101F01BF1030800F10173
:101BA600F10A4101BC18D82DD92DEC2D3C11FF307E
:101BB600F0007008B6008B316F238D318B317523A1
:101BC6008D318B3172238D3141013B08F000700855
:101BD600F1007108080020307004F2000030710432
:101BE600F30072089F3EF400FF30733DF5000030AD
:101BF60075021A3003197402031C022E042E0130DA
:101C0600052E0030F600F7017608F0007708F1009F
:101C160008004001A800400128088F31C6278E31F0
:101C2600003A0319172E182E0E2E40012708F10030
:101C36002608F00025088C317F248E318B31C42391
:101C46008E318D31D2258E31013A03192B2E2C2E51
:101C5600242E0800083042019F0090309D00243059
:101C66009E0067309B009C010030F0000030F100C0
:101C76008B31DE238E310030F0000030F1008B31E5
:101C8600E4238E310030F0000030F1008B31D82390
:101C96008E314101CA0108004001A300A401A40A33
:101CA6004101BC18572E582E6F2EBC144001A401BA
:101CB600230803195F2E602E642E4101BA01BA0A69
:101CC600692E0230FD007D084101BA008B31782370
:101CD6008E318C3147248E31400124080800760865
:101CE6009F3EF800FF30773DF900003079021A3048
:101CF60003197802031C802E822E0130832E0030B9
:101D0600FA00FB017A08FC007B08FD007C087D04D4
:101D160003198E2E8F2E962E5F307605F600003034
:101D26007705F700962E0800F40070087104031971
:101D36009D2E9E2EAF2E7435A03E8600870170081C
:101D4600C03F7108C13F7208F3007408AC3E8600BC
:101D5600870173088100BC2E7435A03E860087017A
:101D66006B30C03F0B30C13F7408AC3E8600870124
:101D760081010800FB00F901FA01D32E7808F5006D
:101D8600F6017508F1007608F2007408F700770886
:101D9600F3008B31CE238E310130F9070030FA3D46
:101DA60079087B07F5007508860001308700010871
:101DB600F6007608F8007808031DE22EE32EC12E01
:101DC60008004001A800400128088F31C6278E313F
:101DD600003A0319EF2EF02EE62E40012708F100F7
:101DE6002608F00025088C317F248E310030F5005E
:101DF600F600F7018C3154248E318B31C9238E3194
:101E06008D31D2258E31013A03190A2F0B2F032F5C
:101E1600080041013C100230FA007A08BB001B2F73
:101E26008B31A6238F31372F8B31AB238F31372F51
:101E36002E08FA007A08F9000430A03E86008701D1
:101E4600413F8A00403F0A008F31FB00FC017C08BD
:101E5600003A03192F2F172F7B08023A0319132F65
:101E6600013A0319132F172F08008B316F238F3177
:101E760041013C1C3F2F402F4E2F8B31EA238F31DF
:101E8600003A0319472F482F4E2F0F304001A0006C
:101E960020084101BA0041013A084001A000A10111
:101EA600A035A10D5430200784009030213D8500D7
:101EB600013F8A00003F0A008F314001A20022083C
:101EC6004101BA0008004101BC15762F8B31A623CB
:101ED6008F31942F8B3187238F310330942F8B31A1
:101EE600AB238F31942F2C08FA007A08F9002108C9
:101EF6008A0020080A008F31FB00FC017C08003AAA
:101F06000319862F722F7B08013A0319722F033AA1
:101F16000319692F013A0319692F073A03196D2F1F
:101F2600722F08004001EC006808EE006708ED001B
:101F36004101C201C301B32F6D30EA006A08CE0029
:101F46006908EB006B08CF006C088331AA238F3138
:101F560040014E084101C20740014F084101C33DFF
:101F660040016D0884006E0885001200031DBC2F19
:101F7600BD2F9F2F410143084001E800410142085F
:101F86004001E7000800F100F201F20A41013C19A4
:101F9600CD2FCE2FFE2F7108F0007008B600BC10B2
:101FA6003C153C100E30F0007008BA00F430B40056
:101FB6000130B500BC156B30A0000B30A100AC01A0
:101FC6006B30A2000B30A300AD016B30A4000B30C8
:101FD600A500AE016B30A6000B30A700AF016D3037
:101FE600A8000B30A900B0018B316F238F318C31E3
:101FF60061248F31F201720808002D342D342D34FE
:102006002D342D342D342D342D342D342D342D34C2
:102016002D342D342D342D342D342D342D342D34B2
:102026002D342D342D342D342D342D342D342D34A2
:102036002D342D342D342D342D342D342D342D3492
:102046002D342D342D342D342D342D342D342D3482
:102056002D342D342D342D340A340D3400340A3405
:102066004434613474346134203474346F3420342D
:102076006234653420347734723469347434743499
:1020860065346E34203474346F342034453445342A
:10209600503452344F344D343A340A340A340D3401
:1020A600003497340B3413340C340B340C349C3416
:1020B60000340A340034FC340B3466340F349C3458
:1020C6000B34A1340B34A6340B34AB340B34B0349C
:1020D6000B34B5340B34BA340B34BF340B340C34F4
:1020E6000F3445344534503452344F344D34203453
:1020F6004834693467346834203441346434643491
:1021060072346534733473343A3430347834253465
:1021160078340A340D34003445344534503452345E
:102126004F344D3420344C346F34773420344134BA
:102136006434643472346534733473343A3430340A
:102146007834253478340A340D3400340A340D34A6
:1021560045344534503452344F344D34203452349F
:102166006534613464342034443461347434613405
:102176003A340A340A340D340034763461346C341B
:10218600753465343A340034303478342534783450
:10219600203420340034253464342C342034003484
:0421A6000A340034C3
:020000040001F9
:0A000E00EC3FFF3F9F3FFF1FFF3F45
:00000001FF
