:020000040000FA
:08000000803102288731ED2F49
:100EE2000834023487319B278731762F80310228DC
:100EF200640080010131890B7A2F00344F01960181
:100F02009701980199019A019B01080080304301E1
:100F12008F0008309000910103308D00901208007C
:100F2200623051018D008F019101023093009001D6
:100F32009201080087317F278731873187278731E0
:100F42008731A827873187319127873108004001EF
:100F52009C019B01980199019A0109309600E430A5
:100F62009200FC309300EF3094007F3095007F3088
:100F72007E01D900AF30CE00F830C3000130E4006A
:100F8200E430B800DA01E501C401B901CF01E6019C
:100F9200BA01C501D001DB01FF30BB00FF30C60042
:100FA200FF30D100FF30DC000730E700FF30BC002B
:100FB200FF30C700FF30D200FF30DD000F30E80005
:100FC20016307D01C50016307E019A001530A6004C
:100FD2000A307D01C6000800873171278731F00091
:100FE200873172278731F10020308400003085007C
:100FF2001D3087317927873140018731732F0034C3
:10100200003400340034003400340034003400343E
:10101200003400340034003400340034003400342E
:10102200003400340034003400340034003400341E
:10103200003400340034003400340034003480348E
:10104200C0349034D034203420342034203420343E
:1010520020342034203420342034203420342034EE
:08106200203420342034003456
:020000040001F9
:0A000E00EC3FFF3F9F3FFF3FFF3F25
:00000001FF
