:020000040000FA
:08000000803102288731F52F41
:100C3E00083402348F3046018E008D018C0108007D
:100C4E004F0196019701980199019A019B010800A5
:100C5E00F30040011C117308863189268631080085
:100C6E00F30040011C157308863189268631080071
:100C7E00603051018D008F0191010230930090017F
:100C8E009201080040019C14C8300032890B4C2E92
:100C9E0040019C10C8300032890B522E08000330E0
:100CAE00450190008F019101FF308D008C014E01A6
:100CBE009010803045018E0008008631272686313F
:100CCE0087312927863186313F2686318631212686
:100CDE008631863156268631080086316426863165
:100CEE000230873165278631F801F80A1530F90090
:100CFE008830FA00FB0101308631F0268631862ECF
:100D0E0080310228F2007208F1000430F136890BAE
:100D1E008D2E710886319F26863186314926863181
:100D2E00720886319F268631863149268631080023
:100D3E00F000701CA32EA42EA72E40011816A92E6B
:100D4E00400118120310F00C701CAE2EAF2EB12EF7
:100D5E009815B22E98110310F00C701CB72EB82EE9
:100D6E00BA2E9814BB2E98100310F00C701CC02EC7
:100D7E00C12EC32E1814C42E18100800F7007708C1
:100D8E00400121020318CC2ECD2ED12E2108F500C4
:100D9E007508F700740820020318D62ED72EDB2E06
:100DAE002008F5007508F4007708003E84008830AE
:100DBE000318013E850000087407F5007508F6005B
:100DCE00760886312F268631C8300032890BEC2EFC
:100DDE000800FD007808FC007C08F4007D088631D0
:100DEE00C52686317B08031DFD2EFE2E232F0B2FCD
:100DFE00790884007A088500000886313726863106
:100E0E000130F9070030FA3D790884007A08850030
:100E1E001200031D132F142FFF2E282F7908840084
:100E2E007A08850000088631372686310130F907A9
:100E3E000030FA3D0130FB027B08031D272F282FBF
:100E4E00152F080040019C019B01980199019A0100
:100E5E0009309600E4309200FF309300FE3094008B
:100E6E00FF309500FF307E01D900FE30CE00FF30FE
:100E7E00C3000130E400E430B800DA01E501C4013A
:100E8E00B901CF01E601BA01C501D001DB01FF3086
:100E9E00BB00FF30C600FF30D100FF30DC00073052
:100EAE00E700FF30BC00FF30C700FF30D200FF303C
:100EBE00DD000F30E8000930A0000800F600992F81
:100ECE000230F40074084001A1000830F4007408E8
:100EDE00A000B52F0230F40074084001A1001030BC
:100EEE00F4007408A000B52F0430F400740840011B
:100EFE00A1001030F4007408A000B52F0230F400E9
:100F0E0074084001A1001430F4007408A000B52F3D
:100F1E000430F40074084001A1001430F400740889
:100F2E00A000B52F7608F400F5017508003A0319F4
:100F3E00A12FF42F7408003A0319672F013A0319F1
:100F4E00672F033A0319712F013A03197B2F073AC2
:100F5E000319852F013A03198F2FF42F1C113430EA
:100F6E00F400F230890BB92FF40BB92F0330863110
:100F7E009F2687318631492687310730F4007D3030
:100F8E00890BC72FF40BC72F0000863149268731F6
:100F9E00C8300032890BD02F863149268731023076
:100FAE0086319F2687318631492687312830863112
:100FBE002F2687310C3086312F2687310630863129
:100FCE002F268731013086312F2687318230F4006B
:100FDE00DE30890BF02FF40BF02F080086311F2620
:100FEE008731A000863120268731A100400186314D
:100FFE00742E8034C0349034D034203420342034D5
:10100E002034203420342034203420342034203432
:10101E0020342034203420342034003448346F34CB
:10102E0061346E346734203454346F3461346E342A
:02103E0000347C
:020000040001F9
:0A000E00EC3FFF3F9F3FFF3FFF3F25
:00000001FF
