:020000040000FA
:08000000803102288731F42F42
:100E70007708F1007608F00008007708F50076089A
:100E8000F40008007708F3007608F2000800640018
:100E900080010131890B482F00344F0196019701E1
:100EA000980199019A019B01080043018F010830C4
:100EB0009000910109308D009012080060305101BE
:100EC0008D008F0191010230930090019201080082
:100ED00087314D2787318731552787318731AA27B9
:100EE000873187315E27873187318927873108002D
:100EF0008731682787310330F9008A30F80056308F
:100F0000890B802FF80B802FF90B802F7B2F8031DE
:100F10000228083042019F0090309D0024309E003E
:100F200067309B009C010030F6000030F7008731ED
:100F30003D2787310030F6000030F7008731422727
:100F400087310030F6000030F700873138278731CD
:100F5000FA01080040019C019B01980199019A0146
:100F60000F309600FF309200FF309300FA3094006B
:100F7000FF309500FF307E01D900AD30CE00FF304C
:100F8000C3000730E400FF30B800DA01E501C40116
:100F9000B9015830CF00E601BA01C501D001DB012B
:100FA000FF30BB00FF30C600FF30D100FF30DC0057
:100FB0000730E700FF30BC00FF30C700FF30D20031
:100FC000FF30DD000F30E80014307D01C500153022
:100FD0007E01A4000F30A2001630A60016307D015D
:100FE000C6001130CB000800FA0120308400003028
:100FF00085001D3087314727873140018731782FA1
:101000000034003400340034003400340034003440
:101010000034003400340034003400340034003430
:101020000034003400340034003400340034003420
:101030000034003400340034003400340034003410
:020000040001F9
:0A000E00EC3FFF3F9F3FFF1FFF3F45
:00000001FF
