:020000040000FA
:08000000803102288731F52F41
:1002A80071084101E7007008E60008007108410183
:1002B800EB007008EA00080071084101E9007008C5
:1002C800E8000800F100710881319E2181310800A1
:1002D800640080010131890B6D2900344301100845
:1002E800F03908389000901608004F0196019701E0
:1002F800980199019A019B01080043018F01083078
:100308009000910109308D00901208006030510171
:100318008D008F0191010230930090019201080035
:100328004E010F10430111144E010F1C9C299D29E9
:1003380098290800F0004E010F1EA329A4299F291F
:10034800700842019A000800F1004E010F10713543
:10035800700743018C004E010F1CB329B429AF2943
:1003680008008131792181318131812181318231C6
:10037800C422813181318A21813182310A2281313D
:10038800080068304001EA006A08ED006708DF00ED
:100398006608DE006D30EA006A08E000003082314D
:1003A800542281310800F4007408F2007208F30046
:1003B800E1290130F2007208F40774088600870109
:1003C8000108031DE829E929DD2973087402F000F2
:1003D800F101F01BF10308007408803AF500803041
:1003E8007502031DF929013073020318FC29FD2940
:1003F800092A7309F5007409F600F50A0319F60AC3
:100408007508F3007608F400092A0800083042014C
:100418009F0090309D0024309E0067309B009C0117
:100428000030F0000030F10081315A218231003073
:10043800F0000030F1008131602182310030F0009D
:100448000030F1008131542182314101C501080099
:100458004001A300A101A201442A2008FB00FC01DD
:100468007B08F2007C08F3007A08FD007D08F400A0
:1004780082318522823101304001A1070030A23D3E
:1004880021082307FB007B08860087010108FC0080
:100498007C08A0002008031D522A532A312A08008C
:1004A8004001E3005F08E5005E08E4004101BD018A
:1004B800BE01722A6430E1006108CE006008E200E3
:1004C8006208CF0063088331C123823140014E089E
:1004D8004101BD0740014F084101BE3D400164088C
:1004E8008400650885001200031D7B2A7C2A5E2A89
:1004F80041013E084001DF0041013D084001DE00A6
:10050800080074080319892A8A2A8F2A7408031D87
:100518008E2A8F2A942A7208813166218231C32A51
:100528007408033E860087011600010403199D2AFA
:100538009E2ABB2A7408033E86008701403FF500C7
:10054800413FF600740A86008701403FF700413FAB
:10055800F8007808803AF9007608803A7902031D95
:10056800B72A750877020318BA2ABB2AC32A740A5D
:10057800860087010130810741310318810A08008C
:1005880040019C019B01980199019A010F30960046
:10059800FF309200FF309300FA309400FF3095004E
:1005A800FF307E01D900AD30CE00FF30C3000730E8
:1005B800E400FF30B800DA01E5010430C400B901F5
:1005C800D830CF00E601BA01C501D001DB01FF3008
:1005D800BB00FF30C600FF30D100FF30DC00073021
:1005E800E700FF30BC00FF30C700FF30D200FF300B
:1005F800DD000F30E80014307D01C50015307E01A4
:10060800A4000F30A2001630A60016307D01C600E7
:100618001130CB0008004001AC004101431C152BF0
:10062800162B1F2B40012C08A7002708FA002408C6
:1006380082312C2283314001A61B232B242B292B0A
:100648002608AB002508AA002B2BAA01AB01A8019C
:10065800A9013F2B2030F2000030F30040012C08A4
:10066800A7002708F4008231852283310130400138
:10067800A8070030A93D2908803AA7002B08803A2E
:100688002702031D492B2A082802031C4C2B4D2B3B
:100698002E2B41014318512B522B5B2B40012C0868
:1006A800A7002708FA00240882312C228331400150
:1006B80024088131D721833140012A087007A4001A
:1006C8002B08713DA50008008131B52183318131A6
:1006D800722183314101EE01813194218331F0018E
:1006E80041016E088131A821833100304301111B7B
:1006F80001304101ED006D08031D832B842B962BDF
:1007080020304001E6008830E70041016E084001D2
:10071800EE00EF016E08E8006F08E9008131C5219D
:100728008331AB2B0D304001EE00FB30890B9A2B47
:10073800EE0B9A2B003201304001EE006E084101A9
:10074800EE077F306E02031CAA2BAB2B702B2030D8
:100758004001E6008830E70041016E084001EE00E4
:10076800EF016E08E8006F08E9008131C521833187
:1007780040011A14BE2B803102284001DD004E08CA
:1007880086008701403FD000413FD10050088400D7
:10079800510885001200253A031DD32BD42B782C41
:1007A8004E08860087010130810741310318810A0C
:1007B8004101BF01C001C301C401FF30C100FF30C6
:1007C800C20040014E0886008701403FD000413FEB
:1007D800D10050088400510885001200643A0319BA
:1007E800F62BF72B082C4E0886008701403FD000D7
:1007F800413FD10050088400510885001200693A31
:10080800031D072C082C432C4E0886008701013055
:10081800810741310318810A4F08860087010108C2
:100828008400850102308107003FD000013FD100DC
:100838005008D5005108D600890D893B8909D70091
:10084800D800D900DA00DB00DC005508B0005608F3
:10085800B1005708B2005808B3005908B4005A0844
:10086800B5005B08B6005C08B7005D0886318726CE
:10087800833140013108CF003008CE009B2C4E0850
:1008880086008701403FD000413FD10050088400D6
:10089800510885001200253A031D532C542C6D2C49
:1008A8004E08860087010130810741310318810A0B
:1008B8002530F2000030F3005D08D0005008F40045
:1008C80082318522833101304001CE000030CF00D3
:1008D8009B2C4E088600870101308107413103189F
:1008E800810ACE01CF019B2C4E0886008701403F2C
:1008F800D000413FD100500884005108850000080D
:10090800D200D3015208F2005308F3005D08D40066
:100918005408F40082318522833140014E08860054
:1009280087010130810741310318810A672C0800CB
:10093800F2012830860000308700473FF000F01FA2
:10094800A62CA72CC82C4001A809A909AA09AB09FB
:10095800AC09AD09AE09AF09A80A031DC62CA90A3E
:10096800031DC62CAA0A031DC62CAB0A031DC62CE0
:10097800AC0A031DC62CAD0A031DC62CAE0A031D06
:10098800C62CAF0AF201F20A203086000030870038
:10099800473FF000F01FD12CD22CF12C4001A009C8
:1009A800A109A209A309A409A509A609A709A00ADA
:1009B800031DF12CA10A031DF12CA20A031DF12C21
:1009C800A30A031DF12CA40A031DF12CA50A031D7B
:1009D800F12CA60A031DF12CA70A400120082104C6
:1009E8002204230424042504260427040319FD2CC7
:1009F800FE2C512DF101F10A0D2DA035A10DA20DEE
:100A0800A30DA40DA50DA60DA70D0130F0007008CB
:100A1800F107A71F102D112D012D27082F02031DE7
:100A28002F2D26082E02031D2F2D25082D02031D0C
:100A38002F2D24082C02031D2F2D23082B02031D04
:100A48002F2D22082A02031D2F2D21082902031DFC
:100A58002F2D20082802031C322D332D432D20086A
:100A6800A8022108A93B2208AA3B2308AB3B24087B
:100A7800AC3B2508AD3B2608AE3B2708AF3BA73665
:100A8800A60CA50CA40CA30CA20CA10CA00C013064
:100A9800F102031D502D512D112D72080319552DEA
:100AA800562D742DA809A909AA09AB09AC09AD09E5
:100AB800AE09AF09A80A031D742DA90A031D742DD8
:100AC800AA0A031D742DAB0A031D742DAC0A031D5D
:100AD800742DAD0A031D742DAE0A031D742DAF0AC3
:100AE80040012808A0002908A1002A08A2002B0814
:100AF800A3002C08A4002D08A5002E08A6002F0886
:100B0800A7000800F2012030860000308700473F28
:100B1800F000F01F902D912DB22D4001A009A109E0
:100B2800A209A309A409A509A609A709A00A031DE2
:100B3800B02DA10A031DB02DA20A031DB02DA30AD2
:100B4800031DB02DA40A031DB02DA50A031DB02D49
:100B5800A60A031DB02DA70AF201F20A2830860062
:100B680000308700473FF000F01FBB2DBC2DDF2D64
:100B78004001A809A909AA09AB09AC09AD09AE0940
:100B8800AF09A80A031DDB2DA90A031DDB2DAA0A3C
:100B9800031DDB2DAB0A031DDB2DAC0A031DDB2D6A
:100BA800AD0A031DDB2DAE0A031DDB2DAF0A013094
:100BB800F0007008F20673308600003087000830B5
:100BC800F00000301E00F00BE62D40012008210443
:100BD8002204230424042504260427040319F52DDC
:100BE800F62D522EF101F10A052EA035A10DA20D08
:100BF800A30DA40DA50DA60DA70D0130F0007008DA
:100C0800F107A71F082E092EF92DF335F40DF50D60
:100C1800F60DF70DF80DF90DFA0D27082F02031D33
:100C28002F2E26082E02031D2F2E25082D02031D08
:100C38002F2E24082C02031D2F2E23082B02031D00
:100C48002F2E22082A02031D2F2E21082902031DF8
:100C58002F2E20082802031C322E332E442E200863
:100C6800A8022108A93B2208AA3B2308AB3B240879
:100C7800AC3B2508AD3B2608AE3B2708AF3B7314B9
:100C8800A736A60CA50CA40CA30CA20CA10CA00CB6
:100C98000130F102031D512E522E092E720803193C
:100CA800562E572E752EF309F409F509F609F7099A
:100CB800F809F909FA09F30A031D752EF40A031D48
:100CC800752EF50A031D752EF60A031D752EF70AF3
:100CD800031D752EF80A031D752EF90A031D752EBE
:100CE800FA0A73084001A0007408A1007508A20060
:100CF8007608A3007708A4007808A5007908A6005C
:100D08007A08A70008004001BF003008C400310875
:100D1800C5003208C6003308C7003408C8003508C3
:100D2800C9003608CA003708CB00443086000030B6
:100D38008700473FB800B81BA22EA42E0130A52E6D
:100D480000304001B900BA013908C2003A08C300AE
:100D5800420843040319B12EB22ED02EC409C50986
:100D6800C609C709C809C909CA09CB09C40A031DA4
:100D7800D02EC50A031DD02EC60A031DD02EC70AC1
:100D8800031DD02EC80A031DD02EC90A031DD02E5C
:100D9800CA0A031DD02ECB0A4101C21BD42ED52E60
:100DA800D92EFD30C305FF30C4054208803A400102
:100DB800B80080303802031DE42E013041014102A1
:100DC8000318E72EE82EEE2E01304001BD0000305A
:100DD800BE00F62E410142084001BE004101410813
:100DE8004001BD00410140084001C10041013F08E8
:100DF8004001C00042084304031D032F042F092F9C
:100E08004101431D082F092F0E2FFF304001C00755
:100E1800FF30C13D1F304001CC000030CD00410102
:100E2800E5017E2FFF304001CC07FF30CD3D0A3071
:100E3800A000A101A201A301A401A501A601A70187
:100E48004408A8004508A9004608AA004708AB00BE
:100E58004808AC004908AD004A08AE004B08AF008E
:100E680084319C24863140012108F4002008F300D5
:100E78008131F02186317308303E4001B8004C08BA
:100E8800C63E8600870138088100FF30BD07FF3065
:100E9800BE3DFF30C007FF30C13D0A30A000A101B0
:100EA800A201A301A401A501A601A7014408A80065
:100EB8004508A9004608AA004708AB004808AC0046
:100EC8004908AD004A08AE004B08AF0085318625B9
:100ED800863140012008C4002108C5002208C60048
:100EE8002308C7002408C8002508C9002608CA0026
:100EF8002708CB0040014D08803AB80080303802FE
:100F0800031D882F01304C02031C8B2F8C2FB92F07
:100F180040014408450446044704480449044A0477
:100F28004B04031D982F992F162F3E08803AB800BE
:100F380080303802031DA22F01303D020318A52F6F
:100F4800A62F162F40014108803AB8008030380299
:100F5800031DB02F01304002031CB32FB42FB92F4B
:100F68004101C318B82FB92F162F40014208430476
:100F7800031DBF2FC02FC52F4101431DC42FC52FEF
:100F8800E12FFF304001CC07FF30CD3D420843043C
:100F9800031DCF2FD02FD52F2B30BB000030BC0026
:100FA800D92F2D30BB000030BC003B08B8004C08DE
:100FB800C63E860087013808810040014C08C63EBD
:100FC800B8003808A4004108A6004008A5003F085A
:100FD80083310F23863140012508B1002408B00071
:100FE8000800A030840000308500463081316C2133
:100FF800873140018331682B0034003400340034D9
:101008000034003400340034003400340034003438
:101018000034003400340034003400340034003428
:101028000034003400340034003400340034003418
:10103800003400340034003442344D343134333415
:101048003834333420344934443431343A34203455
:08105800253464340A3400342D
:020000040001F9
:0A000E00EC3FFF3F9F3FFF1FFF3F45
:00000001FF
