:020000040000FA
:08000000803102288731FD2F39
:100E8E00803046019E009D019C0108004F01960195
:100E9E009701980199019A019B0108006030510158
:100EAE008D008F0191010630930090019201080090
:100EBE000130450190008F019101FF308D008C01B2
:100ECE004E019010A03045018E00080087314D274D
:100EDE00873187317D278731873155278731873194
:100EEE004727873187315F278731080040019C01F2
:100EFE009B01980199019A010F309600FB309200E8
:100F0E00FF309300AF309400FF309500FF307E012C
:100F1E00D900AF30CE00FF30C3000730E400FB3005
:100F2E00B800DA01E501C401B901CF01E601BA0149
:100F3E00C501D001DB01FF30BB00FF30C600FF3022
:100F4E00D100FF30DC000730E700FF30BC00FF307F
:100F5E00C700FF30D200FF30DD000F30E8000D304B
:100F6E009200080087316D278731031040011A1F48
:100F7E0003140318C32FC62F40011A17C82F4001A0
:100F8E001A131A1BCB2FCD2F0130CE2F0030F000AD
:100F9E000E1BD22FD42F0130D52F00307006031D1B
:100FAE00D92FDA2FC82F03101A1E03140318E02F9F
:100FBE00E32F40011A16E52F40011A121A1AE82FD4
:100FCE00EA2F0130EB2F0030F0000E1AEF2FF12F29
:100FDE000130F22F00307006031DF62FF72FE52F8C
:100FEE007830890BF82FBC2F8031022840018731D1
:020FFE00B92F09
:020000040001F9
:0A000E00EC3FFF3F9F3FFF3FFF3F25
:00000001FF
