:08000000803102288731F52F41
:100C6600083402344F0196019701980199019A01BF
:100C76009B010800F30040011C117308863177269A
:100C860086310800F30040011C157308863177266B
:100C960086310800013086313D268631A630890B23
:100CA600522E00320800623051018D008F019101F1
:100CB6000230930090019201080086313526863174
:100CC60087312E2786318631562686310800400127
:100CD6009C145330890B6D2E000040019C1053303C
:100CE600890B732E00000800F2007208F100043030
:100CF600F136890B7B2E71088631A4268631863122
:100D06006A26863172088631A426863186316A269D
:100D160086310800863160268631023087316827A1
:100D2600863186314D268631F8011530F900883036
:100D3600FA00FB0100308631F5268631A12E80317E
:100D46000228F000701CA82EA92EAC2E4001181601
:100D5600AE2E400118120310F00C701CB32EB42EE8
:100D6600B62E9815B72E98110310F00C701CBC2ED9
:100D7600BD2EBF2E9814C02E98100310F00C701CB8
:100D8600C52EC62EC82E1814C92E18100800F70036
:100D96007708400121020318D12ED22ED62E210823
:100DA600F5007508F700740820020318DB2EDC2E08
:100DB600E02E2008F5007508F4007708003E840050
:100DC60088300318013E850000087407F500750891
:100DD600F600760886313D2686315330890BF12E92
:100DE60000000800FD007808FC007C08F4007D087F
:100DF6008631CA2686317B08031D022F032F282F32
:100E0600102F790884007A08850000088631452667
:100E160086310130F9070030FA3D790884007A08F6
:100E260085001200031D182F192F042F2D2F790866
:100E360084007A088500000886314526863101300F
:100E4600F9070030FA3D0130FB027B08031D2C2F09
:100E56002D2F1A2F080040019C019B019801990132
:100E66009A0109309600E4309200FF309300FF307B
:100E76009400FF309500FF307E01D900FF30CE0090
:100E8600FF30C3000130E400E030B800DA01E501CC
:100E9600C401B901CF01E601BA01C501D001DB01E8
:100EA600FF30BB00FF30C600FF30D100FF30DC0052
:100EB6000730E700FF30BC00FF30C700FF30D2002C
:100EC600FF30DD000F30E8000800F6009C2F0230EE
:100ED600F40074084001A1000830F4007408A00072
:100EE600B82F0230F40074084001A1001030F4005D
:100EF6007408A000B82F0430F40074084001A10063
:100F06001030F4007408A000B82F0230F400740802
:100F16004001A1001430F4007408A000B82F04307A
:100F2600F40074084001A1001430F4007408A00015
:100F3600B82F7608F400F5017508003A0319A42FB6
:100F4600F42F7408003A03196A2F013A03196A2F1D
:100F5600033A0319742F013A03197E2F073A03192E
:100F6600882F013A0319922FF42F1C110D30F4002B
:100F7600FC30890BBC2FF40BBC2F03308631A42622
:100F8600873186316A268731FA300032890BC82FBD
:100F960086316A2687315330890BCF2F0000863180
:100FA6006A26873102308631A426873186316A2641
:100FB6008731283086313D2687310C3086313D26F3
:100FC6008731063086313D268731013086313D2610
:100FD60087312130F4007630890BEF2FF40BEF2F99
:100FE60000320800863133268731A0008631342648
:100FF6008731A100400186318D2E8034C034903473
:10100600D03420342034203420342034203420348A
:10101600203420342034203420342034203420342A
:101026002034003448346F3461346E3467342034ED
:101036004B34683461346E346834203454346F343D
:0610460061346E34003439
:020000040001F9
:0A000E00EC3FFF3F9F3FFF1FFF3F45
:00000001FF
