:020000040000FA
:10000000803102288731E32F9E31092680319031DB
:10001000462080319E31212680319E31012680315B
:100020000800003040013505BD0000303605BE0037
:1000300080303705BF007F303805C00040083F04DE
:100040003E043D04031D252826282E280030B80034
:100050000030B7000030B6000030B5000030390580
:10006000BD0000303A05BE0080303B05BF007F3048
:100070003C05C00040083F043E043D04031D4128E8
:1000800042284A280030BC000030BB000030BA00D3
:100090000030B900B81F4D284E2866280030BD003A
:1000A0000030BE000030BF008030C0003508BD0207
:1000B0003608BE3B3708BF3B3808C03B4008B80095
:1000C0003F08B7003E08B6003D08B500BC1F6928D0
:1000D0006A2882280030BD000030BE000030BF001A
:1000E0008030C0003908BD023A08BE3B3B08BF3B28
:1000F0003C08C03B4008BC003F08BB003E08BA00BB
:100100003D08B9008030B8068030BC063C08380293
:10011000031D94283B083702031D94283A08360231
:10012000031D9428390835020318972898289A281F
:1001300003109B28031408004101C200BE01BF0147
:1001400040016E084101D40040016D084101D30017
:1001500040016C084101D20040016B084101D1000F
:1001600054084001B800410153084001B700410163
:1001700052084001B600410151084001B50000306D
:10018000BC000030BB000030BA000030B900803144
:10019000112080310318CD28CE28E72801304101F5
:1001A000BE000030BF005408F3005308F2005208AC
:1001B000F1005108F0009E312B2680317308410177
:1001C000D4007208D3007108D2007008D100410138
:1001D000D701D801420150084101C40042014F0833
:1001E0004101C3003E083F04031DF728F828FD28FD
:1001F0004201531DFC28FD281B2941013E083F04F4
:10020000031D0329042909292B30A4000030A5006F
:100210000D292D30A4000030A5002408A0002008DE
:100220004301A00001304101D7070030D83DFF3025
:10023000C307FF30C43D41015408F3005308F200E6
:100240005208F1005108F0009231A8228031700369
:100250007104031D2C292D29772940016F08BF3E09
:100260004101A000FF3003180030A100003021023E
:100270001A3003192002031C3E294029013041296C
:100280000030A200A3012208A6002308A700260828
:10029000270403194C294D2957292C30F000A03090
:1002A000F1005708A03E9F31192780316029343072
:1002B000F000A030F1005708A03E9F31192780318F
:1002C000FD304101C307FF30C43DA030A00020082D
:1002D000FB004408FD004308FC0042089131212145
:1002E00080317C084001EC007B08EB00E22F4101EB
:1002F0005408F3005308F2005208F1005108F000CE
:100300009231A822803170087104031D882989293F
:10031000D32940016F08BF3E4101A000FF30031800
:100320000030A100003021021A3003192002031C02
:100330009A299C2901309D290030A200A30122089E
:10034000A8002308A900280829040319A829A92915
:10035000B3293030F000A030F1005708A03E9F31A3
:1003600019278031BC293830F000A030F10057083F
:10037000A03E9F3119278031FD304101C307FF3076
:10038000C43DA030A0002008FB004408FD00430845
:10039000FC0042089131212180317C084001EC00B1
:1003A0007B08EB00E22F3F304101DC008030DB00B6
:1003B0000030DA000030D900D501D6015408F3002E
:1003C0005308F2005208F1005108F0000030F70025
:1003D0000030F6000030F5000030F400903180204D
:1003E00080310318F429F529B92A262A4130400121
:1003F000A3002030A2000030A1000030A000410185
:100400005C084001A70041015B084001A6004101D2
:100410005A084001A500410159084001A4008A3151
:10042000E3228031400123084101DC004001220821
:100430004101DB00400121084101DA0040012008B0
:100440004101D9000130D5070030D63D41015408A3
:100450004001B800410153084001B7004101520872
:100460004001B600410151084001B5004130A300F0
:100470002030A2000030A1000030A00041015C0843
:100480004001A70041015B084001A60041015A0854
:100490004001A500410159084001A4008A31E3222E
:1004A000803140012308BC002208BB002108BA00AB
:1004B0002008B9008031112080310318602A612A98
:1004C000F629922A41304001C0002030BF000030A0
:1004D000BE000030BD0041015C084001C400410184
:1004E0005B084001C30041015A084001C2004101BC
:1004F00059084001C10096314C2680314001400826
:100500004101DC0040013F084101DB0040013E08A1
:100510004101DA0040013D084101D900FF30D50713
:10052000FF30D63D410154084001B8004101530855
:100530004001B700410152084001B6004101510895
:100540004001B50041015C084001BC0041015B086D
:100550004001BB0041015A084001BA00410159085D
:100560004001B900803111208031031CB82AB92A1A
:10057000622A40016F084101A000A1012008F60095
:100580002108F7009F315D27803176084101A200E4
:100590002208C6004608A0002008C50067304606AD
:1005A000031DD32AD42AFD2A420151085204031DF7
:1005B000DA2ADB2ADF2A0130D1000030D2005208CB
:1005C000803A4101A00080302002031DEA2A013058
:1005D000420151020318ED2AEE2AF42A06304101A5
:1005E000C0000030C100032B420152084101C1008C
:1005F000420151084101C000032B4201D21B012BD3
:10060000022BEE2AF42A67304606031D082B092B1D
:10061000362B5608803AA0007F302002031D122B93
:10062000FC305502031C152B162B312B41014008C1
:10063000FF3EA000FF30413DA1002108803AA2000A
:100640005608803A2202031D272B55082002031C5E
:100650002A2B2B2B312B66304101A0002008C5002E
:10066000362B65304101A0002008C5004108B700C5
:100670004008B60067304606031D3F2B402B4A2B2F
:1006800066304506031D452B462B4E2BD61F492BA6
:100690004A2B4E2B0130B6070030B73D6630450679
:1006A000031D532B542B6C2BD61F572B582B622B0F
:1006B0003F30DC008030DB000030DA000030D90051
:1006C000D501D601673046060319672B682B6C2BC2
:1006D0005508B6075608B73DCF01D0015408CA00E7
:1006E0005308C9005208C8005108C7005C08BB0085
:1006F0005B08BA005A08B9005908B8004C2C4101EF
:100700005C084001C00041015B084001BF0041019D
:100710005A084001BE00410159084001BD00410195
:100720004A084001C400410149084001C300410199
:1007300048084001C200410147084001C10096310C
:100740004C26803140014008DA003F08D9003E08BD
:10075000D8003D08D70095316125803140015A0805
:100760004101CE00400159084101CD004001580827
:100770004101CC00400157084101CB004E08F30075
:100780004D08F2004C08F1004B08F0009231342281
:10079000803171084101BD007008BC004E08400165
:1007A000A70041014D084001A60041014C0840014D
:1007B000A50041014B084001A40041015C08400133
:1007C000A30041015B084001A20041015A08400119
:1007D000A100410159084001A0008A31E322803183
:1007E00040012308B8002208B7002108B6002008FD
:1007F000B50041014A084001BC00410149084001DF
:10080000BB00410148084001BA00410147084001CE
:10081000B9009E31D8268031400138084101CA0014
:10082000400137084101C900400136084101C800B4
:10083000400135084101C70041304001C00020306F
:10084000BF000030BE000030BD0041015C08400127
:10085000C40041015B084001C30041015A08400146
:10086000C200410159084001C10096314C26803137
:10087000400140084101DC0040013F084101DB002C
:1008800040013E084101DA0040013D084101D90024
:100890000130CF070030D03D5008803AA000370823
:1008A000803A2002031D562C36084F02031C592C97
:1008B0005A2C7F2B40304001A300A030A200003012
:1008C000A1000030A00041015C084001A7004101E7
:1008D0005B084001A60041015A084001A500410102
:1008E00059084001A4008A31E322803140012308E5
:1008F0004101CE00400122084101CD004001210804
:100900004101CC00400120084101CB004A084001D0
:10091000B800410149084001B700410148084001C1
:10092000B600410147084001B50041014E084001B1
:10093000BC0041014D084001BB0041014C08400191
:10094000BA0041014B084001B900803111208031CB
:100950000318AB2CAC2CB62C00304101CE0000307B
:10096000CD000030CC000030CB00DB2C41014A0828
:10097000F3004908F2004808F1004708F0004E086B
:10098000F7004D08F6004C08F5004B08F4009031D4
:1009900080208031031CCD2CCE2CDB2C41013C1857
:1009A000D22CD32CDB2C0030CE000030CD00003018
:1009B000CC000030CB0041014E08F3004D08F2009E
:1009C0004C08F1004B08F0005408F7005308F600FB
:1009D0005208F5005108F4008831A42080317308D2
:1009E0004101CA007208C9007108C8007008C70038
:1009F0004A084001B800410149084001B7004101DF
:100A000048084001B600410147084001B5004130A7
:100A1000A3002030A2000030A1000030A00041015E
:100A20003B084001A70041013A084001A6004101EE
:100A300039084001A500410138084001A4008A316D
:100A4000E322803140012308BC002208BB002108BA
:100A5000BA002008B900803111208031031C312DEB
:100A6000322D6D2D01304101D5070030D63D41308A
:100A70004001A3002030A2000030A1000030A000FF
:100A800041013B084001A70041013A084001A6008E
:100A9000410139084001A500410138084001A40086
:100AA0008A31E3228031400123084101BB0040012B
:100AB00022084101BA00400121084101B90040016A
:100AC00020084101B80066304506031D682D692DD8
:100AD0006D2D0130B6070030B73D41013B08DC0009
:100AE0003A08DB003908DA003808D90065304506D5
:100AF00003197B2D7C2D812D5608B5005508B400B7
:100B0000832DB401B501B201B301B001B101CF0130
:100B1000D001C42E41015C084001C00041015B08C6
:100B20004001BF0041015A084001BE00410159087F
:100B30004001BD0041014A084001C400410149088B
:100B40004001C300410148084001C200410147087B
:100B50004001C10096314C26803140014008DA0046
:100B60003F08D9003E08D8003D08D70095316125DF
:100B7000803140015A084101CE004001590841012D
:100B8000CD00400158084101CC0040015708410107
:100B9000CB004E08F3004D08F2004C08F1004B0862
:100BA000F00092313422803171084101BD0070089B
:100BB000BC004201531ADD2DDE2DF42D41013C080D
:100BC0003D04031DE42DE52DF42D67304606031D7D
:100BD000EA2DEB2DF42DB51FEE2DEF2DF42D013068
:100BE000B0070030B13D422E410132083304031DED
:100BF000FA2DFB2D2A2EB51FFE2DFF2D2A2E2E306D
:100C0000A0005708A03E8600013087002008810020
:100C10000130D7070030D83DFF30C307FF30C43D57
:100C20000130B2000030B3002A2E3030A000570847
:100C3000A03E860001308700200881000130D707E0
:100C40000030D83DFF30C307FF30C43DFF30B00750
:100C5000FF30B13D30083104031D2F2E302E152EEC
:100C60003C08303EA0005708A03E860001308700B7
:100C7000200881000130D7070030D83DFF30C3077E
:100C8000FF30C43D4E084001A70041014D0840011E
:100C9000A60041014C084001A50041014B0840015C
:100CA000A40041015C084001A30041015B08400130
:100CB000A20041015A084001A10041015908400128
:100CC000A0008A31E322803140012308B8002208C5
:100CD000B7002108B6002008B50041014A084001CC
:100CE000BC00410149084001BB00410148084001E6
:100CF000BA00410147084001B9009E31D826803131
:100D0000400138084101CA00400137084101C900CB
:100D1000400136084101C800400135084101C700C3
:100D200041304001C0002030BF000030BE00003024
:100D3000BD0041015C084001C40041015B08400165
:100D4000C30041015A084001C20041015908400155
:100D5000C10096314C268031400140084101DC0041
:100D600040013F084101DB0040013E084101DA003B
:100D700040013D084101D900FF30B407FF30B53DC7
:100D80000130CF070030D03D5008803AA00037082E
:100D9000803A2002031DCE2E36084F020318D12EB2
:100DA000D22EE02E41015808803AA0008030200267
:100DB000031DDC2E4B305702031CDF2EE02E8A2D44
:100DC000410132083304031DE62EE72EFA2E4201BC
:100DD000531EEB2EEC2EFA2E2E304101A0005708A8
:100DE000A03E860001308700200881000130D7072F
:100DF0000030D83D41015708A03E860001308700F1
:100E0000810165304506031D062F072FD02F4F3077
:100E1000CF000030D0004F08A03E86000130870090
:100E20008101BE01BF01D61F162F172F202F0130C1
:100E3000BE000030BF00D509D609D50A0319D60A6D
:100E40000230C0000030C100582FFF304101CF07F1
:100E5000FF30D03D0A30F0000030F1005608F300BA
:100E60005508F2009031CE2080317008303E4101AB
:100E7000A0004F08A03E86000130870020088100B6
:100E80000A30F0000030F1005608F3005508F20077
:100E90009131D521803171084101D6007008D5000B
:100EA000FF30C007FF30C13DFF30C307FF30C43DF6
:100EB00055085604031D5D2F5E2F252F4108803AEB
:100EC000A00080302002031D672F0130400203186C
:100ED0006A2F6B2F252FFF304101CF07FF30D03D08
:100EE0003E083F04031D752F762F7B2F2B30AA0061
:100EF0000030AB007F2F2D30AA000030AB002A0855
:100F0000A0004F08A03E8600013087002008810025
:100F1000FF30C307FF30C43DFF30CF07FF30D03D67
:100F200040016F08BF3E4101A000FF3003180030B0
:100F3000A100003021021A3003192002031CA12F46
:100F4000A32F0130A42F0030A200A3012208AE007D
:100F50002308AF002E082F04031DAF2FB02FB52F8D
:100F60006530AC000030AD00B92F4530AC0000302A
:100F7000AD002C08A0004F08A03E8600013087007D
:100F800020088100FF30C307FF30C43D4F08A03E5A
:100F9000F0000130F1005708A03E9F311927803141
:100FA000A0304101A0002008FB004408FD004308D8
:100FB000FC0042089131212180317C084001EC0085
:100FC0007B08EB0008004101903101208731EF00E0
:100FD0004201903100208731D70045308400013034
:100FE00085001230883100208731A0308400013024
:100FF0008500503088310020873140019431832CA6
:10100000640080010131890B01280034F6003F287B
:101010000230F40074084101EF000830F400740855
:101020004201D7005B280230F40074084101EF0050
:101030001030F40074084201D7005B280430F4003B
:1010400074084101EF001030F40074084201D70029
:101050005B280230F40074084101EF001430F40002
:1010600074084201D7005B280430F4007408410181
:10107000EF001430F40074084201D7005B287608B2
:10108000F400F5017508003A03194728A3287408ED
:10109000003A03190828013A03190828033A0319EA
:1010A0001328013A03191E28073A03192928013A7F
:1010B00003193428A32840011C116830F400E430DF
:1010C000890B6028F40B6028003203309F3182279F
:1010D00088319031022088310D30F400FC30890BCA
:1010E0006F28F40B6F289031022088310330F40010
:1010F0009830890B7928F40B7928903102208831B7
:1011000002309F3182278831903102208831283087
:101110009E31112688310C309E31112688310630DF
:101120009E311126883101309E31112688310230DE
:10113000F5000430F400BA30890B9C28F40B9C288D
:10114000F50B9C2800320800730880394001A0008C
:101150002008F8007335A0002008FA00F21FB1281B
:10116000B228B3287A147A080319B728B828C828EF
:101170007A0A031DBC28BD28C5280030F3000030C2
:10118000F2000030F1000030F000F217F301D02837
:101190000030F3000030F2000030F1000030F000C9
:1011A00077088039A0002008F9007908780603192B
:1011B000DA28DB28DC2878177735A0002008F9002A
:1011C000F61FE328E428E528791479080319E928AB
:1011D000EA28FA28790A031DEE28EF28F7280030BC
:1011E000F7000030F6000030F5000030F400F6178C
:1011F000F70102290030F7000030F6000030F5005A
:101200000030F4007A0879020318072908294C29CC
:10121000781F0B290C2910298030A0002008F8061F
:101220007A08A0002008FB007908A0002008FA0036
:101230007B08A0002008F9007008A0002008FB002F
:101240007408A0002008F0007B08A0002008F4002B
:101250007108A0002008FB007508A0002008F1001C
:101260007B08A0002008F5007208A0002008FB0001
:101270007608A0002008F2007B08A0002008F600F5
:101280007308A0002008FB007708A0002008F300E6
:101290007B08A0002008F700FB017908A000A1014D
:1012A0002108A3007A082002A200031CA30323083C
:1012B000803AA40080302402031D60291A302202E3
:1012C000031C632964299E29730872047104700445
:1012D000031D6B296D2901306E2900304001A000EB
:1012E0002008FB000030F3000030F2000030F10075
:1012F0000030F0007908A0002008FA00A4297B1C27
:10130000822983298A297B3601384001A0002008E0
:10131000FB008C290310FB0C701C8F29902991294C
:10132000FB1701304001A000F337F20CF10CF00C78
:10133000A00B94290130A0002008FA0779087A024E
:10134000031CA329A4297F29781BA729A829E229FE
:101350007A08031DAC29AD29B6290030F30000300E
:10136000F2000030F1000030F000E22A7408F007CB
:101370007508F13D7608F23D7708F33D731CC129ED
:10138000C2296F2A7B1CC529C629CD297B36013885
:101390004001A0002008FB00CF290310FB0C701CAB
:1013A000D229D329D429FB1701304001A000F337FB
:1013B000F20CF10CF00CA00BD7290130A000200892
:1013C000FA076F2A7308803A4001A0007708803A34
:1013D0002002031DF52976087202031DF529750800
:1013E0007102031DF529740870020318F829F92900
:1013F000312AFF30A000FF30A100FF30A200FF30F3
:10140000A30070087402A4007108753BA50072085F
:10141000763BA6007308773BA7002408A0072508A1
:10142000A13D2608A23D2708A33D2308F30022087A
:10143000F2002108F1002008F0008030A000200810
:10144000F806FB09FB0A7B08031D272A282A392AEC
:101450000130F0070030F13D0030F23D0030F33D47
:10146000392A7408F0027508F13B7608F23B7708D8
:10147000F33B7308720471047004031D402A412A6F
:101480006B2A7B08031D452A462A6B2A0030F3008D
:101490000030F2000030F1000030F000E22A0130AC
:1014A000F035F10DF20DF30D890B502AFB1F592A6F
:1014B0005A2A5B2A70147B1C5E2A5F2A622A031454
:1014C000FB0D642A0310FB0D7A080319682A692AA8
:1014D0006B2A0130FA02F21F6E2A6F2A4F2AF90195
:1014E000FB1F732A742A822A7B087F390319792A01
:1014F0007A2A7D2AF901F90A822A701C802A812A17
:10150000822A7A2A79080319862A872AB52A01307D
:10151000F0070030F13D0030F23D0030F33D731C28
:10152000922A932AB52A70084001A0007108A100F0
:101530007208A2007308A3000130A400A337A20C14
:10154000A10CA00CA40B9E2A2308F3002208F20091
:101550002108F1002008F0007A0A0319B02AB12A04
:10156000B52A0130A0002008FA077A0A0319B92A1F
:10157000BA2ABF2A7A08031DBE2ABF2ACD2A003004
:10158000F3000030F2000030F1000030F0007A0883
:10159000031DCB2ACC2ACD2AF8017A1CD02AD12AC5
:1015A000D32AF217D82A7F304001A0002008F20584
:1015B0007A364001A0002008F300F81FE02AE12A53
:1015C000E22AF3170800400123088039F90079085E
:1015D000A8002335F9007908AE00A21FF02AF12AED
:1015E000F22A2E142E080319F62AF72A062B2E0AA1
:1015F000031DFB2AFC2A042B0030A3000030A200AC
:101600000030A1000030A000A2170E2B0030A30074
:101610000030A2000030A1000030A000270880396F
:10162000F9007908A8062735F9007908AD00A61F4A
:101630001A2B1B2B1C2B2D142D080319202B212BAF
:10164000302B2D0A031D252B262B2E2B0030A70017
:101650000030A6000030A5000030A400A617382BEB
:101660000030A7000030A6000030A5000030A40024
:101670002D0803193C2B3D2B422B2E08031D412B1B
:10168000422B4B2B0030A3000030A2000030A10001
:101690000030A000392D2008F9007908F000260854
:1016A0009F313A278A3171084001B4007008B300B5
:1016B0003308F900FA01FB01FC017C08AC007B084F
:1016C000AB007A08AA007908A9003408F900FA01E9
:1016D000FB01FC017C08B2007B08B1007A08B00075
:1016E0007908AF002108F9007908F00025089F313A
:1016F0003A278A3171084001B4007008B3003308FA
:10170000F900FA01FB01FC017908A9077A08AA3D52
:101710007B08AB3D7C08AC3D3408F900FA01FB01C5
:10172000FC017908AF077A08B03D7B08B13D7C0821
:10173000B23D2208F9007908F00024089F313A27C9
:101740008A3171084001B4007008B3003308F90011
:10175000FA01FB01FC017908A9077A08AA3D7B0878
:10176000AB3D7C08AC3D3408F900FA01FB01FC01FB
:101770007908AF077A08B03D7B08B13D7C08B23DDF
:101780000830A935AA0DAB0DAC0D890BC12B210872
:10179000F9007908F00024089F313A278A3171084E
:1017A0004001B4007008B3003308A9073408AA3D0B
:1017B0000030AB3DAC3D2008F9007908F000250869
:1017C0009F313A278A3171084001B4007008B30094
:1017D0003308A9073408AA3D0030AB3DAC3D0830C2
:1017E000A935AA0DAB0DAC0D890BF02B2008F90023
:1017F0007908F00024089F313A278A3171084001A6
:10180000B4007008B3003308A9073408AA3D0030BB
:10181000AB3DAC3D2108F9007908F00026089F3166
:101820003A278A3171084001B4007008B3003308C8
:10183000AF073408B03D0030B13DB23D2208F90099
:101840007908F00025089F313A278A317108400154
:10185000B4007008B3003308AF073408B03D00305F
:10186000B13DB23D2208F9007908F00026089F3109
:101870003A278A3171084001B4007008B300330878
:10188000F9003408FA00FB01FC010830F935FA0DC3
:10189000FB0DFC0D890B462C7908AF077A08B03D8B
:1018A0007B08B13D7C08B23D2908F9002A08FA00FE
:1018B0002B08FB002C08FC001830FC36FB0CFA0C43
:1018C000F90C890B5D2C7908AF077A08B03D7B08CD
:1018D000B13D7C08B23D0830A935AA0DAB0DAC0D69
:1018E000890B6C2C2E082D07F900FA01FA0D7908E6
:1018F000823EB300FF307A3DB400952C0130AF3505
:10190000B00DB10DB20D890B7F2CAC1F882C892C2A
:101910008A2C2F140130A935AA0DAB0DAC0D890B03
:101920008B2CFF30B307FF30B43DB11F982C992C9E
:101930007E2CAD01AC1F9D2C9E2CBA2CFF302905AE
:10194000F900FF302A05FA00FF302B05FB007F303D
:101950002C05FC007C087B047A0479040319B12C63
:10196000B22CB52CAD01AD0ABA2C2F1CB82CB92C59
:10197000BA2CB22C2D080319BE2CBF2CE72C013039
:10198000AF070030B03D0030B13D0030B23D321CF9
:10199000CA2CCB2CE72C2F08F9003008FA003108AC
:1019A000FB003208FC000130FD00FC37FB0CFA0C98
:1019B000F90CFD0BD52C7C08B2007B08B1007A082D
:1019C000B0007908AF000130B3070030B43D3408EF
:1019D000803AF90080307902031DF02CFF30330289
:1019E000031CF32CF42CFE2C7F304001B20080301D
:1019F000B1000030B0000030AF002D2D40013408A0
:101A0000803AF90080307902031D082D013033023D
:101A100003180B2D0C2D172D00304001B2000030A3
:101A2000B1000030B0000030AF00A8012D2D400102
:101A30003308F9007908AE00FF30AF05FF30B0057C
:101A40007F30B1050030B2052E1C272D282D292D01
:101A5000B1172E36F9007908B2002808F900790884
:101A6000B2043208A3003108A2003008A1002F08F8
:101A7000A00008004201AE0041015D088600870118
:101A8000403FDF00413FE0005F08840060088500C0
:101A90001200253A031D4D2D4E2DDA2F5D088600CC
:101AA00087010130810741310318810A4201CF01CA
:101AB000D001D301D401FF30D100FF30D200A0010A
:101AC000A101A52D4201531441015D088600870143
:101AD0000130810741310318810AA52D4201D31439
:101AE000642D42015315642D4201D315642D42012A
:101AF0005316642D01304201A0000030A100A52D35
:101B000041015D0886008701403FDF00413FE00062
:101B10005F088400600885000008E100E2016208B7
:101B2000003A0319942D7A2D6108203A0319742D77
:101B3000033A0319772D083A0319712D063A031950
:101B4000622D1D3A03196E2D7A2D420120082104C1
:101B50000319AB2DAC2D802D531CAF2DB02DB42D02
:101B6000FD30D305FF30D40541015D0886008701B3
:101B7000403FDF00413FE0005F08840060088500CF
:101B800012002E3A031DC52DC62D402E4201D10153
:101B9000D20141015D088600870101308107413192
:101BA0000318810A5D0886008701403FDF00413F3E
:101BB000E0005F0884006008850012002A3A031DD7
:101BC000E22DE32DFA2D5D088600870101308107A3
:101BD00041310318810A5E088600870101088400EC
:101BE0000130850002308107003F4201D100013FF2
:101BF000D200402E5D0886008701403FF600413F3D
:101C0000F7009331D4238D3177084201D200760852
:101C1000D100132E41015D08860087010130810744
:101C200041310318810A41015D0886008701403F68
:101C3000DF00413FE0005F08840060088500000885
:101C4000D03EE100FF3003180030E20000306202B5
:101C50000A3003196102031C2E2E302E0130312E62
:101C60000030E300E40163084201A200410164087E
:101C70004201A30022082304031D3F2E402E0A2EFA
:101C800041015D0886008701403FDF00413FE000E1
:101C90005F088400600885000008E100E201610837
:101CA000F6006208F7009F315D278D31760841010B
:101CB000E30063084201AA002A080319602E612E7E
:101CC000A42E41015D0886008701403FDF00413FAF
:101CD000E00001305F07840060080318600A850097
:101CE0000008E100E2016108F6006208F7009F3198
:101CF0005D278D3176084101E30063084201AB00A6
:101D00002B080319842E852EA42E41015D08860020
:101D10008701403FDF00413FE00002305F07840061
:101D200060080318600A85000008E100E20161080C
:101D3000F6006208F7009F315D278D31760841017A
:101D4000E30063084201AC0066302A06031DA92E99
:101D5000AA2EFA2E41015D0886008701403FDF0070
:101D6000413FE0005F088400600885000008E10052
:101D700061084201AD0041015D0886008701013024
:101D8000810741310318810A5E0886008701010836
:101D900084000130850004308107003F4201A60025
:101DA000013FA700023FA800033FA9002908400106
:101DB000EE00420128084001ED00420127084001E1
:101DC000EC00420126084001EB0042012D084101D0
:101DD000DF005F084001EF0042012E0880319C20A7
:101DE0008D3140016C084101DE0040016B0841016A
:101DF000DD00FF2F3C30F000A030F1000230F20097
:101E00000030F3002A3091317A218D31700871044D
:101E1000031D0B2F0C2FA22F41015D0886008701A7
:101E2000403FDF00413FE00001305F078400600871
:101E30000318600A85000008E10061084201AD0056
:101E400041015D0886008701403FDF00413FE0001F
:101E50005F088400600885000008BF3EE100FF3095
:101E600003180030E200003062021A3003196102E8
:101E7000031C3B2F3D2F01303E2F0030E300E401D7
:101E800063084201A400410164084201A50024083E
:101E9000250403194C2F4D2F612F41015E08860048
:101EA0008701010884000130850004308107003F6C
:101EB0004201A600013FA700023FA800033FA9007E
:101EC000742F41015E0886008701010884000130FB
:101ED000850004308107003F4201A600013FA700B2
:101EE000023FA800033FA90041015D088600870169
:101EF0000230810741310318810A4201290840015B
:101F0000EE00420128084001ED004201270840018F
:101F1000EC00420126084001EB0042012D0841017E
:101F2000DF005F084001EF0042012E0880319C2055
:101F30008D3140016C084101DE0040016B08410118
:101F4000DD00FF2F41015D0886008701403FDF0073
:101F5000413FE0005F088400600885001200253AD8
:101F6000031DB32FB42FCF2F5D08860087010130EA
:101F7000810741310318810A2530F4000030F50053
:101F800042012E084101DF005F08F6009D31EF2578
:101F90008D3101304101DD000030DE00FF2F5D0892
:101FA000860087010130810741310318810ADD0174
:101FB000DE01FF2F5D0886008701403FDF00413FC3
:101FC000E0005F088400600885000008E100E2018D
:101FD0006108F4006208F50042012E084101E300A7
:101FE0006308F6009D31EF258D3141015D088600C3
:101FF00087010130810741310318810AC92F080088
:102000000834023440019C140330F0009830890BEE
:102010000728F00B072840019C100330F00098308F
:10202000890B1028F00B102808004101EA0066080F
:10203000EC006508EB004201CD01CE013328EB3006
:10204000E8006808DD006708E9006908DE006A0842
:102050008D313A25903141015D084201CD074101A2
:102060005E084201CE3D41016B0884006C0885008A
:102070001200031D3C283D281F2842014E08410143
:10208000E60042014D084101E500080040019C01C5
:102090009B01980199019A0109309600E430920061
:1020A000FF309300FF309400FF309500FF307E0139
:1020B000D900FF30CE00FF30C3000130E400E4302F
:1020C000B800DA01E501C401B901CF01E601BA01A6
:1020D000C501D001DB01FF30BB00FF30C600FF307F
:1020E000D100FF30DC000730E700FF30BC00FF30DC
:1020F000C700FF30D200FF30DD000F30E8000800DD
:1021000000307005F80000307105F900803072056C
:10211000FA007F307305FB007B087A0479047804A9
:10212000031D932894289C280030F3000030F2000F
:102130000030F1000030F00000307405F80000308D
:102140007505F90080307605FA007F307705FB00D1
:102150007B087A0479047804031DAF28B028B828D6
:102160000030F7000030F6000030F5000030F400D9
:1021700077087306031DC62876087206031DC62855
:1021800075087106031DC628740870060319C9284E
:10219000CA28CC280310CD2803140800F601F31F29
:1021A000D228D328DA28F209F309F20A0319F30A2C
:1021B000F601F60AF11FDD28DE28E328F009F1090F
:1021C000F00A0319F10A700871040319E828E928D4
:1021D0001229F501F50AF5280130F035F10D890BCA
:1021E000ED280130F4007408F507F11FF828F928EC
:1021F000EC2871087302031DFF2870087202031C8B
:102200000229032907297008F2027108F33B013003
:10221000F136F00C890B08290130F502031D112954
:102220001229F92876080319162917291C29F209F9
:10223000F309F20A0319F30A7308F1007208F000B7
:1022400008004001A9004201531C272928293129EF
:1022500040012908A4002408F7007B089F31A82723
:102260009131FD1B342935293B297D084001A80007
:102270007C08A7003E294001A701A801A501A601ED
:1022800052292030F4000030F50040012908A40054
:102290002408F6009D31EF25913101304001A5075A
:1022A0000030A63D2608803AA4002808803A24027F
:1022B000031D5C2927082502031C5F296029412989
:1022C00042015318642965296E2940012908A40098
:1022D0002408F7007B089F31A82791317B089E31A5
:1022E0009F269131400127087007FB002808713DA7
:1022F000FC000800F5007508F4007408F800710887
:10230000F7007008F6000130F2020030F33B720A69
:10231000031D8E29730A031D8E298F299E29F00122
:10232000F101D4290130F4007408F8070130F607F0
:102330000030F73D0130F2020030F33B78088600B0
:102340000130870001080319A629A729C6297608A4
:1023500084007708850012000319AF29B029C62927
:10236000720873040319B529B629C62976088400B2
:10237000770885000008F40078088600013087009F
:10238000010874060319C529C62992297808860010
:102390000130870076088400770885000008010274
:1023A000F000F101031CF1030800F601F11FD92927
:1023B000DA29E129F009F109F00A0319F10AF60115
:1023C000F60AF31FE429E529EE29F209F309F20AD6
:1023D0000319F30A0130F4007408F606F701F80156
:1023E000700871040319F529F629252AF501F50A63
:1023F000022A0130F035F10D890BFA290130F40081
:102400007408F507F11F052A062AF9290130F73566
:10241000F80D890B072A71087302031D112A700831
:102420007202031C142A152A1A2A7008F202710873
:10243000F33B77140130F136F00C890B1B2A013085
:10244000F502031D242A252A062A76080319292ABB
:102450002A2A2F2AF709F809F70A0319F80A78082F
:10246000F1007708F00008000310720D730DF400FE
:102470007408FA007A08031D3E2A3F2A482A0030D1
:10248000F3000030F2000030F1000030F000A72A25
:102490007008F4007108F5007208F6007308F70080
:1024A0001F30F736F60CF50CF40C890B512A740822
:1024B000F8007808F900F217FF30F005FF30F10559
:1024C000FF30F2050030F3059630FA02FA1F692A50
:1024D0006A2A822A7A08803A973E0318702A712A5B
:1024E000722A3F2A0130F336F20CF10CF00C890B02
:1024F000732A0130F4007408FA07031D802A812A28
:10250000722A972A20307A02031C872A882A922A64
:102510003F2A0130F035F10DF20DF30D890B8A2AB7
:102520000130FA027A08031D962A972A892A790827
:1025300003199B2A9C2AA72AF009F109F209F30939
:10254000F00A0319F10A0319F20A0319F30A080041
:1025500042014C084001A50042014B084001A40083
:1025600042014A084001A300420149084001A2007B
:102570007308A5007208A4007108A3007008A200E7
:102580002208F4002308F5002408F6002508F700C7
:102590001730F736F60CF50CF40C890BC92AFF300E
:1025A0007405A00000307505A10020082104031D5A
:1025B000DA2ADB2AFC2A2208F4002308F500240882
:1025C000F6002508F7000130F435F50DF60DF70D8E
:1025D000890BE42A7708760475047404031DF12A34
:1025E000F22AF72A0230F0000030F100262B0330E7
:1025F000F0000030F100262B200A2104031D012BDE
:10260000022B222B2208F4002308F5002408F600F0
:102610002508F7000930F435F50DF60DF70D890B97
:102620000B2B77087604750474040319182B1A2BE6
:1026300001301B2B0030F800F9017808F000790810
:10264000F100262B0430F0000030F10008004001BA
:10265000A000200803192D2B2E2B422BF51F312B08
:10266000322B422B7209A2007309A3007409A40043
:102670007509A500A20A0319A30A0319A40A0319DC
:10268000A50A4A2B7508A5007408A4007308A300C6
:102690007208A2007508740473047204031D512BA0
:1026A000522B5B2B0030F5000030F4000030F300BB
:1026B0000030F200D32B9630F6007608A1006B2B89
:1026C0000130F6007608A1070130A536A40CA30C52
:1026D000A20C890B652BFE302505031D702B712B79
:1026E000602B852B0130F6007608A1070130A20788
:1026F0000030A33D0030A43D0030A53D0130A5369B
:10270000A40CA30CA20C890B7F2BFF302505031D05
:102710008A2B8B2B722B952B0130A1020130A23515
:10272000A30DA40DA50D890B8F2BA41B982B992B02
:102730009F2B0230210203189E2B9F2B8C2B2118DC
:10274000A22BA32BAB2BFF30A205FF30A3057F30BC
:10275000A405FF30A5050310A10C2108F600F70120
:10276000F801F9011830F635F70DF80DF90D890B60
:10277000B32B7608A2047708A3047808A404790888
:10278000A50420080319C52BC62BCB2BF51FC92B7D
:10279000CA2BCB2BA5172508F5002408F400230825
:1027A000F3002208F20008004001A701A801A001DF
:1027B000A101DE2B0130F6070030F73DA601A60A85
:1027C00076088400770885001200203A0319E92B67
:1027D000EA2BFF2B76088400770885000008F73E77
:1027E000F800FF3003180030F9000030790205309E
:1027F00003197802031CFD2BFE2BFF2BA6012608D4
:10280000F800F9017808A2007908A300220823043F
:10281000031D0B2C0C2CDA2B162C0130A0000030E1
:10282000A1000130F6070030F73D4A2C76088400FD
:10283000770885000008F800F9017908003A0319C3
:10284000222C4A2C78082B3A0319112C063A03192A
:102850000D2C4A2C76088400770885000008F800C3
:102860002808F1002708F0000A30F2000030F300D9
:102870009E31B92693317108FA0078087002F90088
:10288000031CFA037908303E4001A70000307A3D6E
:10289000A800112C76088400770885000008D03E37
:1028A000F800FF3003180030F900003079020A30D8
:1028B00003197802031C5D2C5F2C0130602C003062
:1028C000FA00FB017A08A4007B08A500240825046F
:1028D000031D6B2C6C2C2A2C20082104031D712C49
:1028E000722C7E2C2709F8002809F900F80A031930
:1028F000F90A7808F6007908F700822C2808F70012
:102900002708F60008008031042094310230883115
:10291000062094311C309E31362694319D31EC25B1
:1029200094319D31FA259431003A0319982C992C51
:10293000912C9D31F425943170084201B500710845
:10294000B600B701B8013808F5003708F4003608BA
:10295000F3003508F20000309331272394317508D5
:102960004201C4007408C3007308C2007208C100A9
:1029700044304001C0007F30BF00C030BE00003096
:10298000BD004030A3000030A2000030A1000030A4
:10299000A000420144084001A70042014308400151
:1029A000A600420142084001A50042014108400141
:1029B000A4008A31E322943140012308C400220894
:1029C000C3002108C2002008C10096314C26943172
:1029D000400140084201BC0040013F084201BB00E9
:1029E00040013E084201BA0040013D084201B900E1
:1029F0003C304001C0000630BF005930BE004B30B3
:102A0000BD0042013C084001B80042013B084001C2
:102A1000B70042013A084001B600420139084001BE
:102A2000B5003F30BC00C530BB00E330BA005430C5
:102A3000B9009E31D826943140013808C4003708C7
:102A4000C3003608C2003508C10096314C269431C7
:102A5000400140084201C00040013F084201BF0060
:102A600040013E084201BE0040013D084201BD0058
:102A7000F40100309F31D127943115304201AF006D
:102A8000A030B0009E315926943102304201B50089
:102A90003508F40001309F31D127943123304201B1
:102AA000AF00A030B0004008B4003F08B3003E08BB
:102AB000B2003D08B1009E31592694318A2C8031F4
:102AC0000228420148084001EA004201470840014B
:102AD000E900420146084001E80042014508400182
:102AE000E7005A08EA005908E9005808E8005708C2
:102AF000E7006708DB006808DC006908DD006A0899
:102B0000DE001730DE36DD0CDC0CDB0C890B822D91
:102B1000FF305B05DF0000305C05E0005F08813EB0
:102B2000E500FF30603DE6006608803ADB0080305B
:102B30005B02031D9D2D17306502031CA02DA12DE6
:102B4000A22D4B2E4001E61BA62DA72D042EFF30F3
:102B5000DB00FF30DC007F30DD000030DE00650A86
:102B6000B52DDE37DD0CDC0CDB0C890BB12D5E08DE
:102B7000E4005D08E3005C08E2005B08E100670830
:102B80006105DB0068086205DC0069086305DD009B
:102B90006A086405DE005E085D045C045B04031DD6
:102BA000D22DD32DD42DA12D6708DB006808DC00C1
:102BB0006908DD006A08DE001F30DE36DD0CDC0C43
:102BC000DB0C890BDD2D5E085D045C045B040319DE
:102BD000EA2DEB2DF32D6108E7076208E83D630855
:102BE000E93D6408EA3D6109DB006209DC00630934
:102BF000DD006409DE005B08E7055C08E8055D08A8
:102C0000E9055E08EA05432E6708DB006808DC007A
:102C10006908DD006A08DE001F30DE36DD0CDC0CE2
:102C2000DB0C890B0D2E5E085D045C045B04031D48
:102C30001A2E1B2E242E0030EA000030E90000304E
:102C4000E8000030E700432E6708DB006808DC007E
:102C50006908DD006A08DE000130DB35DC0DDD0DC2
:102C6000DE0D890B2D2E5E085D045C045B040319E8
:102C70003A2E3B2E432EBF30EA008030E900003070
:102C8000E8000030E7006A08DA006908D90068083F
:102C9000D8006708D7000800400144088039C50003
:102CA0004508CE004435C5004508D500C31F592E40
:102CB0005A2E5B2E5514550803195F2E602E702E68
:102CC000550A031D642E652E6D2E0030C4000030A1
:102CD000C3000030C2000030C100C317C401782E09
:102CE0000030C4000030C3000030C2000030C1001A
:102CF00040088039C5004508CE064035C500450866
:102D0000D600BF1F842E852E862E56145608031912
:102D10008A2E8B2E9B2E560A031D8F2E902E982EB8
:102D20000030C0000030BF000030BE000030BD00E9
:102D3000BF17C001A32E0030C0000030BF0000301C
:102D4000BE000030BD0040083F043E043D04031DAA
:102D5000AA2EAB2EC42E0030C4000030C3000030B9
:102D6000C2000030C1008030C3047F30C4044E086C
:102D7000C5004508C4044408C0004308BF00420819
:102D8000BE004108BD00FF2F5508031DC82EC92EE7
:102D9000D22E0030C0000030BF000030BE00003036
:102DA000BD00FF2F5508C500C6014608C8005608DB
:102DB0004502C700031CC80347087F3ECF00003010
:102DC000483DD0004408CD004308CC004208CB0069
:102DD0004108CA000030C4000030C3000030C20007
:102DE0000030C1000030D4000030D3000030D200E9
:102DF0000030D100D6013A2F56080319002F012FB9
:102E00001B2F0130CA35CB0DCC0DCD0D890B022FF8
:102E10000130C135C20DC30DC40D890B092FD41F5C
:102E2000122F132F142F41140130D135D20DD30D91
:102E3000D40D890B152F40084D02031D292F3F0883
:102E40004C02031D292F3E084B02031D292F3D086C
:102E50004A02031C2C2F2D2F362F54173D08CA026F
:102E60003E08CB3B3F08CC3B4008CD3B0130C50082
:102E70004508D6071A305602031C3F2F402FFC2E60
:102E80004D084C044B044A040319472F482F612F67
:102E90005114612F0130C135C20DC30DC40D890B12
:102EA0004B2FD41F542F552F562F41140130D1359D
:102EB000D20DD30DD40D890B572FFF30CF07FF3024
:102EC000D03DC31F642F652F4A2FD601D41F692F11
:102ED0006A2F862FFF305105C500FF305205C6000E
:102EE000FF305305C7007F305405C8004808470429
:102EF0004604450403197D2F7E2F812FD601D60A63
:102F0000862F411C842F852F862F7E2F560803196C
:102F10008A2F8B2FB32F0130C1070030C23D003004
:102F2000C33D0030C43D441C962F972FB32F41085A
:102F3000C5004208C6004308C7004408C800013065
:102F4000C900C837C70CC60CC50CC90BA12F48084F
:102F5000C4004708C3004608C2004508C10001304C
:102F6000CF070030D03D5008803AC5008030450280
:102F7000031DBC2FFF304F02031CBF2FC02FCD2FCE
:102F8000FF304001CF000030D0000030C4000030DE
:102F9000C3000030C2000030C10040015008803A38
:102FA000C50080304502031DD72F01304F020318A2
:102FB000DA2FDB2FE72F4001CF01D0010030C40012
:102FC0000030C3000030C2000030C100CE0140011B
:102FD0004F08C5004508D500551CEF2FF02FF22FE4
:102FE000C317F62F7F30C5004508C3055536C50009
:102FF0004508C4004E08C5004508C404BB2E08009F
:103BD80041019D14080074089E3119269D31080082
:103BE80041011C08F1001B08F00008000310410106
:103BF8009D1C03140030093D0800A03041019E00BF
:103C08009B019C0171309D0008004F0196019701AE
:103C1800980199019A019B010800F30040011C11C9
:103C280073089E3143269E310800F30040011C159D
:103C380073089E3143269E310800603051018D0083
:103C48008F019101033093009001920108007308DD
:103C58007204710470040319322E332E352E80300D
:103C6800F3060800F1007108F000F00DF00D4101B5
:103C78001D087006033970069D001D140800F20027
:103C88007208F1000430F136890B472E71089F3114
:103C980082279E31903102209E3172089F318227FF
:103CA8009E31903102209E31080031304101ED00F3
:103CB8006D08EE00420130084101E60042012F087C
:103CC8004101E500EE30ED006D08E700003090316D
:103CD80015209E3108007008D03EF200FF30713D7B
:103CE800F300003073020A3003197202031C7D2EA0
:103CF8007F2E0130802E0030F400F5017408F000AA
:103D08007508F10008007008BF3EF200FF30713DF1
:103D1800F300003073021A3003197202031C952E47
:103D2800972E0130982E0030F400F5017408F00049
:103D38007508F1000800F4007408F2007208F30036
:103D4800A92E0130F2007208F407740886000130C9
:103D580087000108031DB12EB22EA52E7308740228
:103D6800F000F101F01BF1030800F401F501701CEB
:103D7800BE2EBF2EC32E7208F4077308F53D01301E
:103D8800F235F30D890BC42E0130F136F00C890B96
:103D9800C92E70087104031DD22ED32EBB2E7508B0
:103DA800F1007408F000080080304001B8063C08B3
:103DB800F3003B08F2003A08F1003908F00038082F
:103DC800F7003708F6003608F5003508F4008831A2
:103DD800A4209E3173084001B8007208B70071082A
:103DE800B6007008B5000800F401F40A2030700627
:103DF80071040319002F012F112F7008F73EF200EC
:103E0800FF30713DF3000030730205300319720270
:103E1800031C0F2F102F112FF4017408F200F30167
:103E28007208F0007308F1000800F7007108F50047
:103E38007008F4007708F2007208F6007608860029
:103E480001308700F60A7508F3007408F200F40AD6
:103E58000319F50A72088400730885000008C03F3A
:103E68008908031D382F392F222F0800F800F40184
:103E7800F5017008F200F3017208F6007308F70004
:103E8800781C472F482F4C2F7608F4077708F53D04
:103E98000130F635F70D890B4D2F0310F80C780813
:103EA800031D572F582F442F7508F1007408F00090
:103EB80008007608BF3EF800FF30773DF900003073
:103EC80079021A3003197802031C6B2F6D2F013009
:103ED8006E2F0030FA00FB017A08FC007B08FD0019
:103EE8007C087D040319792F7A2F812F20307604DE
:103EF800F60000307704F700812F0800F000701CEE
:103F0800862F872F8A2F400118168C2F40011812F0
:103F18000310F00C701C912F922F942F9815952F49
:103F280098110310F00C701C9A2F9B2F9D2F98143A
:103F38009E2F98100310F00C701CA32FA42FA62FEF
:103F48001814A72F181008004001A300A101A2010E
:103F5800C02F2008F800F9017808F4007908F50066
:103F68007708FA007A08F6009D31EF259F31013075
:103F78004001A1070030A23D21082307F800780876
:103F88008600013087000108F9007908A0002008A0
:103F9800031DCF2FD02FAD2F0800F7007708410160
:103FA8006F020318D82FD92FDD2F6F08F500750879
:103FB800F7007408420157020318E32FE42FE82F93
:103FC8005708F5007508F4007708003E8400A03013
:103FD8000318013E850000087407F5007508F6000F
:103FE80076089E3111269F310330F5009830890BF1
:103FF800FB2FF50BFB2F08008034C0349034D034ED
:104008002034203420342034203420342034203408
:1040180020342034203420342034203420342034F8
:1040280000344E346834693465347434203464346C
:104038006F3420346C3461343A3420340034203402
:10404800253430342E34323466342A344334003440
:1040580049344E34463400344E3441344E340034FE
:1040680069346E34663400346E3461346E3400342E
:064078006C3466340034D4
:020000040001F9
:0A000E00EC3FFF3F9F3FFF1FFF3F45
:00000001FF
