:1000000080312B28053008007E1480310B1F092811
:100010000A2829284E01191E0E280F281A280F1EFB
:10002000122813281A2843016F088A006E080A0054
:1000300080312928991E1D281E2829288F1E212835
:100040002228292843016D088A006C080A008031A3
:1000500029287E10090080312D28A53084008A309F
:100060008500603086000130870009308A316D22BA
:100070008031FC01E83084000030850008308A318E
:10008000672280314201E901EA01EB01EC01ED0157
:10009000E0308400013085000C308A3167228031E5
:1000A000203084000230850046308A31672280315A
:1000B000A03084000230850040308A3167228031D0
:1000C0007E10400183318D2B4001EC0057088600E3
:1000D0008701403FD900413FDA00590884005A089F
:1000E00085001200253A031D76287728F229570843
:1000F000860087010130810741310318810A4201DE
:10010000EB01EC014101EA01EB01FF30E800FF30B7
:10011000E9004001E801E901CE2841016A144001EB
:100120005708860087010130810741310318810A91
:10013000CE284101EA148F2841016A158F28410118
:10014000EA158F2841016A168F280130E800003037
:10015000E900CE28570886008701403FD900413F7B
:10016000DA00590884005A0885000008DB00DC0129
:100170005C08003A0319BD28A5285B08203A03193A
:100180009F28033A0319A228083A03199C28063A23
:1001900003198D281D3A03199928A52868086904B0
:1001A0000319D328D428AA2841016A1CD828D928A1
:1001B000DD28FD30EA05FF30EB05400157088600D9
:1001C0008701403FD900413FDA00590884005A08AE
:1001D000850012002A3A031DEE28EF28112957083E
:1001E000860087010130810741310318810A5808D0
:1001F0008600870101088400850102308107003FE5
:100200004201EB00013FEC00EC1F072908295329AC
:1002100041016A144201EB09EC09EB0A0319EC0AEB
:100220005329570886008701403FF700413FF800F7
:1002300084314924803178084201EC007708EB00D2
:1002400029295708860087010130810741310318A9
:10025000810A4001570886008701403FD900413F8D
:10026000DA00590884005A0885000008D03EDB00F7
:10027000FF3003180030DC0000305C020A30031944
:100280005B02031C44294629013047290030DD0068
:10029000DE015D08EA005E08EB006A086B04031DDE
:1002A0005229532921294001570886008701403FE0
:1002B000D900413FDA00590884005A08850012002D
:1002C000783A031964296529762957088600870139
:1002D000403FD900413FDA00590884005A088500A0
:1002E0001200583A031D75297629BD295708860042
:1002F0008701403FD900413FDA00590884005A087D
:1003000085000008DB005B08E700570886008701CE
:100310000130810741310318810A5808860087019E
:1003200001088400850102308107003FDF00013FA2
:10033000E000E101E201E301E401E501E6015F081B
:10034000B1006008B2006108B3006208B40063083D
:10035000B5006408B6006508B7006608B80067080D
:10036000D9005908B9006C08823116228031400149
:100370003208D8003108D700152A570886008701AF
:10038000403FD900413FDA00590884005A088500EF
:100390001200253A031DCD29CE29E72957088600EA
:1003A00087010130810741310318810A2530F400AB
:1003B0000030F5006C08D9005908F6008631E026B7
:1003C000803101304001D7000030D800152A57088D
:1003D000860087010130810741310318810AD70166
:1003E000D801152A570886008701403FD900413FB0
:1003F000DA00590884005A0885000008DB00DC0197
:100400005B08F4005C08F5006C08DD005D08F60090
:100410008631E0268031400157088600870101308F
:10042000810741310318810AE12908004001C60013
:100430004101E91B1C2A1D2A212AFD30EA05FF3053
:10044000EB056908803A4001BA0080303A02031D8A
:100450002C2A01304101680203182F2A302A362A3B
:1004600001304001C7000030C8003E2A4101690840
:100470004001C800410168084001C70042016C0802
:100480004001CA0042016B084001C90041016A1ED7
:100490004A2A4B2A502AFE304001C907FF30CA3D84
:1004A00040013108CB003208CC003308CD003408BD
:1004B000CE003508CF003608D0003708D100380804
:1004C000D2001F30D3000030D4004401E5011E2BC0
:1004D000FF304001D307FF30D43D0F304B05D5002E
:1004E00000304C05D6005608803ABA0080303A02F7
:1004F000031D7C2A0A305502031C7F2A802A882A81
:1005000040015508573ED5000030563DD6008F2A91
:1005100040015508303ED5000030563DD600390820
:10052000BF3EBA00FF3003180030BB0000303B0272
:100530001A3003193A02031C9E2AA02A0130A12A6C
:100540000030BC00BD013C08C2003D08C3004208A9
:1005500043040319AC2AAD2ADC2A20305504BA0022
:1005600000305604BB003A089F3EBC00FF303B3DC4
:10057000BD0000303D021A3003193C02031CC12AA1
:10058000C32A0130C42A0030BE00BF013E08C400A7
:100590003F08C500440845040319CF2AD02ADC2AA5
:1005A0005608F8005508F7008D31CF2582317808BC
:1005B0004001D6007708D5005508BA005308463EDA
:1005C0008600023087003A088100FF30C707FF30FD
:1005D000C83DFF30C907FF30CA3D4B3086000030B0
:1005E0008700403FBA00413FBB00423FBC00433F51
:1005F000BD00443FBE00453FBF00463FC000473FEF
:10060000C10004304001C136C00CBF0CBE0CBD0C93
:10061000BC0CBB0CBA0C890B022B40014108D20068
:100620004008D1003F08D0003E08CF003D08CE0072
:100630003C08CD003B08CC003A08CB0040015408F0
:10064000803ABA0080303A02031D282B0230530250
:10065000031C2B2B2C2B592B40014B084C044D0415
:100660004E044F04500451045204031D382B392BFF
:10067000682A4808803ABA0080303A02031D422BAB
:10068000013047020318452B462B682A40014A08CF
:10069000803ABA0080303A02031D502B01304902E3
:1006A000031C532B542B592B4101EA18582B592B5F
:1006B000682A41016A1E5D2B5E2B792BFF304001B9
:1006C000D307FF30D43D3908BA005308463E8600B0
:1006D000023087003A088100FF30D307FF30D43D55
:1006E0003030BA005308463E8600023087003A0890
:1006F000810040015308463EBA003A08A8004A0863
:10070000AA004908A90046088531582582314001D0
:100710002908B2002808B10008004101E5018A312A
:10072000FB2283318A319C2283318B170B1758307F
:100730004101A5009030A6008B31BB2383310030EE
:100740004001AC00AD00AA304101E2006208400166
:10075000AE008D31A925833134304101E200F13002
:10076000890BB02BE20BB02B0032392C6E30A50078
:100770009030A6008B31BB2383314101E601E701B4
:100780004030E20062084001AA00A0308C3185248C
:100790008331410167084001AD0041016608400115
:1007A000AC00A0304101E20062084001AE008F3190
:1007B0005E278331410167084001AE0041016608B0
:1007C0004001AD0020304101E20062084001AF006D
:1007D0008D313D25833141016708B0006608AF00C7
:1007E000A030E2006208B1002030E3006308B200EC
:1007F0004030E4006408B3008531B1258331003A0C
:100800000319032C042C0C2C7B304101A5009030E3
:10081000A6008B31BB23833140304101E607003015
:10082000E73D40306702003003196602031C192CB3
:100830001A2CC02B0130E2006208E5072030A50029
:100840009030A6008B31BB238331392C8A3193221F
:100850008331003A03192D2C2E2C392C8731D227C5
:100860008331543A031D352C362C392C4101E501D6
:10087000392C41016508E200E3016308003A0319DD
:10088000422C262C6208003A0319B62B262C803104
:100890002B284001AB01AC01A401A501532C013070
:1008A000F7070030F83DAA01AA0A77088400780803
:1008B00085001200203A03195E2C5F2C742C7708F7
:1008C0008400780885000008F73EA000FF30031878
:1008D0000030A10000302102053003192002031C62
:1008E000722C732C742CAA012A08A000A1012008E4
:1008F000A6002108A70026082704031D802C812CB0
:100900004F2C8B2C0130A4000030A5000130F707DC
:100910000030F83DBF2C7708840078088500000877
:10092000A000A1012108003A0319972CBF2C200830
:100930002B3A0319862C063A0319822CBF2C770810
:100940008400780885000008A0002C08F2002B081D
:10095000F1000A30F3000030F4008C31DA248431E5
:1009600072084001A20020087102A100031CA2032A
:100970002108303EAB000030223DAC00862C7708C9
:100980008400780885000008D03EA000FF300318DE
:100990000030A100003021020A3003192002031C9C
:1009A000D22CD42C0130D52C0030A200A301220877
:1009B000A8002308A90028082904031DE02CE12C25
:1009C0009F2C24082504031DE62CE72CF32C2B096F
:1009D000A0002C09A100A00A0319A10A2008F70011
:1009E0002108F800F72C2C08F8002B08F700080065
:1009F0008A3137228431003A0319FF2C002D332D20
:100A00000D2D8A3105228431572D8A310A228431F5
:100A1000572D8A3114228431572D44012F0840016B
:100A2000A0002008FA000630203E86000230870031
:100A3000413F8A00403F0A0085314001A100A201E8
:100A40002208003A0319252D092D2108013A03191E
:100A5000092D033A0319012D013A0319052D073A0F
:100A60000319092D092D44013D1038084001A1004A
:100A7000440137084001A0004401B70A0319B80A2D
:100A80004001200886002108870001088931FB21E8
:100A9000843101304401B9020030BA3B39083A04CC
:100AA000031D532D542D562D0630572D03300800AD
:100AB0004001B00041016A1C5E2D5F2D682D400190
:100AC0003008AB002B08A00028088D31F5258531B2
:100AD0004001AA1B6C2D6D2D722D2A08AF0029082C
:100AE000AE00742DAE01AF01AC01AD01882D2030F8
:100AF000F4000030F50040013008AB002B08F60090
:100B00008631E026853101304001AC070030AD3D33
:100B10002D08803AAB002F08803A2B02031D922D3E
:100B20002E082C02031C952D962D772D41016A1855
:100B30009A2D9B2DA42D40013008AB002B08A0005E
:100B400028088D31F5258531400128088C311A247B
:100B5000853140012E087107A8002F08723DA900B9
:100B600008004101BA01BA0ABB01FA2D3B0832075D
:100B7000B40034088600013087003B083107B50017
:100B80003508840001308500000801060319C92DCD
:100B9000CA2DF52DBA013E30A5009030A6003B08C5
:100BA0002F07A70030080318300AA8003B083107B8
:100BB000B40034088600013087000108B500B60192
:100BC0003508A9003608AA003B083207B7003708E5
:100BD0008600013087000108B800B9013808AB0071
:100BE0003908AC008B31BB23853101304101B400A1
:100BF0003408BB0733083B02031CFF2D002EB62D23
:100C00003A08080040019C019B01980101309900BD
:100C100054309A000F309600FF309200F830930065
:100C2000FB3094007F3095007F307E01D900A930E1
:100C3000CE00F830C3000730E400FF30B800DA011E
:100C4000E501C401B9015030CF00E601BA01C50188
:100C5000D001DB01FF30BB00FF30C600FF30D10008
:100C6000FF30DC000730E700FF30BC00FF30C7007A
:100C7000FF30D200FF30DD000F30E80014307D017E
:100C8000C50015307E01A4001630A60016307D0187
:100C9000C6000F307E01A20011307D01CB0008009C
:100CA0008931E52186314001A000440137088600E2
:100CB0003808870040012008810001304401B7074F
:100CC0000030B83D0130B9020030BA3B39083A046F
:100CD00003196B2E6C2E712E8931F7218631053068
:100CE0009C2EBD157B2E8A31232286319C2E8A3183
:100CF0001E2286319C2E2C084001A0002008FA00FC
:100D0000440121088A0020080A0086314001A10020
:100D1000A2012208003A03198E2E772E2108013AEB
:100D20000319772E033A0319732E013A0319732E10
:100D3000073A0319772E772E08004E0199121F30BB
:100D4000F1000730F2008A315B2286314E01191220
:100D50008430F1000D30F2008A3161228631083092
:100D600042019F0090309D0024309E0040309B0047
:100D700003309C00CD30F1000930F2008A314F225F
:100D80008631EF30F1000930F2008A315522863188
:100D9000EB30F1000930F2008A31492286314201FC
:100DA000ED014101EF01EE014030F3007308420113
:100DB000EE00FC014101ED01EC014E019916080025
:100DC00076080319E42EE52EEA2E7608031DE92E97
:100DD000EA2EEF2E74088A31432286311E2F7608C0
:100DE000033E86008701160001040319F82EF92E30
:100DF000162F7608033E86008701403FF700413FEB
:100E0000F800760A86008701403FF900413FFA006A
:100E10007A08803AFB007808803A7B02031D122F83
:100E2000770879020318152F162F1E2F760A8600D1
:100E300087010130810741310318810A08007C08CD
:100E4000E03E860001308700810142011D1D292FEF
:100E50002A2F362F7C08E03E86000130870081145F
:100E600044016B088A006A080A00873142019D1C10
:100E70003A2F3B2F472F7C08E03E86000130870049
:100E80000115440169088A0068080A0087317C0856
:100E9000E03E86000130870001080319502F512FD2
:100EA000582F440167088A0066080A0087315B2FC3
:100EB0008C3134248731080043016B08F4006A0840
:100EC000F3006908F2006808F1004C30F800953032
:100ED000F7007F30F6002D30F5008F3191278731F4
:100EE000013071074301E8000030723DE900003035
:100EF000733DEA000030743DEB0068084001A60035
:100F0000430169084001A70043016A084001A800A5
:100F100043016B084001A9001130A936A80CA70CA9
:100F2000A60C890B8D2F2708A5002608A400080011
:100F3000F200F301F30A44013D199F2FA02FD02F97
:100F40007208F1007108B600BD103D153D100E305D
:100F5000F1007108BB00F430B4000130B500BD15DC
:100F6000CE30A0000930A100AC01CE30A200093083
:100F7000A300AD01CE30A4000930A500AE01CE30F3
:100F8000A6000930A700AF010230A8000030A90078
:100F9000B0018931D02187318A31D2228731F301E2
:100FA0007308080041016C080319D72FD82FD22FDE
:100FB0006D08E03E8600013087000108F1007108ED
:100FC0004201ED0041016D083E3E8600023087007F
:100FD0000108F1007108F2000130F1007108ED071D
:100FE00008306D02031CF52FF62FF72FED014E018F
:100FF000991201304101EC024E0199167208080065
:10139A000800013008004E010F10080043019012A6
:1013AA0008004E01191008004301111408004301F6
:1013BA009114080043011115080043019115080012
:1013CA0043010C0808004E010F1408008C31342424
:1013DA008931080042011D121D16080043019116A9
:1013EA00111608004301911211160800F100710844
:1013FA0043018C0008004401BD10BC010E300800F6
:10140A008931DC218A31013008008931DC218A31B5
:10141A00023008008931DC218A3101300800893123
:10142A00DF218A31003008008931F7218A310530FD
:10143A0008008931F3218A310A3008008931F32101
:10144A008A31093008004401BD10BC010E30080081
:10145A0001308D311A258A31080000308D311A2564
:10146A008A3108004301110E890C890C01390800E0
:10147A004E010F1C412A422A3D2A0800F300730834
:10148A008E3173268A31080072084401E700710818
:10149A00E600080072084401EB007108EA0008003F
:1014AA0072084401E9007108E80008007208430163
:1014BA00ED007108EC00080072084301EF007108A2
:1014CA00EE000800640080010131890B682A0034AB
:1014DA00FE0012001E00FE0B6E2A003444013D106D
:1014EA008931E2218A310430080044013D1436353D
:1014FA008931FB218A31033008004F019601970197
:10150A00980199019A019B01080044013D140314B2
:10151A00360D8931FB218A310530080041016C08FA
:10152A00031D982A9A2A01309B2A00300800430199
:10153A008F010830900091017F308D0090120800D1
:10154A0000340034003400340034003400340034F1
:10155A00FF34603051018D008F01910106309300F4
:10156A009001920108007708F2007608F1007808E5
:10157A00F9007908F30000308E311E268A310800FE
:10158A00CC2A8A313D228A318E319F268A31440102
:10159A00BD18D02AD12AC62A08004301901AD62A91
:1015AA00D72ADE2A8F010830900091017F308D0002
:1015BA00901608007708F2007608F1007808F9001A
:1015CA007908F30002308E311E268A310800440160
:1015DA00BD1DF02AF12AFA2A7208B8007108B7006C
:1015EA007408BA007308B900BD1108008A31822252
:1015FA008A318A319C228A31863102268A318A319D
:10160A00AE228A3186319D268A3108007A08F10095
:10161A00FF39031D0030F2000230F3000030F400FD
:10162A008A31EC228B310030F600F700F8018A315A
:10163A00B8228B31043008007A08F100FF39031D03
:10164A000030F2000130F3000030F4008A31EC225D
:10165A008B310030F600F700F8018A31B8228B315D
:10166A00043008007A08F100FF39031D0030F20047
:10167A000130F3000030F4008A31EC228B31003063
:10168A00F600F700F8018A31B8228B3102300800DF
:10169A007A08F100FF39031D0030F2000230F3002E
:1016AA000030F4008A31EC228B310030F600F7006A
:1016BA00F8018A31B8228B31023008007A08F10029
:1016CA00FF39031D0030F2000230F3000030F4004D
:1016DA008A31EC228B310030F600F700F8018A31AA
:1016EA00B8228B31043008007A08F100FF39031D53
:1016FA000030F2000130F3000030F4008A31EC22AD
:10170A008B310030F600F700F8018A31B8228B31AC
:10171A00023008007A08F100FF39031D0030F20098
:10172A000230F3000030F4008A31EC228B310030B1
:10173A00F600F700F8018A31B8228B31023008002E
:10174A007A08F100FF39031D0030F2000130F3007E
:10175A000030F4008A31EC228B310030F600F700B9
:10176A00F8018A31B8228B3104300800A7304101D0
:10177A00AD002D08AE0026084001EE004101250803
:10178A004001ED00AE304101AD002D084001EF00EF
:10179A0000308F31C7278B3108007108D03EF30023
:1017AA00FF30723DF400003074020A3003197302EC
:1017BA00031CE02BE22B0130E32B0030F500F6018D
:1017CA007508F1007608F20008007108BF3EF300C0
:1017DA00FF30723DF400003074021A3003197302AC
:1017EA00031CF82BFA2B0130FB2B0030F500F60115
:1017FA007508F1007608F200080071089F3EF300B0
:10180A00FF30723DF400003074021A30031973027B
:10181A00031C102C122C0130132C0030F500F60199
:10182A007508F1007608F2000800F5007508F30063
:10183A007308F400242C0130F3007308F5077508C7
:10184A008600023087000108031D2C2C2D2C202C29
:10185A0074087502F100F201F11BF203080042015B
:10186A001908F0007C083E3E8600023087007008A6
:10187A0081000130F0007008FC0708307C02031C6C
:10188A00472C482C492CFC010130F000700841011A
:10189A00EC0708007A08023E860087010108F10079
:1018AA000030F2007A0886008701403FF300413F8A
:1018BA00F4008A31EC228C310030F600F700F8018E
:1018CA008A31B8228C31023008007A08023E86003A
:1018DA0087010108F1000030F2007A0886008701CA
:1018EA00403FF300413FF4008A31EC228C31003052
:1018FA00F600F700F8018A31B8228C31023008006C
:10190A00FA00992C87315C278C3140012408F900B0
:10191A007A08860001308700790881000130F900D1
:10192A007908FA070130AA0240012A08031D9E2CF1
:10193A009F2C872C0800F201F20A4401BD18A62C3C
:10194A00A72CBA2C3D11FF30F1007108B60089317D
:10195A00D0218C318931D6218C318931D3218C31F6
:10196A0044013C08F1007108F200720808002030B6
:10197A007104F30000307204F40073089F3EF5000E
:10198A00FF30743DF600003076021A3003197502F2
:10199A00031CD02CD22C0130D32C0030F700F801D4
:1019AA007708F1007808F2000800F501F601711CC9
:1019BA00DF2CE02CE42C7308F5077408F63D01309F
:1019CA00F335F40D890BE52C0130F236F10C890B55
:1019DA00EA2C71087204031DF32CF42CDC2C760813
:1019EA00F2007508F1000800F501F50A20307106C9
:1019FA0072040319012D022D122D7108F73EF3000E
:101A0A00FF30723DF400003074020530031973028E
:101A1A00031C102D112D122DF5017508F300F40188
:101A2A007308F1007408F20008004001A600A7013B
:101A3A00A70A4401BD18222D232D3A2DBD144001B9
:101A4A00A701260803192A2D2B2D2F2D4401BB018E
:101A5A00BB0A342D0230FB007B084401BB008931EC
:101A6A00D9218D318A31C5228D31400127080800DC
:101A7A0040012E08B0003008B1002D08B00030082F
:101A8A00B2003130B0003008A8000230A90000309E
:101A9A00AA0050308E3148268D3140012F08A80007
:101AAA000130A9004030AA000030AB0050308D311F
:101ABA0060258D3108004001AC0040012C088731B7
:101ACA0098278D31003A03196B2D6C2D622D400138
:101ADA002908F2002808F1002B08F4002A08F3006C
:101AEA008A31EC228D318A312D228D318C31A0241C
:101AFA008D31013A0319822D832D7B2D0800403048
:101B0A0042016E0203188A2D8B2DA62D41016E0803
:101B1A00A03E860002308700010842019A00013087
:101B2A00F00070084101EE0740306E02031C9E2D42
:101B3A009F2DA02DEE010130F00070084201EE0742
:101B4A00A82D4E011912080040012D08AF002F08D8
:101B5A00B0002C08AF002F08B1002E08AF002F08E4
:101B6A00B20019103030AF002F08A8000330A900C6
:101B7A000030AA0050308E3148268D313430400171
:101B8A00AF00F130890BC72DAF0BC72D00324001D2
:101B9A001914080077089F3E4001A000FF30783DE5
:101BAA00A100003021021A3003192002031CDE2D85
:101BBA00E02D0130E12D0030A200A3012208F90036
:101BCA002308FA0079087A040319EC2DED2DF42D77
:101BDA005F307705F70000307805F800F42D08002B
:101BEA004001A700A501A6010D2E2408A100A2010B
:101BFA002108F4002208F5002008A3002308F600B3
:101C0A008631E0268D3101304001A5070030A63D1E
:101C1A0025082707A100210886000230870001084D
:101C2A00A2002208A4002408031D1C2E1D2EFA2D32
:101C3A000800F500710872040319242E252E382E87
:101C4A007535203E8600023087007108C03F720851
:101C5A00C13F7308F40075082C3E860002308700E5
:101C6A0074088100472E7535203E860002308700B1
:101C7A00CE30C03F0930C13F75082C3E8600023085
:101C8A008700810108004001AB0040012B08873121
:101C9A0098278E31003A0319532E542E4A2E4001AA
:101CAA002808F1000030F2002A08F4002908F3009D
:101CBA008A31EC228E310030F600F700F8018A31C1
:101CCA00DF228E318A3132228E318C31A0248E313C
:101CDA00013A0319712E722E6A2E0800F20042018F
:101CEA006E080319792E7A2E742E4E01191A7E2E39
:101CFA007F2E832E720842019A009C2E19127208B6
:101D0A00F10041016F08A03E860002308700710889
:101D1A0081000130F1007108EF0740306F02031CA7
:101D2A00972E982E992EEF0101304201EE024E01B4
:101D3A00191608008931D0218E3144013D1CA62E86
:101D4A00A72EB52E8A3137228E31003A0319AE2ECC
:101D5A00AF2EB52E0F304001A30023084401BB006B
:101D6A0044013B084001A300A401A335A40D00309F
:101D7A00230784009030243D8500013F8A00003FFC
:101D8A000A008E314001A50025084401BB00080065
:101D9A00F6007108F4007408F8007608F400740874
:101DAA00F700EE2E78088600013087000108F4005B
:101DBA007408F5000130F4007408F8077508F40097
:101DCA00770886008701740881000130F4007408DE
:101DDA00F7070130F2020030F33B720A031DF92EB5
:101DEA00730A031DF92EFA2ED72E080044013D105E
:101DFA0002304001A00020084401BC000C2F8A31A7
:101E0A000F228E312B2F8A3114228E312B2F2E083E
:101E1A004001A0002008FA000430203E860002306B
:101E2A008700413F8A00403F0A008F314001A100EC
:101E3A00A2012208003A0319232F082F2108023A87
:101E4A000319042F013A0319042F082F080044012B
:101E5A00BD153C2F8A310F228F315D2F8931E82140
:101E6A008F3103305D2F8A3114228F315D2F2C0878
:101E7A004001A0002008FA00440121088A00200835
:101E8A000A008F314001A100A2012208003A031979
:101E9A004F2F382F2108013A0319382F033A031913
:101EAA002F2F013A03192F2F073A0319332F382FEF
:101EBA00080040012D08AF002F084101A000400191
:101ECA002C08AF002F084101A10040012E08AF00E5
:101EDA002F08F1004030F2000030F300A2308E31BA
:101EEA00CD268F3140011910A030AF002F08A8006D
:101EFA004230A9000030AA0050308E3148268F3176
:101F0A0034304001AF00F130890B892FAF0B892F94
:101F1A00003240011914080000304001A3000030CB
:101F2A00A2000030A1000030A000711C9D2F9E2F3E
:101F3A00A72F75084001A0077608A13D7708A23DA2
:101F4A007808A33D0130F535F60DF70DF80D890B2C
:101F5A00A82F0130F436F30CF20CF10C890BAF2FD9
:101F6A007408730472047104031DBC2FBD2F9A2FC9
:101F7A0040012308F4002208F3002108F200200897
:101F8A00F10008004101A20040016E084101A400CD
:101F9A0040016D084101A3004201E901EA01ED2F68
:101FAA00A330A00020084001D7006F084101A1001A
:101FBA0021084001D80041012208803164208F3174
:101FCA00400157084201E907400158084201EA3D29
:101FDA00410123088400240885001200031DF62FFE
:101FEA00F72FD52F42016A084001EE004201690825
:101FFA004001ED00080000340A348A340A347A3485
:10200A000A34F83404345034063473340A342C3421
:10201A000F3405340A340A340A340F340A341434B7
:10202A000A3419340A341E340A3423340A3428345C
:10203A000A34FB340E3444346F346E3465340A3453
:10204A00503472346534733473342034273454343E
:10205A002734203474346F34203474346534733440
:10206A007434203461346734613469346E340A3428
:10207A0000340A344534723472346F347234203482
:10208A00403425343034343458343A342034253406
:10209A003034323458342034233420342534303424
:1020AA003234583400340A344534453450345234C6
:1020BA004F344D34203432343434413441343134A1
:1020CA0032343834203454344534533454340A3492
:1020DA0000340A345334743461347234743420341E
:1020EA0054346534733474343A3400342E3400343E
:020000040001F9
:0A000E00EC3FFF3F9F3FFF3FFF3F25
:00000001FF
