:020000040000FA
:08000000803102288731F52F41
:100CFE0071088631AE268631080071084001D70092
:100D0E007008D600080071084001DB007008DA0098
:100D1E00080071084001D9007008D800080064006E
:100D2E0080010131890B972E00344F0196019701F6
:100D3E00980199019A019B010800623051018D00C2
:100D4E008F01910102309300900192010800F00092
:100D5E004E010F1EB32EB42EAF2E700842019A0014
:100D6E00080086319C26863187313C2786318631B4
:100D7E00A42686318631F226863108005230400193
:100D8E00D2005208D3005108CB005008CA0053308D
:100D9E00D2005208CC00003087311427863108006B
:100DAE008631B826863100304001D0008830D1001F
:100DBE008631C526863102304001D5004530D4003B
:100DCE00A930890BE82ED40BE82ED50BE82E003275
:100DDE00DA2E80310228083042019F0090309D00AB
:100DEE0024309E0019309B009C010030F000003032
:100DFE00F10086318A2686310030F0000030F10095
:100E0E008631902686310030F0000030F1008631B8
:100E1E00842686314001C90108004001CD004B08EF
:100E2E00CF004A08CE00C001C1012E2F4E30FC006B
:100E3E007C08F4004C08FD007D08F5004D08873154
:100E4E007B27873174084001C0077508C13D4E08E5
:100E5E0084004F0885001200031D362F372F1D2FDB
:100E6E004108CB004008CA00080040019C019B01CC
:100E7E00980199019A010F309600FF309200FF30D1
:100E8E009300FB309400FF309500FF307E01D900B7
:100E9E00FD30CE00FF30C3000730E400FF30B80055
:100EAE00DA01E501C401B901CF01E601BA01C501BC
:100EBE00D001DB01FF30BB00FF30C600FF30D10098
:100ECE00FF30DC000730E700FF30BC00FF30C7000A
:100EDE00FF30D200FF30DD000F30E8000F30A200EF
:100EEE0011307D01CB000800FB00740886008701DD
:100EFE00403FF600413FF7007608840077088500F2
:100F0E001200253A031D8C2F8D2FD22F74088600C8
:100F1E0087010130810741310318810A4001C20166
:100F2E00C301C601C701FF30C400FF30C5007408FD
:100F3E0086008701403FF600413FF70076088400A7
:100F4E00770885001200253A031DAE2FAF2FC72F4D
:100F5E007408860087010130810741310318810A28
:100F6E002530F1000030F2007B08F6007608F30021
:100F7E0086317F2687310130F4000030F500F42FE2
:100F8E007408860087010130810741310318810AF8
:100F9E00F401F501F42F740886008701403FF60036
:100FAE00413FF70076088400770885000008F800B6
:100FBE00F9017808F1007908F2007B08FA007A0846
:100FCE00F30086317F268731740886008701013051
:100FDE00810741310318810AC22F08002030840096
:100FEE00003085002A3086319626873140018631C1
:100FFE00D72E48344F3441344E3447342034543491
:0C100E004F3441344E3420340A34003496
:020000040001F9
:0A000E00EC3FFF3F9F3FFF3FFF3F25
:00000001FF
