:020000040000FA
:0400000080311B2808
:100008007E1480310B1F09280A2819284E01991ED1
:100018000E280F2819288F1E122813281928400186
:1000280058088A0057080A0080317E10090080317C
:100038001D28F801F901FA012030840000308500FC
:100048001A30823127228031A030840000308500A8
:1000580020308231272280317E1040018131802971
:10006800F70040013A0886008701403FBC00413F45
:10007800BD003C0884003D0885001200253A031D98
:10008800462847288C283A088600870101308107CE
:1000980041310318810AB201B301B601B701FF303B
:1000A800B400FF30B5003A0886008701403FBC0025
:1000B800413FBD003C0884003D0885001200253AF8
:1000C800031D6728682881283A08860087010130BF
:1000D800810741310318810A2530F4000030F5000A
:1000E8007708BC003C08F600823145228031013097
:1000F8004001BA000030BB00AF283A0886008701EB
:100108000130810741310318810ABA01BB01AF28C8
:100118003A0886008701403FBC00413FBD003C08CB
:1001280084003D0885000008BE00BF013E08F400B9
:100138003F08F5007708C0004008F60082314522E4
:10014800803140013A08860087010130810741313A
:100158000318810A7B28080040019C019B01980133
:1001680099019A010F3096007F309200FF3093007A
:10017800FB309400FF309500FF307E01D900FD3040
:10018800CE00FF30C3000730E4007F30B800DA014A
:10019800E501C401B901CF01E601BA01C501D001E9
:1001A800DB01FF30BB00FF30C600FF30D100FF305D
:1001B800DC000730E700FF30BC00FF30C700FF302D
:1001C800D200FF30DD000F30E8000F30A200113000
:1001D8007D01CB0008007A08203E86008701810156
:1001E80042011D1DF828F92804297A08203E8600B6
:1001F80087018114400156088A0055080A00813198
:1002080042019D1C0829092914297A08203E8600E4
:1002180087010115400154088A0053080A008131FA
:100228007A08203E86008701010803191C291D2928
:100238002429400152088A0051080A0081312729DF
:100248008131BD21803108004E019912EF30F30051
:100258000030F40082312D228131083042019F00A4
:1002680090309D0024309E0019309B009C01523034
:10027800F3000230F4008231392281314A30F30030
:100288000230F4008231332281314E30F3000230E3
:10029800F40082313F2281314001B901FA01F901AC
:1002A800F8014E01991608004001C6004208C8002E
:1002B8004108C700B001B10172294730C4004408A1
:1002C800BA004308C5004508BB0046088031342001
:1002D800813140013A08B0073B08B13D4708840026
:1002E800480885001200031D7A297B2961293108F5
:1002F800C2003008C10008008131E82181318B1724
:100308000B17A430F3000130F40082312D22813123
:10031800F5304001C9008130CA008131D6218131D0
:1003280002304001D0004530CF00A930890B9A290E
:10033800CF0B9A29D00B9A2900328C2980311B289F
:1003480003104001981F03140318AB29AE2940017C
:100358009817B0294001981342011908F100710853
:10036800F20072088231152281318031EF2081310B
:10037800080042011908F0007A08283E8600870123
:10038800700881000130F0007008FA0708307A021E
:10039800031CCF29D029D129FA010130F0007008B7
:1003A800F80708004B304001CB004B08CE004A0844
:1003B800C2004908C1004E30CB004B08C3000030D2
:1003C800813158218131080082311F2281318031E9
:1003D800B020813182310B22813181312821813154
:1003E800080048344F3441344E34473420345434B0
:1003F8004F3441344E340A340034F3004E010F1E9A
:10040800062A072A022A730842019A000800623065
:1004180051018D008F0191010230930090019201EA
:100428000800F0004E010F1E1A2A1B2A162A70080F
:1004380042019A0008004F0196019701980199011D
:100448009A019B010800640080010131890B282A68
:10045800003474084001D8007308D70008007408F5
:100468004001D4007308D300080074084001D60086
:100478007308D500080074084001D2007308D10041
:1004880008007408823101228231080042011D12DD
:0E0498001D1608008131BD21823108000800C8
:020000040001F9
:0A000E00EC3FFF3F9F3FFF3FFF3F25
:00000001FF
