:08000000803102288731F52F41
:100C7600083402344F0196019701980199019A01AF
:100C86009B010800F30040011C11730886318B2676
:100C960086310800F30040011C15730886318B2647
:100CA60086310800603051018D008F0191010230BC
:100CB600930090019201080086313D2686318731E6
:100CC6002B278631863155268631080040019C1433
:100CD600C8300032890B6C2E40019C10C83000329F
:100CE600890B722E080086315F26863102308731E5
:100CF60065278631F801F80A1530F9008830FA00C0
:100D0600FB0101308631F2268631882E8031022899
:100D1600F2007208F1000430F136890B8F2E71084B
:100D26008631A1268631863169268631720886315A
:100D3600A12686318631692686310800F000701CAE
:100D4600A52EA62EA92E40011816AB2E400118126C
:100D56000310F00C701CB02EB12EB32E9815B42EC5
:100D660098110310F00C701CB92EBA2EBC2E9814D4
:100D7600BD2E98100310F00C701CC22EC32EC52E6B
:100D86001814C62E18100800F70077084001210233
:100D96000318CE2ECF2ED32E2108F5007508F700A6
:100DA600740820020318D82ED92EDD2E2008F5004F
:100DB6007508F4007708003E840088300318013E69
:100DC600850000087407F5007508F6007608863178
:100DD60045268631C8300032890BEE2E0800FD000C
:100DE6007808FC007C08F4007D088631C726863129
:100DF6007B08031DFF2E002F252F0D2F7908840059
:100E06007A088500000886314D2686310130F907BB
:100E16000030FA3D790884007A0885001200031D27
:100E2600152F162F012F2A2F790884007A0885009E
:100E3600000886314D2686310130F9070030FA3D2B
:100E46000130FB027B08031D292F2A2F172F0800CC
:100E560040019C019B01980199019A010930960075
:100E6600E4309200FF309300FF309400FF3095008D
:100E7600FF307E01D900FF30CE00FF30C3000130C5
:100E8600E400E430B800DA01E501C401B901CF019C
:100E9600E601BA01C501D001DB01FF30BB00FF301E
:100EA600C600FF30D100FF30DC000730E700FF301E
:100EB600BC00FF30C700FF30D200FF30DD000F302E
:100EC600E8000800F600992F0230F400740840018B
:100ED600A1000830F4007408A000B52F0230F40019
:100EE60074084001A1001030F4007408A000B52F6A
:100EF6000430F40074084001A1001030F4007408B6
:100F0600A000B52F0230F40074084001A10014308F
:100F1600F4007408A000B52F0430F40074084001F2
:100F2600A1001430F4007408A000B52F7608F40070
:100F3600F5017508003A0319A12FF42F7408003A39
:100F46000319672F013A0319672F033A0319712F03
:100F5600013A03197B2F073A0319852F013A031922
:100F66008F2FF42F1C113430F400F230890BB92F77
:100F7600F40BB92F03308631A126873186316926D5
:100F860087310730F4007D30890BC72FF40BC72F4C
:100F96000000863169268731C8300032890BD02F90
:100FA60086316926873102308631A126873186311E
:100FB6006926873128308631452687310C308631BF
:100FC6004526873106308631452687310130863100
:100FD600452687318230F400DE30890BF02FF40B82
:100FE600F02F080086313B268731A00086313C264B
:100FF6008731A10040018631762E8034C03490348A
:10100600D03420342034203420342034203420348A
:10101600203420342034203420342034203420342A
:101026002034003448346F3461346E3467342034ED
:0A10360054346F3461346E3400341A
:020000040001F9
:0A000E00EC3FFF3F9F3FFF3FFF3F25
:00000001FF
