:020000040000FA
:08000000803102288731E52F51
:10000A0000307005F80000307105F9008030720583
:10001A00FA007F307305FB007B087A0479047804C0
:10002A00031D1828192821280030F3000030F20097
:10003A000030F1000030F00000307405F8000030A4
:10004A007505F90080307605FA007F307705FB00E8
:10005A007B087A0479047804031D342835283D285E
:10006A000030F7000030F6000030F5000030F400F0
:10007A0077087306031D4B2876087206031D4B2862
:10008A0075087106031D4B287408700603194E285B
:10009A004F28512803105228031408004101BE00BA
:1000AA00BA01BB01400151084101D000400150088A
:1000BA004101CF0040014F084101CE0040014E08E6
:1000CA004101CD0050084001B80041014F084001EC
:1000DA00B70041014E084001B60041014D084001F8
:1000EA00B5000030BC000030BB000030BA00003060
:1000FA00B9009C31A02480310318842885289E28C1
:10010A0001304101BA000030BB005008F3004F082B
:10011A00F2004E08F1004D08F000A5315425803157
:10012A0073084101D0007208CF007108CE00700830
:10013A00CD004101D301D401420167084101C00049
:10014A00420166084101BF003A083B04031DAE287C
:10015A00AF28B42842016A1DB328B428D328410124
:10016A003A083B04031DBA28BB28C0282B30A0003C
:10017A000030A100C4282D30A0000030A1002008C2
:10018A004001D30053084401A00001304101D307C4
:10019A000030D43DFF30BF07FF30C03D4101500859
:1001AA00F3004F08F2004E08F1004D08F0009B31B1
:1001BA00A023803170037104031DE428E528372940
:1001CA0040015208BF3ED300FF3003180030D4006C
:1001DA00003054021A3003195302031CF528F72879
:1001EA000130F8280030D500D60155084101A20097
:1001FA00400156084101A3002208230403190629D5
:10020A00072911296B30F000A930F1005308203E6C
:10021A00A631732680311A297330F000A930F10013
:10022A005308203EA63173268031FD304101BF07B5
:10023A00FF30C03D20304001D3005308A4004101E3
:10024A0040084001A60041013F084001A5004101C4
:10025A003E089931A521803140012508CF002408A4
:10026A00CE00E42F41015008F3004F08F2004E0877
:10027A00F1004D08F0009B31A02380317008710411
:10028A00031D482949299B2940015208BF3ED30032
:10029A00FF3003180030D400003054021A3003191A
:1002AA005302031C59295B2901305C290030D5000F
:1002BA00D60155084101A400400156084101A50094
:1002CA002408250403196A296B2975296F30F0005F
:1002DA00A930F1005308203EA631732680317E29C9
:1002EA007730F000A930F1005308203EA63173267A
:1002FA008031FD304101BF07FF30C03D2030400151
:10030A00D3005308A400410140084001A60041015E
:10031A003F084001A50041013E089931A5218031DD
:10032A0040012508CF002408CE00E42F3F304101C8
:10033A00D8008030D7000030D6000030D500D10177
:10034A00D2015008F3004F08F2004E08F1004D08A0
:10035A00F0000030F7000030F6000030F500003001
:10036A00F4008031052080310318BC29BD29812A77
:10037A00EE2941304001A3002030A2000030A10044
:10038A000030A000410158084001A7004101570868
:10039A004001A600410156084001A5004101550847
:1003AA004001A4008931E82180314001230841013C
:1003BA00D800400122084101D7004001210841012B
:1003CA00D600400120084101D5000130D107003094
:1003DA00D23D410150084001B80041014F08400197
:1003EA00B70041014E084001B60041014D084001E5
:1003FA00B5004130A3002030A2000030A100003037
:10040A00A000410158084001A700410157084001D6
:10041A00A600410156084001A500410155084001C6
:10042A00A4008931E821803140012308BC00220858
:10043A00BB002108BA002008B9009C31A0248031F1
:10044A000318282A292ABE295A2A41304001A30022
:10045A002030A2000030A1000030A000410158085D
:10046A004001A700410157084001A6004101560872
:10047A004001A500410155084001A40088313420FB
:10048A008031400123084101D8004001220841017E
:10049A00D700400121084101D6004001200841014E
:1004AA00D500FF30D107FF30D23D4101500840014D
:1004BA00B80041014F084001B70041014E08400110
:1004CA00B60041014D084001B500410158084001FC
:1004DA00BC00410157084001BB00410156084001D8
:1004EA00BA00410155084001B9009C31A02480316D
:1004FA00031C802A812A2A2A40015208D300D401E7
:10050A005308F6005408F700A631D9268031760838
:10051A004001D50055084101C20042084001D300FC
:10052A0053084101C10067304206031D9D2A9E2AD5
:10053A00C72A420168086904031DA42AA52AA92A10
:10054A000130E8000030E9006908803A4001D30030
:10055A0080305302031DB42A013042016802031895
:10056A00B72AB82ABE2A06304101BC000030BD00B5
:10057A00CD2A420169084101BD00420168084101D2
:10058A00BC00CD2A4201E91BCB2ACC2AB82ABE2AB2
:10059A0067304206031DD22AD32A0B2B5208803A0F
:1005AA004001D3007F305302031DDE2AFC30410193
:1005BA005102031CE12AE22A052B41013C08FF3EB5
:1005CA004001D300FF3041013D3D4001D4005408B1
:1005DA00803AD50041015208803A40015502031D74
:1005EA00FA2A4101510840015302031CFD2AFE2A3E
:1005FA00052B66304001D30053084101C1000B2B83
:10060A0065304001D30053084101C1003D08B300E1
:10061A003C08B20067304206031D142B152B1F2B12
:10062A0066304106031D1A2B1B2B232BD21F1E2BB0
:10063A001F2B232B0130B2070030B33D6630410631
:10064A00031D282B292B412BD21F2C2B2D2B372B6B
:10065A003F30D8008030D7000030D6000030D500B7
:10066A00D101D2016730420603193C2B3D2B412BA5
:10067A005108B2075208B33DCB01CC015008C6005D
:10068A004F08C5004E08C4004D08C3005808B700FB
:10069A005708B6005608B5005508B400212C410188
:1006AA0058084001A300410157084001A200410136
:1006BA0056084001A100410155084001A00041012E
:1006CA0046084001A700410145084001A600410132
:1006DA0044084001A500410143084001A4008831B3
:1006EA003420803140012308BD002208BC002108C3
:1006FA00BB002008BA0090311B20803140013D0820
:10070A004101CA0040013C084101C90040013B08BF
:10071A004101C80040013A084101C7004A08F300F4
:10072A004908F2004808F1004708F0009B312C23E1
:10073A00803171084101B9007008B8004A084001C7
:10074A00A700410149084001A600410148084001AB
:10075A00A500410147084001A40041015808400191
:10076A00A300410157084001A20041015608400177
:10077A00A100410155084001A0008931E8218031DA
:10078A0040012308B8002208B7002108B600200853
:10079A00B500410146084001BC004101450840013D
:1007AA00BB00410144084001BA004101430840012D
:1007BA00B900A63132268031400138084101C6000D
:1007CA00400137084101C500400136084101C40013
:1007DA00400135084101C30041304001A3002030E7
:1007EA00A2000030A1000030A000410158084001D9
:1007FA00A700410157084001A600410156084001DF
:10080A00A500410155084001A400883134208031F7
:10081A00400123084101D800400122084101D700C4
:10082A00400121084101D600400120084101D500BC
:10083A000130CB070030CC3D4C08803A4001D30050
:10084A0041013308803A40015302031D2F2C410114
:10085A0032084B02031C322C332C542B40304001FB
:10086A00A300A030A2000030A1000030A000410186
:10087A0058084001A700410157084001A60041015C
:10088A0056084001A500410155084001A4008931DC
:10089A00E8218031400123084101CA0040012208B1
:1008AA004101C900400121084101C8004001200856
:1008BA004101C70046084001B8004101450840010E
:1008CA00B700410144084001B60041014308400114
:1008DA00B50041014A084001BC00410149084001F4
:1008EA00BB00410148084001BA00410147084001E4
:1008FA00B9009C31A02480310318842C852C8F2CBC
:10090A0000304101CA000030C9000030C800003080
:10091A00C700B42C41014608F3004508F200440818
:10092A00F1004308F0004A08F7004908F6004808B1
:10093A00F5004708F400803105208031031CA62CFD
:10094A00A72CB42C41013818AB2CAC2CB42C003099
:10095A00CA000030C9000030C8000030C700410199
:10096A004A08F3004908F2004808F1004708F00075
:10097A005008F7004F08F6004E08F5004D08F4003D
:10098A0093317723803173084101C6007208C5008C
:10099A007108C4007008C30046084001B80041014C
:1009AA0045084001B700410144084001B600410131
:1009BA0043084001B5004130A3002030A2000030B6
:1009CA00A1000030A000410137084001A700410101
:1009DA0036084001A600410135084001A500410141
:1009EA0034084001A4008931E821803140012308FC
:1009FA00BC002208BB002108BA002008B9009C31BB
:100A0A00A0248031031C0A2D0B2D462D01304101F3
:100A1A00D1070030D23D41304001A3002030A2006E
:100A2A000030A1000030A000410137084001A700B2
:100A3A00410136084001A600410135084001A500E0
:100A4A00410134084001A4008931E8218031400184
:100A5A0023084101B700400122084101B6004001C4
:100A6A0021084101B500400120084101B400663067
:100A7A004106031D412D422D462D0130B20700309B
:100A8A00B33D41013708D8003608D7003508D600EB
:100A9A003408D500653041060319542D552D5A2DB9
:100AAA005208B1005108B0005C2DB001B101AE018D
:100ABA00AF01AC01AD01CB01CC01A92E410158080F
:100ACA004001A300410157084001A2004101560814
:100ADA004001A100410155084001A000410146081A
:100AEA004001A700410145084001A6004101440810
:100AFA004001A500410143084001A4008831342087
:100B0A00803140012308BD002208BC002108BB0037
:100B1A002008BA0090311B20803140013D08410174
:100B2A00CA0040013C084101C90040013B0841019B
:100B3A00C80040013A084101C7004A08F3004908C1
:100B4A00F2004808F1004708F0009B312C2380315D
:100B5A0071084101B9007008B80042016A1AB62D3D
:100B6A00B72DCD2D410138083904031DBD2DBE2DE9
:100B7A00CD2D67304206031DC32DC42DCD2DB11FC7
:100B8A00C72DC82DCD2D0130AC070030AD3D272E25
:100B9A0041012E082F04031DD32DD42D0B2EB11F76
:100BAA00D72DD82D0B2E2E304001D30041015308EA
:100BBA00203E860002308700400153088100013040
:100BCA004101D3070030D43DFF30BF07FF30C03D9D
:100BDA000130AE000030AF000B2E30304001D300A0
:100BEA0041015308203E8600023087004001530825
:100BFA00810001304101D3070030D43DFF30BF07E7
:100C0A00FF30C03DFF30AC07FF30AD3D2C082D044E
:100C1A00031D102E112EF22D3808303E4001D3004C
:100C2A0041015308203E86000230870040015308E4
:100C3A00810001304101D3070030D43DFF30BF07A6
:100C4A00FF30C03D4A084001A70041014908400160
:100C5A00A600410148084001A5004101470840019A
:100C6A00A400410158084001A3004101570840016E
:100C7A00A200410156084001A10041015508400166
:100C8A00A0008931E821803140012308B8002208F8
:100C9A00B7002108B6002008B50041014608400106
:100CAA00BC00410145084001BB0041014408400124
:100CBA00BA00410143084001B900A6313226803109
:100CCA00400138084101C600400137084101C5000A
:100CDA00400136084101C400400135084101C30002
:100CEA0041304001A3002030A2000030A1000030B2
:100CFA00A000410158084001A700410157084001DE
:100D0A00A600410156084001A500410155084001CD
:100D1A00A400883134208031400123084101D800E1
:100D2A00400122084101D700400121084101D600B3
:100D3A00400120084101D500FF30B007FF30B13D26
:100D4A000130CB070030CC3D4C08803A4001D3003B
:100D5A0041013308803A40015302031DB72E410175
:100D6A0032084B020318BA2EBB2ECB2E410154086F
:100D7A00803A4001D30080305302031DC72E4B3006
:100D8A0041015302031CCA2ECB2E632D41012E08AA
:100D9A002F04031DD12ED22EE82E42016A1ED62E12
:100DAA00D72EE82E2E304001D30041015308203EB1
:100DBA00860002308700400153088100013041015A
:100DCA00D3070030D43D41015308203E860002304B
:100DDA008700810165304106031DF42EF52ECD2FC3
:100DEA004F30CB000030CC004B08203E860002304A
:100DFA0087008101BA01BB01D21F042F052F0E2FD4
:100E0A000130BA000030BB00D109D209D10A031956
:100E1A00D20A0230BC000030BD00492FFF30410128
:100E2A00CB07FF30CC3D0A30F0000030F100520809
:100E3A00F3005108F2009831FC2080317008303EEE
:100E4A004001D30041014B08203E86000230870052
:100E5A004001530881000A30F0000030F1004101DE
:100E6A005208F3005108F2009A315A22803171086F
:100E7A004101D2007008D100FF30BC07FF30BD3DF0
:100E8A00FF30BF07FF30C03D51085204031D4E2FEB
:100E9A004F2F132F3D08803A4001D3008030530270
:100EAA00031D5A2F013041013C0203185D2F5E2FAA
:100EBA00132FFF304101CB07FF30CC3D3A083B04EA
:100ECA00031D682F692F6E2F2B30A6000030A70054
:100EDA00722F2D30A6000030A70026084001D3004B
:100EEA0041014B08203E860002308700400153082A
:100EFA008100FF304101BF07FF30C03DFF30CB0703
:100F0A00FF30CC3D40015208BF3ED300FF300318EA
:100F1A000030D400003054021A3003195302031C63
:100F2A00972F992F01309A2F0030D500D6015508F6
:100F3A004101AA00400156084101AB002A082B04CE
:100F4A00031DA82FA92FAE2F6530A8000030A900D5
:100F5A00B22F4530A8000030A90028084001D3006C
:100F6A0041014B08203E86000230870040015308A9
:100F7A008100FF304101BF07FF30C03D4B08203ED2
:100F8A00F0000230F1005308203EA631732680316A
:100F9A0020304001D3005308A40041014008400119
:100FAA00A60041013F084001A50041013E089931D0
:100FBA00A521803140012508CF002408CE00080071
:100FCA0064308400013085000B30A431F824873165
:100FDA00A0308400013085003E30A431F8248731E6
:100FEA0020308400023085005030A431F824873143
:060FFA00400199314F296E
:101002000030FB000030FA000030F9000030F80038
:10101200701C0C280D2815287408F8077508F93D6E
:101022007608FA3D7708FB3D0130F435F50DF60DF3
:10103200F70D890B16280130F336F20CF10CF00C87
:10104200890B1D287308720471047004031D2A2879
:101052002B2809287B08F3007A08F2007908F100AE
:101062007808F0000800400127088039A800280805
:10107200B1002735A8002808B800A61F4128422839
:101082004328381438080319472848285828380AAA
:10109200031D4C284D2855280030A7000030A6001B
:1010A2000030A5000030A400A617A7016028003078
:1010B200A7000030A6000030A5000030A4002308DD
:1010C2008039A8002808B1062335A8002808B900ED
:1010D200A21F6C286D286E2839143908031972284A
:1010E20073288328390A031D77287828802800303E
:1010F200A3000030A2000030A1000030A000A2171F
:10110200A3018B280030A3000030A2000030A10010
:101112000030A0002308220421042004031D922889
:101122009328AC280030A7000030A6000030A500AC
:101132000030A4008030A6047F30A7043108A80044
:101142002808A7042708A3002608A2002508A10052
:101152002408A000E7293808031DB028B128BA28BE
:101162000030A3000030A2000030A1000030A00037
:10117200E7293808A800A9012908AB003908280284
:10118200AA00031CAB032A087F3EB20000302B3DAD
:10119200B3002708B0002608AF002508AE002408D7
:1011A200AD000030A7000030A6000030A5000030DE
:1011B200A4000030B7000030B6000030B5000030A7
:1011C200B400B901222939080319E828E9280329BA
:1011D2000130AD35AE0DAF0DB00D890BEA280130EF
:1011E200A435A50DA60DA70D890BF128B71FFA2866
:1011F200FB28FC2824140130B435B50DB60DB70D0B
:10120200890BFD2823083002031D112922082F0211
:10121200031D112921082E02031D112920082D0268
:10122200031C142915291E2937172008AD0221088D
:10123200AE3B2208AF3B2308B03B0130A800280890
:10124200B9071A303902031C27292829E428300853
:101252002F042E042D0403192F293029492934146F
:1012620049290130A435A50DA60DA70D890B3329F7
:10127200B71F3C293D293E2924140130B435B50D50
:10128200B60DB70D890B3F29FF30B207FF30B33DD2
:10129200A61F4C294D293229B901B71F51295229BC
:1012A2006E29FF303405A800FF303505A900FF3054
:1012B2003605AA007F303705AB002B082A04290423
:1012C20028040319652966296929B901B90A6E2911
:1012D200241C6C296D296E29662939080319722983
:1012E20073299B290130A4070030A53D0030A63D9B
:1012F2000030A73D271C7E297F299B292408A800AE
:101302002508A9002608AA002708AB000130AC0076
:10131200AB37AA0CA90CA80CAC0B89292B08A70087
:101322002A08A6002908A5002808A4000130B2074F
:101332000030B33D3308803AA80080302802031DF4
:10134200A429FF303202031CA729A829B529FF309E
:101352004001B2000030B3000030A7000030A60008
:101362000030A5000030A40040013308803AA800F4
:1013720080302802031DBF29013032020318C2291E
:10138200C329CF294001B201B3010030A7000030C8
:10139200A6000030A5000030A400B10140013208CF
:1013A200A8002808B800381CD729D829DA29A61796
:1013B200DE297F30A8002808A6053836A8002808AC
:1013C200A7003108A8002808A704A32808004001A4
:1013D20023088039F9007908A8002335F900790833
:1013E200AE00A21FF529F629F7292E142E0803199B
:1013F200FB29FC290B2A2E0A031D002A012A092A8D
:101402000030A3000030A2000030A1000030A00094
:10141200A217132A0030A3000030A2000030A1005E
:101422000030A00027088039F9007908A80627357E
:10143200F9007908AD00A61F1F2A202A212A2D149F
:101442002D080319252A262A352A2D0A031D2A2AA0
:101452002B2A332A0030A7000030A6000030A50056
:101462000030A400A6173D2A0030A7000030A600D5
:101472000030A5000030A4002D080319412A422A99
:10148200472A2E08031D462A472A502A0030A30065
:101492000030A2000030A1000030A0003E2C200845
:1014A200F9007908F0002608A631B62689317108BC
:1014B2004001B4007008B3003308F900FA01FB01DF
:1014C200FC017C08AC007B08AB007A08AA00790812
:1014D200A9003408F900FA01FB01FC017C08B20002
:1014E2007B08B1007A08B0007908AF002108F90042
:1014F2007908F0002508A631B62689317108400125
:10150200B4007008B3003308F900FA01FB01FC01D2
:101512007908A9077A08AA3D7B08AB3D7C08AC3D57
:101522003408F900FA01FB01FC017908AF077A08D7
:10153200B03D7B08B13D7C08B23D2208F900790834
:10154200F0002408A631B626893171084001B400A2
:101552007008B3003308F900FA01FB01FC017908B5
:10156200A9077A08AA3D7B08AB3D7C08AC3D34084C
:10157200F900FA01FB01FC017908AF077A08B03DD6
:101582007B08B13D7C08B23D0830A935AA0DAB0DF0
:10159200AC0D890BC62A2108F9007908F00024084D
:1015A200A631B626893171084001B4007008B30033
:1015B2003308A9073408AA3D0030AB3DAC3D2008F2
:1015C200F9007908F0002508A631B626893171089C
:1015D2004001B4007008B3003308A9073408AA3DDB
:1015E2000030AB3DAC3D0830A935AA0DAB0DAC0DBA
:1015F200890BF52A2008F9007908F0002408A631A1
:10160200B626893171084001B4007008B30033086E
:10161200A9073408AA3D0030AB3DAC3D2108F900D2
:101622007908F0002608A631B626893171084001F2
:10163200B4007008B3003308AF073408B03D00307F
:10164200B13DB23D2208F9007908F0002508A63123
:10165200B626893171084001B4007008B30033081E
:10166200AF073408B03D0030B13DB23D2208F90069
:101672007908F0002608A631B626893171084001A2
:10168200B4007008B3003308F9003408FA00FB0113
:10169200FC010830F935FA0DFB0DFC0D890B4B2BC3
:1016A2007908AF077A08B03D7B08B13D7C08B23DAE
:1016B2002908F9002A08FA002B08FB002C08FC0074
:1016C2001830FC36FB0CFA0CF90C890B622B7908EA
:1016D200AF077A08B03D7B08B13D7C08B23D0830C7
:1016E200A935AA0DAB0DAC0D890B712B2E082D0758
:1016F200F900FA01FA0D7908823EB300FF307A3D13
:10170200B4009A2B0130AF35B00DB10DB20D890B7B
:10171200842BAC1F8D2B8E2B8F2B2F140130A935D0
:10172200AA0DAB0DAC0D890B902BFF30B307FF3028
:10173200B43DB11F9D2B9E2B832BAD01AC1FA22B61
:10174200A32BBF2BFF302905F900FF302A05FA0031
:10175200FF302B05FB007F302C05FC007C087B044E
:101762007A0479040319B62BB72BBA2BAD01AD0A53
:10177200BF2B2F1CBD2BBE2BBF2BB72B2D08031944
:10178200C32BC42BEC2B0130AF070030B03D00302F
:10179200B13D0030B23D321CCF2BD02BEC2B2F08A9
:1017A200F9003008FA003108FB003208FC00013071
:1017B200FD00FC37FB0CFA0CF90CFD0BDA2B7C0854
:1017C200B2007B08B1007A08B0007908AF0001309E
:1017D200B3070030B43D3408803AF9008030790212
:1017E200031DF52BFF303302031CF82BF92B032CBE
:1017F2007F304001B2008030B1000030B0000030D4
:10180200AF00322C40013408803AF900803079026E
:10181200031D0D2C013033020318102C112C1C2C2B
:1018220000304001B2000030B1000030B0000030A2
:10183200AF00A801322C40013308F9007908AE004C
:10184200FF30AF05FF30B0057F30B1050030B20583
:101852002E1C2C2C2D2C2E2CB1172E36F90079088B
:10186200B2002808F9007908B2043208A30031084E
:10187200A2003008A1002F08A00008004101EF00DB
:101882004001570886008701403FD900413FDA00F6
:10189200590884005A0885001200253A031D522C6B
:1018A200532CDA2F57088600870101308107413116
:1018B2000318810A4201E601E701EA01EB01FF3068
:1018C200E800FF30E9004101D901DA01AB2C420105
:1018D2006A144001570886008701013081074131AF
:1018E2000318810AAB2C4201EA146A2C42016A15E0
:1018F2006A2C4201EA156A2C42016A166A2C0130EE
:101902004101D9000030DA00AB2C400157088600B3
:101912008701403FD900413FDA00590884005A0844
:1019220085000008DB00DC015C08003A03199A2CF0
:10193200802C5B08203A03197A2C033A03197D2C78
:10194200083A0319772C063A0319682C1D3A031931
:10195200742C802C410159085A040319B12CB22C61
:10196200862C42016A1CB62CB72CBB2CFD30EA0532
:10197200FF30EB054001570886008701403FD90040
:10198200413FDA00590884005A08850012002E3AB5
:10199200031DCC2CCD2C472D4201E801E901400169
:1019A2005708860087010130810741310318810AF7
:1019B200570886008701403FD900413FDA005908A5
:1019C20084005A08850012002A3A031DE92CEA2CE9
:1019D200012D570886008701013081074131031824
:1019E200810A5808860087010108840001308500B9
:1019F20002308107003F4201E800013FE900472D24
:101A0200570886008701403FF600413FF7009E31AC
:101A120067268C3177084201E9007608E8001A2D22
:101A220040015708860087010130810741310318C0
:101A3200810A4001570886008701403FD900413F93
:101A4200DA00590884005A0885000008D03EDB00FD
:101A5200FF3003180030DC0000305C020A3003194A
:101A62005B02031C352D372D0130382D0030DD008F
:101A7200DE015D084101DB0040015E084101DC003E
:101A82005B085C04031D462D472D112D40015708AC
:101A920086008701403FD900413FDA00590884009F
:101AA2005A0885000008DB00DC015B08F6005C08D0
:101AB200F700A631D9268C3176084001DD005D0899
:101AC2004101EB006B080319672D682DAB2D400116
:101AD200570886008701403FD900413FDA000130B4
:101AE200590784005A0803185A0A85000008DB00C7
:101AF200DC015B08F6005C08F700A631D9268C31C0
:101B020076084001DD005D084101EC006C08031914
:101B12008B2D8C2DAB2D4001570886008701403F4D
:101B2200D900413FDA000230590784005A080318ED
:101B32005A0A85000008DB00DC015B08F6005C083D
:101B4200F700A631D9268C3176084001DD005D0808
:101B52004101ED004001570886008701403FD9004E
:101B6200413FDA00590884005A0885001200643A9D
:101B72000319BC2DBD2DCE2D570886008701403F8D
:101B8200D900413FDA00590884005A088500120042
:101B9200693A031DCD2DCE2D1D2E570886008701D3
:101BA2000130810741310318810A580886008701F4
:101BB200010884000130850002308107003FD9000E
:101BC200013FDA0059084101DF0040015A08410192
:101BD200E000890D893B8909E100E200E300E400AD
:101BE200E500E6005F084001B000410160084001E5
:101BF200B100410161084001B200410162084001A7
:101C0200B300410163084001B4004101640840018E
:101C1200B500410165084001B60041016608400176
:101C2200B70041016F08923107228C31400131081F
:101C3200D8003008D700FF2F570886008701403FA1
:101C4200F000413FF1007B30F200A930F300023096
:101C5200F4000030F5009931FE218C3170087104D6
:101C62000319342E352E4E2E400157088600870167
:101C7200403FF000413FF1008130F200A930F30013
:101C82000230F4000030F5009931FE218C317008E9
:101C92007104031D4D2E4E2EA82E400157088600BA
:101CA20087010230810741310318810A58088600F2
:101CB2008701010884000130850004308107003F5C
:101CC200D900013FDA00023FDB00033FDC00590884
:101CD2004101DF0040015A084101E00040015B0878
:101CE2004101E10040015C084101E2000030E21BD9
:101CF200FF30E300E400E500E6005F084001B000C9
:101D0200410160084001B100410161084001B20097
:101D1200410162084001B300410163084001B4007F
:101D2200410164084001B500410165084001B60067
:101D3200410166084001B70041016F089231072254
:101D42008C3140013108D8003008D700FF2F6630AF
:101D520041016B06031DAE2EAF2EFB2E400157082C
:101D620086008701403FD900413FDA0059088400CC
:101D72005A0885000008DB005B084101EE004001C3
:101D82005708860087010130810741310318810A13
:101D9200580886008701010884000130850004305C
:101DA2008107003F4101E700013FE800023FE900EF
:101DB200033FEA006A084001D1004101690840017D
:101DC200D000410168084001CF004101670840018D
:101DD200CE0041016E084001D9005908D2004101EC
:101DE2006F08803153208C3140014F08D8004E08D3
:101DF200D700FF2FEB30F0000030F1007E30F20010
:101E0200A930F3000230F4000030F5009931FE21D0
:101E12008C3170087104031D0F2F102FA22F400167
:101E2200570886008701403FD900413FDA00013060
:101E3200590784005A0803185A0A85000008DB0073
:101E42005B084101EE004001570886008701403FD0
:101E5200D900413FDA00590884005A088500000879
:101E6200BF3EDB00FF3003180030DC0000305C02B4
:101E72001A3003195B02031C3F2F412F0130422FFE
:101E82000030DD00DE015D084101DD0040015E0839
:101E92004101DE005D085E040319502F512F652FAA
:101EA200400158088600870101088400013085003E
:101EB20004308107003F4101E700013FE800023F93
:101EC200E900033FEA00782F4001580886008701A5
:101ED200010884000130850004308107003F410180
:101EE200E700013FE800023FE900033FEA0040014A
:101EF2005708860087010230810741310318810AA1
:101F020041016A084001D100410169084001D00045
:101F1200410168084001CF00410167084001CE003D
:101F220041016E084001D9005908D20041016F08F1
:101F3200803153208C3140014F08D8004E08D70021
:101F4200FF2F4001570886008701403FD900413FDB
:101F5200DA00590884005A0885001200253A031D48
:101F6200B32FB42FCF2F5708860087010130810786
:101F720041310318810A2530F2000030F30041019B
:101F82006F084001D9005908F400A731C1278C31EC
:101F920001304001D7000030D800FF2F57088600DB
:101FA20087010130810741310318810AD701D80125
:101FB200FF2F570886008701403FD900413FDA00D2
:101FC200590884005A0885000008DB00DC015B0820
:101FD200F2005C08F30041016F084001DD005D087A
:101FE200F400A731C1278C314001570886008701D0
:0E1FF2000130810741310318810AC92F080010
:10200200F4007408F2007208F3000B280130F200A9
:102012007208F40774088600023087000108031D65
:1020220013281428072873087402F000F101F01B2A
:10203200F1030800430156084001CD004301550851
:102042004001CC00430154084001CB004301530836
:102052004001CA003D08CD003C08CC003B08CB0043
:102062003A08CA004A08BE004B08BF004C08C0002C
:102072004D08C1001730C136C00CBF0CBE0C890B15
:102082003C28FF303E05C20000303F05C300420835
:10209200813EC800FF30433DC9004908803ABE0076
:1020A20080303E02031D572817304802031C5A286D
:1020B2005B285C2805294001C91B60286128BE28CD
:1020C200FF30BE00FF30BF007F30C0000030C100D3
:1020D200480A6F28C137C00CBF0CBE0C890B6B2895
:1020E2004108C7004008C6003F08C5003E08C400BA
:1020F2004A084405BE004B084505BF004C0846058A
:10210200C0004D084705C100410840043F043E0499
:10211200031D8C288D288E285B284A08BE004B0898
:10212200BF004C08C0004D08C1001F30C136C00CB2
:10213200BF0CBE0C890B9728410840043F043E04A3
:102142000319A428A528AD284408CA074508CB3D91
:102152004608CC3D4708CD3D4409BE004509BF00B5
:102162004609C0004709C1003E08CA053F08CB0521
:102172004008CC054108CD05FD284A08BE004B08A1
:10218200BF004C08C0004D08C1001F30C136C00C52
:10219200BF0CBE0C890BC728410840043F043E0413
:1021A200031DD428D528DE280030CD000030CC0015
:1021B2000030CB000030CA00FD284A08BE004B08A0
:1021C200BF004C08C0004D08C1000130BE35BF0D34
:1021D200C00DC10D890BE728410840043F043E04AD
:1021E2000319F428F528FD28BF30CD008030CC003B
:1021F2000030CB000030CA004D08BD004C08BC00C6
:102202004B08BB004A08BA000800F20120308600E1
:1022120000308700473FF000F01F102911293229B2
:102222004001A009A109A209A309A409A509A609B7
:10223200A709A00A031D3029A10A031D3029A20AF9
:10224200031D3029A30A031D3029A40A031D3029C6
:10225200A50A031D3029A60A031D3029A70AF20187
:10226200F20A2830860000308700473FF000F01F56
:102272003B293C295F294001A809A909AA09AB0900
:10228200AC09AD09AE09AF09A80A031D5B29A90A69
:10229200031D5B29AA0A031D5B29AB0A031D5B29E7
:1022A200AC0A031D5B29AD0A031D5B29AE0A031D9F
:1022B2005B29AF0A0130F0007008F2067330860025
:1022C200003087000830F00000301E00F00B662955
:1022D20040012008210422042304240425042604A6
:1022E2002704031975297629D229F101F10A8529D2
:1022F200A035A10DA20DA30DA40DA50DA60DA70D30
:102302000130F0007008F107A71F8829892979296F
:10231200F335F40DF50DF60DF70DF80DF90DFA0D77
:1023220027082F02031DAF2926082E02031DAF29FD
:1023320025082D02031DAF2924082C02031DAF29F5
:1023420023082B02031DAF2922082A02031DAF29ED
:1023520021082902031DAF2920082802031CB229E3
:10236200B329C4292008A8022108A93B2208AA3BB4
:102372002308AB3B2408AC3B2508AD3B2608AE3B0B
:102382002708AF3B7314A736A60CA50CA40CA30C0C
:10239200A20CA10CA00C0130F102031DD129D229FB
:1023A200892972080319D629D729F529F309F409CD
:1023B200F509F609F709F809F909FA09F30A031DFB
:1023C200F529F40A031DF529F50A031DF529F60A74
:1023D200031DF529F70A031DF529F80A031DF5293E
:1023E200F90A031DF529FA0A73084001A0007408CE
:1023F200A1007508A2007608A3007708A400780857
:10240200A5007908A6007A08A70008004001BF00CD
:102412003008C4003108C5003208C6003308C700BE
:102422003408C8003508C9003608CA003708CB008E
:102432004430860000308700473FB800B81B222A8C
:10244200242A0130252A00304001B900BA01390896
:10245200C2003A08C300420843040319312A322A4F
:10246200502AC409C509C609C709C809C909CA0940
:10247200CB09C40A031D502AC50A031D502AC60AE5
:10248200031D502AC70A031D502AC80A031D502AD9
:10249200C90A031D502ACA0A031D502ACB0A420147
:1024A200E91B542A552A592AFD30EA05FF30EB056B
:1024B2006908803A4001B80080303802031D642A5E
:1024C2000130420168020318672A682A6E2A013025
:1024D2004001BD000030BE00762A42016908400179
:1024E200BE00420168084001BD0042016708400188
:1024F200C100420166084001C00042084304031DB6
:10250200832A842A892A42016A1D882A892A8E2AD4
:10251200FF304001C007FF30C13D4F304001CC00C9
:102522000030CD004401EF01FF2AFF304001CC070B
:10253200FF30CD3D0A30A000A101A201A301A401F8
:10254200A501A601A7014408A8004508A90046085C
:10255200AA004708AB004808AC004908AD004A0889
:10256200AE004B08AF009F3116279231400121087F
:10257200F4002008F300A531F92592317308303EAA
:102582004001B8004C08203E86000230870038081F
:102592008100FF30BD07FF30BE3DFF30C007FF3076
:1025A200C13D0A30A000A101A201A301A401A5011D
:1025B200A601A7014408A8004508A9004608AA00E8
:1025C2004708AB004808AC004908AD004A08AE0015
:1025D2004B08AF0091310621923140012008C4001E
:1025E2002108C5002208C6002308C7002408C80025
:1025F2002508C9002608CA002708CB0040014D085B
:10260200803AB80080303802031D092B01304C0299
:10261200031C0C2B0D2B3A2B4001440845044604A5
:102622004704480449044A044B04031D192B1A2B7E
:10263200962A3E08803AB80080303802031D232BC8
:1026420001303D020318262B272B962A4001410810
:10265200803AB80080303802031D312B013040022D
:10266200031C342B352B3A2B4201EA18392B3A2B17
:10267200962A400142084304031D402B412B462B5E
:1026820042016A1D452B462B632BFF304001CC07CC
:10269200FF30CD3D42084304031D502B512B562BD6
:1026A2002B30BB000030BC005A2B2D30BB00003059
:1026B200BC003B08B8004C08203E86000230870070
:1026C2003808810040014C08203EB8003808A400B8
:1026D2004108A6004008A5003F089931A521923182
:1026E20040012508B1002408B000080073088039B1
:1026F2004001A0002008F8007335A0002008FA006D
:10270200F21F842B852B862B7A147A0803198A2BC5
:102712008B2B9B2B7A0A031D8F2B902B982B00302F
:10272200F3000030F2000030F1000030F000F21748
:10273200F301A32B0030F3000030F2000030F1006F
:102742000030F00077088039A0002008F9007908ED
:1027520078060319AD2BAE2BAF2B78177735A00077
:102762002008F900F61FB62BB72BB82B791479087D
:102772000319BC2BBD2BCD2B790A031DC12BC22BF8
:10278200CA2B0030F7000030F6000030F5000030B0
:10279200F400F617F701D52B0030F7000030F600F1
:1027A2000030F5000030F4007A0879020318DA2BC1
:1027B200DB2B1F2C781FDE2BDF2BE32B8030A000BE
:1027C2002008F8067A08A0002008FB007908A0007B
:1027D2002008FA007B08A0002008F9007008A00079
:1027E2002008FB007408A0002008F0007B08A0006D
:1027F2002008F4007108A0002008FB007508A00062
:102802002008F1007B08A0002008F5007208A00053
:102812002008FB007608A0002008F2007B08A00038
:102822002008F6007308A0002008FB007708A0002B
:102832002008F3007B08A0002008F700FB017908BC
:10284200A000A1012108A3007A082002A200031C13
:10285200A3032308803AA40080302402031D332CF2
:102862001A302202031C362C372C712C7308720486
:1028720071047004031D3E2C402C0130412C0030A9
:102882004001A0002008FB000030F3000030F200FD
:102892000030F1000030F0007908A0002008FA00B2
:1028A200772C7B1C552C562C5D2C7B360138400135
:1028B200A0002008FB005F2C0310FB0C701C622C94
:1028C200632C642CFB1701304001A000F337F20C9B
:1028D200F10CF00CA00B672C0130A0002008FA07C5
:1028E20079087A02031C762C772C522C781B7A2CCE
:1028F2007B2CB52C7A08031D7F2C802C892C003070
:10290200F3000030F2000030F1000030F000B52D8D
:102912007408F0077508F13D7608F23D7708F33D3B
:10292200731C942C952C422D7B1C982C992CA02C3A
:102932007B3601384001A0002008FB00A22C0310C6
:10294200FB0C701CA52CA62CA72CFB1701304001F8
:10295200A000F337F20CF10CF00CA00BAA2C013002
:10296200A0002008FA07422D7308803A4001A00017
:102972007708803A2002031DC82C76087202031DD4
:10298200C82C75087102031DC82C74087002031844
:10299200CB2CCC2C042DFF30A000FF30A100FF3047
:1029A200A200FF30A30070087402A4007108753BF6
:1029B200A5007208763BA6007308773BA70024089F
:1029C200A0072508A13D2608A23D2708A33D23080C
:1029D200F3002208F2002108F1002008F000803004
:1029E200A0002008F806FB09FB0A7B08031DFA2C4D
:1029F200FB2C0C2D0130F0070030F13D0030F23D90
:102A02000030F33D0C2D7408F0027508F13B760896
:102A1200F23B7708F33B7308720471047004031DE0
:102A2200132D142D3E2D7B08031D182D192D3E2D1F
:102A32000030F3000030F2000030F1000030F0000E
:102A4200B52D0130F035F10DF20DF30D890B232D6B
:102A5200FB1F2C2D2D2D2E2D70147B1C312D322D74
:102A6200352D0314FB0D372D0310FB0D7A080319C6
:102A72003B2D3C2D3E2D0130FA02F21F412D422DFD
:102A8200222DF901FB1F462D472D552D7B087F393D
:102A920003194C2D4D2D502DF901F90A552D701C9D
:102AA200532D542D552D4D2D79080319592D5A2D7D
:102AB200882D0130F0070030F13D0030F23D00304A
:102AC200F33D731C652D662D882D70084001A00012
:102AD2007108A1007208A2007308A3000130A400CB
:102AE200A337A20CA10CA00CA40B712D2308F30098
:102AF2002208F2002108F1002008F0007A0A0319E6
:102B0200832D842D882D0130A0002008FA077A0A2F
:102B120003198C2D8D2D922D7A08031D912D922D46
:102B2200A02D0030F3000030F2000030F100003040
:102B3200F0007A08031D9E2D9F2DA02DF8017A1C0E
:102B4200A32DA42DA62DF217AB2D7F304001A0009E
:102B52002008F2057A364001A0002008F300F81F91
:102B6200B32DB42DB52DF31708004201C400623015
:102B7200A000A830A1004408033E8600013087006F
:102B8200403FA200413FA300A531B32595317330E8
:102B92004201A000A830A1004408053E8600013091
:102BA2008700403FA200413FA300A531B3259531E4
:102BB20083304201A000A830A1004408073E8600ED
:102BC20001308700403FA200413FA300A531B32559
:102BD200953193304201A000A830A1004408093E7B
:102BE200860001308700403FA200413FA300A5318B
:102BF200B3259531A3304201A000A830A1004408BA
:102C02000B3E860001308700403FA200413FA300F7
:102C1200A531B3259531B3304201A000A830A100FF
:102C220044080D3E860001308700403FA200413F2C
:102C3200A300A531B3259531F3304201A000A8309D
:102C4200A10044080F3E860001308700403FA200E9
:102C5200413FA300A531B325953102304201A000C6
:102C6200A930A1004408113E860001308700403F90
:102C7200A200413FA300A531B32595312030420186
:102C8200A000A930A1004408133E8600013087004D
:102C9200403FA200413FA300A531B32595312F301B
:102CA2004201A000A930A1004408153E860001306F
:102CB2008700403FA200413FA300A531B3259531D3
:102CC2004D304201A000A930A1004408173E860001
:102CD20001308700403FA200413FA300A531B32548
:102CE200953142014408A731822795317D0842017E
:102CF200BB007C08BA007B08B9007A08B8005C30D7
:102D0200A000A930A1003B08A5003A08A400390898
:102D1200A3003808A200A531B32595314201440829
:102D22000D3E860001308700403FA600413FA700CC
:102D32002608A8002708A900AA01AB013808AC00A0
:102D42003908AD003A08AE003B08AF002808AC02D3
:102D52002908AD3B2A08AE3B2B08AF3B2F08C30026
:102D62002E08C2002D08C1002C08C000003040010E
:102D7200A3000030A2008030A1000030A000420178
:102D820044080B3E860001308700403FA600413FC9
:102D9200A7002608F0002708F100F201F30143081A
:102DA200F7004208F6004108F5004008F4008831B7
:102DB2000120953173084001A7007208A60071082E
:102DC200A5007008A4009D312B25953140012308F0
:102DD2004201C300400122084201C2004001210811
:102DE2004201C100400120084201C000C330A000DE
:102DF200A830A1004308A5004208A4004108A3008E
:102E02004008A200A531B325953142014408153E80
:102E1200860001308700403FA600413FA7002608F8
:102E2200A8002708A9000030A91BFF30AA00AB00A8
:102E32000B30A835A90DAA0DAB0D890B1A2F2B0843
:102E4200BF002A08BE002908BD002808BC004008AF
:102E5200A6004108A7004208A8004308A9004408A8
:102E6200173E860001308700403FAA00413FAB0079
:102E72002A08AC002B08AD000030AD1BFF30AE00BD
:102E8200AF002C08A6072D08A73D2E08A83D2F0845
:102E9200A93D29084001A300420128084001A200DF
:102EA200420127084001A100420126084001A0007A
:102EB20042013F084001A70042013E084001A6002E
:102EC20042013D084001A50042013C084001A40026
:102ED2009D312B259531400123084201BF0040015D
:102EE20022084201BE00400121084201BD0040010A
:102EF20020084201BC00D330A000A830A1003F0846
:102F0200A5003E08A4003D08A3003C08A200A5318C
:102F1200B3259531420140083C07A60041083D3DDA
:102F2200A70042083E3DA80043083F3DA9002908EA
:102F3200B7002808B6002708B5002608B4001130EB
:102F4200A000A930A1003708A5003608A400350862
:102F5200A3003408A200A531B325953143304001C6
:102F6200A3002030A2000030A1000030A0000830F1
:102F720042013407F0000030353DF1000030363DAB
:102F8200F2000030373DF30001309D31BB25953111
:102F920073084001A7007208A6007108A500700816
:102FA200A40088313420953140016B08860001303D
:102FB20087002008C03F2108C13F2208C23F2308E2
:102FC200C33F420144089831262095317D084201D1
:102FD200B3007C08B2007B08B1007A08B000E3308D
:102FE200A000A830A1003308A5003208A4003108CF
:102FF200A3003008A200A531B32595310800F500E1
:10300200F401F40A1528A53116259831F001750846
:103012008600013087000108A531772598310030FC
:103022004301111B0130F4007408031D19281A28EA
:1030320004287208A5316B2598317308A5316B25D8
:103042009831A5312025983108004001AA000030AE
:10305200A7000030A8000030A900F430A00020082A
:10306200F2003430A1002108F3002A089831002030
:10307200983107304001A0007D30890B3E28A00B1B
:103082003E28F6304001A0002008F2002730A100BF
:103092002108F3000330A2002208F4002A089A3122
:1030A200B922983140012908A000A1012008270473
:1030B200A30021082804A400A501A41BA503250838
:1030C200A6002608FD002508FC002408FB002308B2
:1030D200FA000800F500F601F60A8028A531162547
:1030E2009831F00175088600013087000108A5318A
:1030F2007725983100304301111B0130F600760824
:10310200031D842885286F287208A5316B25983104
:10311200F601F60A9E28A53116259831F001F00A2B
:1031220075088600013087000108A531772598319E
:1031320000304301111B0130F6007608031DA2285E
:10314200A3288C28A5315F259831F3007308F40079
:10315200A53149259831A5312025983174080800F8
:1031620040019C019B01980199019A010F30960040
:10317200FF309200FF309300FA309400FF30950048
:10318200FF307E01D900AD30CE00FF30C3000730E2
:10319200E400FF30B800DA01E5010430C400B901EF
:1031A200D830CF00E601BA01C501D001DB01FF3002
:1031B200BB00FF30C600FF30D100FF30DC0007301B
:1031C200E700FF30BC00FF30C700FF30D200FF3005
:1031D200DD000F30E80014307D01C50015307E019E
:1031E200A4000F30A2001630A60016307D01C600E2
:1031F2001130CB000800F601F31F0029012908292C
:10320200F209F309F20A0319F30AF601F60AF11FA9
:103212000B290C291129F009F109F00A0319F10A05
:10322200700871040319162917294029F501F50AB6
:1032320023290130F035F10D890B1B290130F400EF
:103242007408F507F11F262927291A297108730224
:10325200031D2D2970087202031C302931293529DA
:103262007008F2027108F33B0130F136F00C890B61
:1032720036290130F502031D3F2940292729760806
:103282000319442945294A29F209F309F20A0319C3
:10329200F30A7308F1007208F0000800A5319225C4
:1032A200993177304201C5004508CB00CD01A431E8
:1032B200FE2499314B30A531A22599314730420184
:1032C200C50045084001EB004B309531B6259931D8
:1032D2003A304201A000A830A1004A08A5004908DE
:1032E200A4004808A3004708A200A531B3259931DC
:1032F20040011A1447304201C50045084001EB0065
:103302004B309531B62599313A304201A000A830B0
:10331200A1004A08A5004908A4004808A3004708DC
:10332200A200A531B325993106304201C6001330FF
:10333200C500AD30890B9B29C50B9B29C60B9B2968
:1033420000327B29803102284001AC0042016A1C14
:10335200AB29AC29B52940012C08A7002708FA009F
:103362002408A631FE2699314001A61BB929BA29A3
:10337200BF292608AB002508AA00C129AA01AB0172
:10338200A801A901D5292030F2000030F300400144
:103392002C08A7002708F400A731C1279931013072
:1033A2004001A8070030A93D2908803AA7002B0850
:1033B200803A2702031DDF292A082802031CE2297A
:1033C200E329C42942016A18E729E829F1294001C1
:1033D2002C08A7002708FA002408A631FE269931F6
:1033E2004001240890310120993140012A087007D8
:1033F200A4002B08713DA50008007108F8007008B0
:10340200F7007308FA007208F9000130F402003084
:10341200F53B740A031D112A750A031D112A122A8B
:10342200212AF001F101592A0130F7070030F83D55
:103432000130F9070030FA3D0130F4020030F53B6B
:10344200770884007808850012000319292A2A2A9D
:10345200492A790884007A08850012000319322A61
:10346200332A492A740875040319382A392A492A41
:10347200790884007A0885000008F600770884003D
:1034820078088500000876060319482A492A152A71
:1034920077088400780885000008F600790884001F
:1034A2007A08850000087602F000F101031CF1039E
:1034B2000800F601F11F5E2A5F2A662AF009F10967
:1034C200F00A0319F10AF601F60AF31F692A6A2AB9
:1034D200732AF209F309F20A0319F30A0130F4001C
:1034E2007408F606F701F8017008710403197A2AC4
:1034F2007B2AAA2AF501F50A872A0130F035F10D57
:10350200890B7F2A0130F4007408F507F11F8A2A1B
:103512008B2A7E2A0130F735F80D890B8C2A710827
:103522007302031D962A70087202031C992A9A2AB2
:103532009F2A7008F2027108F33B77140130F136CA
:10354200F00C890BA02A0130F502031DA92AAA2A30
:103552008B2A76080319AE2AAF2AB42AF709F8098A
:10356200F70A0319F80A7808F1007708F000080052
:10357200F900F801F80ACE2AA53116259A31F00190
:1035820079088600013087000108A53177259A3134
:1035920000304301111B0130F8007808031DD22AC4
:1035A200D32ABD2A7208A5316B259A31F801F80A8F
:1035B200EC2AA53116259A31F001F00A7908860025
:1035C200013087000108A53177259A310030430187
:1035D200111B0130F8007808031DF02AF12ADA2ABB
:1035E200F701062BA5315F259A31F500770873079D
:1035F200F60076088600870175088100A5313E2510
:103602009A310130F5007508F7077408FF3EF5009E
:10361200FF3003180030F6007608803A803C031D24
:10362200142B75087702031C172B182BF32AA531CC
:103632005F259A31F50074087307F6007608FF3E9D
:103642008600870175088100A53149259A31A53187
:1036520020259A3108000310720D730DF4007408CE
:10366200FA007A08031D362B372B402B0030F3006B
:103672000030F2000030F1000030F0009F2B7008A3
:10368200F4007108F5007208F6007308F7001F30A5
:10369200F736F60CF50CF40C890B492B7408F8007C
:1036A2007808F900F217FF30F005FF30F105FF301E
:1036B200F2050030F3059630FA02FA1F612B622BF5
:1036C2007A2B7A08803A973E0318682B692B6A2B6B
:1036D200372B0130F336F20CF10CF00C890B6B2B0B
:1036E2000130F4007408FA07031D782B792B6A2B3A
:1036F2008F2B20307A02031C7F2B802B8A2B372BB7
:103702000130F035F10DF20DF30D890B822B0130F2
:10371200FA027A08031D8E2B8F2B812B790803194D
:10372200932B942B9F2BF009F109F209F309F00A6C
:103732000319F10A0319F20A0319F30A08004301F3
:103742005A084001A500430159084001A400430161
:1037520058084001A300430157084001A200730822
:10376200A5007208A4007108A3007008A200220834
:10377200F4002308F5002408F6002508F7001730A6
:10378200F736F60CF50CF40C890BC12BFF307405DF
:10379200A00000307505A10020082104031DD22BD2
:1037A200D32BF42B2208F4002308F5002408F6009A
:1037B2002508F7000130F435F50DF60DF70D890BEC
:1037C200DC2B7708760475047404031DE92BEA2BBD
:1037D200EF2B0230F0000030F1001E2C0330F0001D
:1037E2000030F1001E2C200A2104031DF92BFA2BB4
:1037F2001A2C2208F4002308F5002408F6002508F4
:10380200F7000930F435F50DF60DF70D890B032C91
:1038120077087604750474040319102C122C0130F5
:10382200132C0030F800F9017808F0007908F10053
:103832001E2C0430F0000030F10008004001B600F8
:1038420020308600003087001630FA0000301E005B
:10385200FA0B282CAA30FA007A08F2002030FB007A
:103862007B08F3001630FC007C08F40036089A311D
:10387200B9229C3140013608033E860001308700A0
:103882002108C03F2008C13F3608053E86000130AE
:1038920087002308C03F2208C13F3608073E860042
:1038A200013087002508C03F2408C13F3608093E81
:1038B2008600013087002708C03F2608C13F36082E
:1038C2000B3E8600013087002908C03F2808C13F0F
:1038D20036080D3E8600013087002B08C03F2A08BB
:1038E200C13F36080F3E8600013087002D08C03FD9
:1038F2002C08C13F3608113E8600013087002F0890
:10390200C03F2E08C13F3608133E860001308700B3
:103912003108C03F3008C13F3608153E86000130ED
:1039220087003308C03F3208C13F3608173E860081
:10393200013087003508C03F3408C13F080000301D
:1039420040013505BD0000303605BE008030370528
:10395200BF007F303805C00040083F043E043D04EC
:10396200031DB42CB52CBD2C0030B8000030B700BC
:103972000030B6000030B50000303905BD0000301F
:103982003A05BE0080303B05BF007F303C05C000D9
:1039920040083F043E043D04031DD02CD12CD92CF9
:1039A2000030BC000030BB000030BA000030B9006B
:1039B200B81FDC2CDD2CF52C0030BD000030BE0021
:1039C2000030BF008030C0003508BD023608BE3B63
:1039D2003708BF3B3808C03B4008B8003F08B70073
:1039E2003E08B6003D08B500BC1FF82CF92C112D7D
:1039F2000030BD000030BE000030BF008030C0008B
:103A02003908BD023A08BE3B3B08BF3B3C08C03BFD
:103A12004008BC003F08BB003E08BA003D08B900A0
:103A22008030B8068030BC063C083802031D232DC6
:103A32003B083702031D232D3A083602031D232DAE
:103A4200390835020318262D272D292D03102A2D7A
:103A5200031408004001A901A31F302D312D3E2D72
:103A6200A009A109A209A309A00A0319A10A03191D
:103A7200A20A0319A30AA901A90AA71F412D422DCF
:103A8200512DA409A509A609A709A40A0319A50A83
:103A92000319A60A0319A70A0130FC007C08A9062B
:103AA2000030AD000030AC000030AB000030AA00A6
:103AB20023082204210420040319602D612DA22D64
:103AC200A801A80A6F2D0130A035A10DA20DA30DEA
:103AD200890B652D0130FC007C08A807A31F722DFD
:103AE200732D642D0130AA35AB0DAC0DAD0D890BD4
:103AF200742D23082702031D882D22082602031D88
:103B0200882D21082502031D882D20082402031C6C
:103B12008B2D8C2D952D2008A4022108A53B22086F
:103B2200A63B2308A73B2A140130A336A20CA10C02
:103B3200A00C890B962D0130A802031DA12DA22DE8
:103B4200732D29080319A62DA72DB22DAA09AB0999
:103B5200AC09AD09AA0A0319AB0A0319AC0A031985
:103B6200AD0A2D08A3002C08A2002B08A1002A08E8
:103B7200A0000800F80078080319C02DC12DD52D2A
:103B8200F31FC42DC52DD52D7009FA007109FB0054
:103B92007209FC007309FD00FA0A0319FB0A0319F2
:103BA200FC0A0319FD0ADD2D7308FD007208FC00F2
:103BB2007108FB007008FA00730872047104700443
:103BC200031DE42DE52DEE2D0030F3000030F20050
:103BD2000030F1000030F000662E9630F4007408D8
:103BE200F900FE2D0130F4007408F9070130FD36AA
:103BF200FC0CFB0CFA0C890BF82DFE307D05031D25
:103C0200032E042EF32D182E0130F4007408F90748
:103C12000130FA070030FB3D0030FC3D0030FD3D35
:103C22000130FD36FC0CFB0CFA0C890B122EFF3016
:103C32007D05031D1D2E1E2E052E282E0130F90294
:103C42000130FA35FB0DFC0DFD0D890B222EFC1BFC
:103C52002B2E2C2E322E023079020318312E322EC8
:103C62001F2E7918352E362E3E2EFF30FA05FF30E4
:103C7200FB057F30FC05FF30FD050310F90C7908C8
:103C8200F400F501F601F7011830F435F50DF60DE3
:103C9200F70D890B462E7408FA047508FB047608A2
:103CA200FC047708FD0478080319582E592E5E2E5D
:103CB200F31F5C2E5D2E5E2EFD177D08F3007C083F
:103CC200F2007B08F1007A08F00008004001A70129
:103CD200A801A001A101712E0130F6070030F73DC5
:103CE200A601A60A76088400770885001200203A09
:103CF20003197C2E7D2E922E76088400770885008B
:103D02000008F73EF800FF3003180030F9000030D9
:103D12007902053003197802031C902E912E922EFF
:103D2200A6012608F800F9017808A2007908A30084
:103D320022082304031D9E2E9F2E6D2EA92E0130D4
:103D4200A0000030A1000130F6070030F73DDD2E63
:103D520076088400770885000008F800F9017908E0
:103D6200003A0319B52EDD2E78082B3A0319A42E3A
:103D7200063A0319A02EDD2E760884007708850006
:103D82000008F8002808F1002708F0000A30F200C5
:103D92000030F300A63113269E317108FA0078082C
:103DA2007002F900031CFA037908303E4001A700B3
:103DB20000307A3DA800A42E76088400770885009A
:103DC2000008D03EF800FF3003180030F900003040
:103DD20079020A3003197802031CF02EF22E013008
:103DE200F32E0030FA00FB017A08A4007B08A5003C
:103DF20024082504031DFE2EFF2EBD2E20082104BB
:103E0200031D042F052F112F2709F8002809F90097
:103E1200F80A0319F90A7808F6007908F700152F4D
:103E22002808F7002708F6000800F201283086006B
:103E320000308700473FF000F01F202F212F422F34
:103E42004001A809A909AA09AB09AC09AD09AE0943
:103E5200AF09A80A031D402FA90A031D402FAA0A71
:103E6200031D402FAB0A031D402FAC0A031D402F38
:103E7200AD0A031D402FAE0A031D402FAF0AF20107
:103E8200F20A2030860000308700473FF000F01F22
:103E92004B2F4C2F6B2F4001A009A109A209A309A6
:103EA200A409A509A609A709A00A031D6B2FA10A47
:103EB200031D6B2FA20A031D6B2FA30A031D6B2F79
:103EC200A40A031D6B2FA50A031D6B2FA60A031D4F
:103ED2006B2FA70A40012008210422042304240492
:103EE2002504260427040319772F782FCB2FF101FD
:103EF200F10A872FA035A10DA20DA30DA40DA50DCA
:103F0200A60DA70D0130F0007008F107A71F8A2F38
:103F12008B2F7B2F27082F02031DA92F26082E0285
:103F2200031DA92F25082D02031DA92F24082C02E9
:103F3200031DA92F23082B02031DA92F22082A02E1
:103F4200031DA92F21082902031DA92F20082802D9
:103F5200031CAC2FAD2FBD2F2008A8022108A93BBE
:103F62002208AA3B2308AB3B2408AC3B2508AD3B07
:103F72002608AE3B2708AF3BA736A60CA50CA40C1F
:103F8200A30CA20CA10CA00C0130F102031DCA2F3C
:103F9200CB2F8B2F72080319CF2FD02FEE2FA8090A
:103FA200A909AA09AB09AC09AD09AE09AF09A80A6A
:103FB200031DEE2FA90A031DEE2FAA0A031DEE2FE1
:103FC200AB0A031DEE2FAC0A031DEE2FAD0A031D33
:103FD200EE2FAE0A031DEE2FAF0A40012808A00003
:103FE2002908A1002A08A2002B08A3002C08A4007B
:0E3FF2002D08A5002E08A6002F08A700080025
:1049C000F1007108A5312A25A431080071084301BE
:1049D000DF007008DE00080071084301E300700882
:1049E000E200080071084301E1007008E0000800DF
:1049F000640080010131890BF92C00344301100857
:104A0000F03908389000901608004F019601970180
:104A1000980199019A019B01080043018F01083018
:104A20009000910109308D00901208004E010F1086
:104A3000430111144E010F1C1E2D1F2D1A2D0800AD
:104A40004E010F10430111154E010F1C282D292D69
:104A5000242D0800F0004E010F1E2F2D302D2B2D80
:104A6000700842019A000800603051018D008F01EA
:104A70009101023093009001920108004E010F1045
:104A80004301911211164E010F1C472D482D432D45
:104A900008004E010F104301911611164E010F1C14
:104AA000522D532D4E2D08007308720471047004AA
:104AB00003195B2D5C2D5E2D8030F30608004E013E
:104AC0000F10430191154E010F1C672D682D632DAA
:104AD00043010C080800F0004E010F10700843015C
:104AE0008C004E010F1C752D762D712D0800F100E4
:104AF0004E010F107135700743018C004E010F1CE1
:104B0000822D832D7E2D0800F800E030F600760817
:104B1000F200B630F7007708F300780898310020EB
:104B2000A5310800A5310525A531A5310D25A531F3
:104B30009831B120A531A5313425A531A63194266F
:104B4000A53108004001EF006F08A5318425A5318B
:104B500040016F08A7312727A53140016F089C311C
:104B60001F24A531080022304001E7006708EA0051
:104B7000420121084001E000420120084001DF001D
:104B80006A30E7006708E1000030A7315127A531FE
:104B900008007008D03EF200FF30713DF300003095
:104BA00073020A3003197202031CD72DD92D01306C
:104BB000DA2D0030F400F5017408F0007508F100FA
:104BC00008007008BF3EF200FF30713DF300003076
:104BD00073021A3003197202031CEF2DF12D0130FC
:104BE000F22D0030F400F5017408F0007508F100B2
:104BF00008007408803AF50080307502031D022E0B
:104C0000013073020318052E062E122E7309F500CB
:104C10007409F600F50A0319F60A7508F300760818
:104C2000F400122E0800F401F501701C182E192E44
:104C30001D2E7208F4077308F53D0130F235F30DAF
:104C4000890B1E2E0130F136F00C890B232E7008D3
:104C50007104031D2C2E2D2E152E7508F1007408DD
:104C6000F000080080304001B8063C08F3003B0823
:104C7000F2003A08F1003908F0003808F700370868
:104C8000F6003608F5003508F40093317723A63195
:104C900073084001B8007208B7007108B6007008C8
:104CA000B5000800F401F40A2030700671040319FD
:104CB0005A2E5B2E6B2E7008F73EF200FF30713DCE
:104CC000F30000307302053003197202031C692ED1
:104CD0006A2E6B2EF4017408F200F3017208F000E2
:104CE0007308F1000800F7007108F5007008F4007F
:104CF0007708F2007208F600760886000230870016
:104D0000F60A7508F3007408F200F40A0319F50AAC
:104D100072088400730885000008C03F8908031DDD
:104D2000922E932E7C2E0800083042019F00903076
:104D30009D0024309E0067309B009C010030F000F5
:104D40000030F100A431EC24A6310030F000003036
:104D5000F100A431F224A6310030F0000030F1005F
:104D6000A431E624A6314201EE010800F800F40166
:104D7000F5017008F200F3017208F6007308F700FD
:104D8000781CC32EC42EC82E7608F4077708F53D8C
:104D90000130F635F70D890BC92E0310F80C780891
:104DA000031DD32ED42EC02E7508F1007408F00018
:104DB00008007608BF3EF800FF30773DF90000306C
:104DC00079021A3003197802031CE72EE92E01300C
:104DD000EA2E0030FA00FB017A08FC007B08FD0097
:104DE0007C087D040319F52EF62EFD2E2030760466
:104DF000F60000307704F700FD2E08004001A30004
:104E0000A101A201162F2008FB00FC017B08F20083
:104E10007C08F3007A08FD007D08F400A731C12763
:104E2000A63101304001A1070030A23D210823072F
:104E3000FB007B088600023087000108FC007C082C
:104E4000A0002008031D252F262F032F0800400156
:104E5000ED00D030EB006B08F2006D0898316B204C
:104E6000A7314001EC006C08EE006E08EB006D0A03
:104E70008600013087006B0881003E304201A000AF
:104E8000A930A10040016E08EB00EC016B08420163
:104E9000A20040016C084201A300A531B325A7314F
:104EA00008004001E4006008E6005F08E5004201F8
:104EB000E401E5016F2F6530E2006208D700610868
:104EC000E3006308D80064088C313F24A731400117
:104ED00057084201E407400158084201E53D4001FE
:104EE00065088400660885001200031D782F792F5D
:104EF0005B2F420165084001E00042016408400167
:104F0000DF0008004001A700A501A601F430A000C1
:104F10002008F2002E30A1002108F3002708983164
:104F20000020A73107304001A0007D30890B962F6B
:104F3000A00B962FF6304001A0002008F20025308B
:104F4000A1002108F3000230A2002208F400270883
:104F50009A31B922A73140012608A000A1012508F5
:104F6000A200A3012208A300A20120082207FA0040
:104F70002108233DFB00FC01FB1BFC037C08FD001A
:104F8000080074080319C52FC62FCB2F7408031D02
:104F9000CA2FCB2FD02F7208A431E024A731FF2FC6
:104FA0007408033E86008701160001040319D92FF7
:104FB000DA2FF72F7408033E86008701403FF50083
:104FC000413FF600740A86008701403FF700413FE9
:104FD000F8007808803AF9007608803A7902031DD3
:104FE000F32F750877020318F62FF72FFF2F740A97
:104FF000860087010130810741310318810A0800CA
:105000000034003400340034003400340034003400
:1050100000340034003400340034003400340034F0
:1050200000340034003400340034003400340034E0
:1050300000340034003400340034003400340034D0
:10504000443465347634693463346534203441340F
:1050500064346434723465347334733420346E349D
:105060006F347434203466346F3475346E34643481
:105070000A34003442344D34313433343834333428
:105080002034743465346D3470343A34203425342B
:1050900030342E34323466340A34003444346534C7
:1050A0007634693463346534203441346434643490
:1050B00072346534733473343A34203425346434B0
:1050C0000A3400340A3442344D34503431343834E4
:1050D00030345F344134433431343A34203425346D
:1050E00064340A34003442344D345034313438346A
:1050F00030345F344134433432343A34203425344C
:1051000064340A34003442344D3450343134383449
:1051100030345F344134433433343A34203425342A
:1051200064340A34003442344D3450343134383429
:1051300030345F344134433434343A342034253409
:1051400064340A34003442344D3450343134383409
:1051500030345F344134433435343A3420342534E8
:1051600064340A34003442344D34503431343834E9
:1051700030345F344134433436343A3420342534C7
:1051800064340A34003442344D34503431343834C9
:1051900030345F34583431343A34203425346C346C
:1051A00064340A34003442344D34503431343834A9
:1051B00030345F34583432343A34203425346C344B
:1051C00064340A34003442344D3450343134383489
:1051D00030345F34553450343A34203425346C3410
:1051E00064340A34003442344D3450343134383469
:1051F00030345F34423431343A342034253464342A
:105200000A34003442344D3450343134383430347C
:105210005F34423432343A342034253464340A342E
:10522000003442344D3450343134383430345F3407
:10523000423435343A342034253464340A3400346A
:1052400042344D3450343134383430345F344D349A
:1052500042343A342034253464340A34003442343D
:105260004D3450343134383430345F344D34433479
:105270003A342034253464340A34003442344D3412
:1052800050343134383430342034493444343A34AE
:105290002034253464340A34003442344D345034DC
:1052A0003134383430345F344D3444343A3420347B
:1052B000253464340A34003442344D3450343134AB
:1052C000383430345F34553454343A34203425344F
:1052D00064340A34003449344E34463400344E3495
:1052E00041344E34003469346E34663400346E34E4
:1052F00061346E3400346C34643400346C3466349D
:0853000000346C346934003400
:020000040001F9
:0A000E00EC3FFF3F9F3FFF1FFF3F45
:00000001FF
