:020000040000FA
:08000000803102288731E52F51
:10000A0000307005F80000307105F9008030720583
:10001A00FA007F307305FB007B087A0479047804C0
:10002A00031D1828192821280030F3000030F20097
:10003A000030F1000030F00000307405F8000030A4
:10004A007505F90080307605FA007F307705FB00E8
:10005A007B087A0479047804031D342835283D285E
:10006A000030F7000030F6000030F5000030F400F0
:10007A0077087306031D4B2876087206031D4B2862
:10008A0075087106031D4B287408700603194E285B
:10009A004F28512803105228031408004101BE00BA
:1000AA00BA01BB01400151084101D000400150088A
:1000BA004101CF0040014F084101CE0040014E08E6
:1000CA004101CD0050084001B80041014F084001EC
:1000DA00B70041014E084001B60041014D084001F8
:1000EA00B5000030BC000030BB000030BA00003060
:1000FA00B9009C310F2480310318842885289E2852
:10010A0001304101BA000030BB005008F3004F082B
:10011A00F2004E08F1004D08F000A431C5248031E8
:10012A0073084101D0007208CF007108CE00700830
:10013A00CD004101D301D401420167084101C00049
:10014A00420166084101BF003A083B04031DAE287C
:10015A00AF28B42842016A1DB328B428D328410124
:10016A003A083B04031DBA28BB28C0282B30A0003C
:10017A000030A100C4282D30A0000030A1002008C2
:10018A004001D30053084401A00001304101D307C4
:10019A000030D43DFF30BF07FF30C03D4101500859
:1001AA00F3004F08F2004E08F1004D08F0009B31B1
:1001BA000F23803170037104031DE428E5283729D1
:1001CA0040015208BF3ED300FF3003180030D4006C
:1001DA00003054021A3003195302031CF528F72879
:1001EA000130F8280030D500D60155084101A20097
:1001FA00400156084101A3002208230403190629D5
:10020A00072911298030F000A930F1005308203E57
:10021A00A531D42580311A298830F000A930F1009F
:10022A005308203EA531D4258031FD304101BF0756
:10023A00FF30C03D20304001D3005308A4004101E3
:10024A0040084001A60041013F084001A5004101C4
:10025A003E089831B720803140012508CF00240894
:10026A00CE00E42F41015008F3004F08F2004E0877
:10027A00F1004D08F0009B310F23803170087104A2
:10028A00031D482949299B2940015208BF3ED30032
:10029A00FF3003180030D400003054021A3003191A
:1002AA005302031C59295B2901305C290030D5000F
:1002BA00D60155084101A400400156084101A50094
:1002CA002408250403196A296B2975298430F0004A
:1002DA00A930F1005308203EA531D42580317E296A
:1002EA008C30F000A930F1005308203EA531D42506
:1002FA008031FD304101BF07FF30C03D2030400151
:10030A00D3005308A400410140084001A60041015E
:10031A003F084001A50041013E089831B7208031CD
:10032A0040012508CF002408CE00E42F3F304101C8
:10033A00D8008030D7000030D6000030D500D10177
:10034A00D2015008F3004F08F2004E08F1004D08A0
:10035A00F0000030F7000030F6000030F500003001
:10036A00F4008031052080310318BC29BD29812A77
:10037A00EE2941304001A3002030A2000030A10044
:10038A000030A000410158084001A7004101570868
:10039A004001A600410156084001A5004101550847
:1003AA004001A4009531A92580314001230841016B
:1003BA00D800400122084101D7004001210841012B
:1003CA00D600400120084101D5000130D107003094
:1003DA00D23D410150084001B80041014F08400197
:1003EA00B70041014E084001B60041014D084001E5
:1003FA00B5004130A3002030A2000030A100003037
:10040A00A000410158084001A700410157084001D6
:10041A00A600410156084001A500410155084001C6
:10042A00A4009531A925803140012308BC00220887
:10043A00BB002108BA002008B9009C310F24803182
:10044A000318282A292ABE295A2A41304001A30022
:10045A002030A2000030A1000030A000410158085D
:10046A004001A700410157084001A6004101560872
:10047A004001A500410155084001A400883102202D
:10048A008031400123084101D8004001220841017E
:10049A00D700400121084101D6004001200841014E
:1004AA00D500FF30D107FF30D23D4101500840014D
:1004BA00B80041014F084001B70041014E08400110
:1004CA00B60041014D084001B500410158084001FC
:1004DA00BC00410157084001BB00410156084001D8
:1004EA00BA00410155084001B9009C310F248031FE
:1004FA00031C802A812A2A2A40015208D300D401E7
:10050A005308F6005408F700A6313A2680317608D7
:10051A004001D50055084101C20042084001D300FC
:10052A0053084101C10067304206031D9D2A9E2AD5
:10053A00C72A420168086904031DA42AA52AA92A10
:10054A000130E8000030E9006908803A4001D30030
:10055A0080305302031DB42A013042016802031895
:10056A00B72AB82ABE2A06304101BC000030BD00B5
:10057A00CD2A420169084101BD00420168084101D2
:10058A00BC00CD2A4201E91BCB2ACC2AB82ABE2AB2
:10059A0067304206031DD22AD32A0B2B5208803A0F
:1005AA004001D3007F305302031DDE2AFC30410193
:1005BA005102031CE12AE22A052B41013C08FF3EB5
:1005CA004001D300FF3041013D3D4001D4005408B1
:1005DA00803AD50041015208803A40015502031D74
:1005EA00FA2A4101510840015302031CFD2AFE2A3E
:1005FA00052B66304001D30053084101C1000B2B83
:10060A0065304001D30053084101C1003D08B300E1
:10061A003C08B20067304206031D142B152B1F2B12
:10062A0066304106031D1A2B1B2B232BD21F1E2BB0
:10063A001F2B232B0130B2070030B33D6630410631
:10064A00031D282B292B412BD21F2C2B2D2B372B6B
:10065A003F30D8008030D7000030D6000030D500B7
:10066A00D101D2016730420603193C2B3D2B412BA5
:10067A005108B2075208B33DCB01CC015008C6005D
:10068A004F08C5004E08C4004D08C3005808B700FB
:10069A005708B6005608B5005508B400212C410188
:1006AA0058084001A300410157084001A200410136
:1006BA0056084001A100410155084001A00041012E
:1006CA0046084001A700410145084001A600410132
:1006DA0044084001A500410143084001A4008831B3
:1006EA000220803140012308BD002208BC002108F5
:1006FA00BB002008BA0090310E20803140013D082D
:10070A004101CA0040013C084101C90040013B08BF
:10071A004101C80040013A084101C7004A08F300F4
:10072A004908F2004808F1004708F0009A319B2274
:10073A00803171084101B9007008B8004A084001C7
:10074A00A700410149084001A600410148084001AB
:10075A00A500410147084001A40041015808400191
:10076A00A300410157084001A20041015608400177
:10077A00A100410155084001A0009531A925803109
:10078A0040012308B8002208B7002108B600200853
:10079A00B500410146084001BC004101450840013D
:1007AA00BB00410144084001BA004101430840012D
:1007BA00B900A53193258031400138084101C600AE
:1007CA00400137084101C500400136084101C40013
:1007DA00400135084101C30041304001A3002030E7
:1007EA00A2000030A1000030A000410158084001D9
:1007FA00A700410157084001A600410156084001DF
:10080A00A500410155084001A40088310220803129
:10081A00400123084101D800400122084101D700C4
:10082A00400121084101D600400120084101D500BC
:10083A000130CB070030CC3D4C08803A4001D30050
:10084A0041013308803A40015302031D2F2C410114
:10085A0032084B02031C322C332C542B40304001FB
:10086A00A300A030A2000030A1000030A000410186
:10087A0058084001A700410157084001A60041015C
:10088A0056084001A500410155084001A4009531D0
:10089A00A9258031400123084101CA0040012208EC
:1008AA004101C900400121084101C8004001200856
:1008BA004101C70046084001B8004101450840010E
:1008CA00B700410144084001B60041014308400114
:1008DA00B50041014A084001BC00410149084001F4
:1008EA00BB00410148084001BA00410147084001E4
:1008FA00B9009C310F2480310318842C852C8F2C4D
:10090A0000304101CA000030C9000030C800003080
:10091A00C700B42C41014608F3004508F200440818
:10092A00F1004308F0004A08F7004908F6004808B1
:10093A00F5004708F400803105208031031CA62CFD
:10094A00A72CB42C41013818AB2CAC2CB42C003099
:10095A00CA000030C9000030C8000030C700410199
:10096A004A08F3004908F2004808F1004708F00075
:10097A005008F7004F08F6004E08F5004D08F4003D
:10098A0093316A23803173084101C6007208C50099
:10099A007108C4007008C30046084001B80041014C
:1009AA0045084001B700410144084001B600410131
:1009BA0043084001B5004130A3002030A2000030B6
:1009CA00A1000030A000410137084001A700410101
:1009DA0036084001A600410135084001A500410141
:1009EA0034084001A4009531A9258031400123082B
:1009FA00BC002208BB002108BA002008B9009C31BB
:100A0A000F248031031C0A2D0B2D462D0130410184
:100A1A00D1070030D23D41304001A3002030A2006E
:100A2A000030A1000030A000410137084001A700B2
:100A3A00410136084001A600410135084001A500E0
:100A4A00410134084001A4009531A92580314001B3
:100A5A0023084101B700400122084101B6004001C4
:100A6A0021084101B500400120084101B400663067
:100A7A004106031D412D422D462D0130B20700309B
:100A8A00B33D41013708D8003608D7003508D600EB
:100A9A003408D500653041060319542D552D5A2DB9
:100AAA005208B1005108B0005C2DB001B101AE018D
:100ABA00AF01AC01AD01CB01CC01A92E410158080F
:100ACA004001A300410157084001A2004101560814
:100ADA004001A100410155084001A000410146081A
:100AEA004001A700410145084001A6004101440810
:100AFA004001A500410143084001A40088310220B9
:100B0A00803140012308BD002208BC002108BB0037
:100B1A002008BA0090310E20803140013D08410181
:100B2A00CA0040013C084101C90040013B0841019B
:100B3A00C80040013A084101C7004A08F3004908C1
:100B4A00F2004808F1004708F0009A319B228031F0
:100B5A0071084101B9007008B80042016A1AB62D3D
:100B6A00B72DCD2D410138083904031DBD2DBE2DE9
:100B7A00CD2D67304206031DC32DC42DCD2DB11FC7
:100B8A00C72DC82DCD2D0130AC070030AD3D272E25
:100B9A0041012E082F04031DD32DD42D0B2EB11F76
:100BAA00D72DD82D0B2E2E304001D30041015308EA
:100BBA00203E860002308700400153088100013040
:100BCA004101D3070030D43DFF30BF07FF30C03D9D
:100BDA000130AE000030AF000B2E30304001D300A0
:100BEA0041015308203E8600023087004001530825
:100BFA00810001304101D3070030D43DFF30BF07E7
:100C0A00FF30C03DFF30AC07FF30AD3D2C082D044E
:100C1A00031D102E112EF22D3808303E4001D3004C
:100C2A0041015308203E86000230870040015308E4
:100C3A00810001304101D3070030D43DFF30BF07A6
:100C4A00FF30C03D4A084001A70041014908400160
:100C5A00A600410148084001A5004101470840019A
:100C6A00A400410158084001A3004101570840016E
:100C7A00A200410156084001A10041015508400166
:100C8A00A0009531A925803140012308B800220827
:100C9A00B7002108B6002008B50041014608400106
:100CAA00BC00410145084001BB0041014408400124
:100CBA00BA00410143084001B900A53193258031AA
:100CCA00400138084101C600400137084101C5000A
:100CDA00400136084101C400400135084101C30002
:100CEA0041304001A3002030A2000030A1000030B2
:100CFA00A000410158084001A700410157084001DE
:100D0A00A600410156084001A500410155084001CD
:100D1A00A400883102208031400123084101D80013
:100D2A00400122084101D700400121084101D600B3
:100D3A00400120084101D500FF30B007FF30B13D26
:100D4A000130CB070030CC3D4C08803A4001D3003B
:100D5A0041013308803A40015302031DB72E410175
:100D6A0032084B020318BA2EBB2ECB2E410154086F
:100D7A00803A4001D30080305302031DC72E4B3006
:100D8A0041015302031CCA2ECB2E632D41012E08AA
:100D9A002F04031DD12ED22EE82E42016A1ED62E12
:100DAA00D72EE82E2E304001D30041015308203EB1
:100DBA00860002308700400153088100013041015A
:100DCA00D3070030D43D41015308203E860002304B
:100DDA008700810165304106031DF42EF52ECD2FC3
:100DEA004F30CB000030CC004B08203E860002304A
:100DFA0087008101BA01BB01D21F042F052F0E2FD4
:100E0A000130BA000030BB00D109D209D10A031956
:100E1A00D20A0230BC000030BD00492FFF30410128
:100E2A00CB07FF30CC3D0A30F0000030F100520809
:100E3A00F3005108F2009831642080317008303E86
:100E4A004001D30041014B08203E86000230870052
:100E5A004001530881000A30F0000030F1004101DE
:100E6A005208F3005108F2009931C9218031710802
:100E7A004101D2007008D100FF30BC07FF30BD3DF0
:100E8A00FF30BF07FF30C03D51085204031D4E2FEB
:100E9A004F2F132F3D08803A4001D3008030530270
:100EAA00031D5A2F013041013C0203185D2F5E2FAA
:100EBA00132FFF304101CB07FF30CC3D3A083B04EA
:100ECA00031D682F692F6E2F2B30A6000030A70054
:100EDA00722F2D30A6000030A70026084001D3004B
:100EEA0041014B08203E860002308700400153082A
:100EFA008100FF304101BF07FF30C03DFF30CB0703
:100F0A00FF30CC3D40015208BF3ED300FF300318EA
:100F1A000030D400003054021A3003195302031C63
:100F2A00972F992F01309A2F0030D500D6015508F6
:100F3A004101AA00400156084101AB002A082B04CE
:100F4A00031DA82FA92FAE2F6530A8000030A900D5
:100F5A00B22F4530A8000030A90028084001D3006C
:100F6A0041014B08203E86000230870040015308A9
:100F7A008100FF304101BF07FF30C03D4B08203ED2
:100F8A00F0000230F1005308203EA531D42580310B
:100F9A0020304001D3005308A40041014008400119
:100FAA00A60041013F084001A50041013E089831D1
:100FBA00B720803140012508CF002408CE00080060
:100FCA0064308400013085000B30A43169248731F4
:100FDA00A0308400013085003E30A4316924873175
:100FEA0020308400023085005030A43169248731D2
:060FFA0040019D312A2D8B
:10100400400127088039A8002808B1002735A80026
:101014002808B800A61F0F281028112838143808EB
:101024000319152816282628380A031D1A281B28F0
:1010340023280030A7000030A6000030A5000030AF
:10104400A400A617A7012E280030A7000030A60090
:101054000030A5000030A40023088039A800280827
:10106400B1062335A8002808B900A21F3A283B2856
:101074003C28391439080319402841285128390AD1
:10108400031D452846284E280030A3000030A20046
:101094000030A1000030A000A217A301592800309D
:1010A400A3000030A2000030A1000030A0002308FB
:1010B400220421042004031D602861287A280030BA
:1010C400A7000030A6000030A5000030A400803046
:1010D400A6047F30A7043108A8002808A70427081D
:1010E400A3002608A2002508A1002408A000B52911
:1010F4003808031D7E287F2888280030A30000308C
:10110400A2000030A1000030A000B5293808A800D2
:10111400A9012908AB0039082802AA00031CAB0363
:101124002A087F3EB20000302B3DB3002708B000F0
:101134002608AF002508AE002408AD000030A70043
:101144000030A6000030A5000030A4000030B70035
:101154000030B6000030B5000030B400B901F0280A
:1011640039080319B628B728D1280130AD35AE0D9A
:10117400AF0DB00D890BB8280130A435A50DA60D0F
:10118400A70D890BBF28B71FC828C928CA2824144B
:101194000130B435B50DB60DB70D890BCB28230836
:1011A4003002031DDF2822082F02031DDF28210837
:1011B4002E02031DDF2820082D02031CE228E32849
:1011C400EC2837172008AD022108AE3B2208AF3BBC
:1011D4002308B03B0130A8002808B9071A303902A7
:1011E400031CF528F628B22830082F042E042D04F9
:1011F4000319FD28FE281729341417290130A435B2
:10120400A50DA60DA70D890B0129B71F0A290B29C6
:101214000C2924140130B435B50DB60DB70D890B66
:101224000D29FF30B207FF30B33DA61F1A291B2931
:101234000029B901B71F1F2920293C29FF30340593
:10124400A800FF303505A900FF303605AA007F301D
:101254003705AB002B082A04290428040319332971
:1012640034293729B901B90A3C29241C3A293B29D4
:101274003C293429390803194029412969290130B5
:10128400A4070030A53D0030A63D0030A73D271C33
:101294004C294D2969292408A8002508A9002608F5
:1012A400AA002708AB000130AC00AB37AA0CA90C8C
:1012B400A80CAC0B57292B08A7002A08A60029085C
:1012C400A5002808A4000130B2070030B33D33085C
:1012D400803AA80080302802031D7229FF303202B0
:1012E400031C752976298329FF304001B2000030A0
:1012F400B3000030A7000030A6000030A500003085
:10130400A40040013308803AA80080302802031D5D
:101314008D29013032020318902991299D29400119
:10132400B201B3010030A7000030A6000030A500D0
:101334000030A400B10140013208A8002808B80018
:10134400381CA529A629A829A617AC297F30A800EE
:101354002808A6053836A8002808A7003108A800E0
:101364002808A704712808004201C0007730400112
:10137400E700A830E80042014008033E860001303F
:101384008700403F4001E900413FEA00A5311625AE
:10139400893188304001E700A830E8004201400864
:1013A400053E860001308700403F4001E900413F8F
:1013B400EA00A5311625893198304001E700A830AC
:1013C400E80042014008073E860001308700403FA4
:1013D4004001E900413FEA00A53116258931A830D2
:1013E4004001E700A830E80042014008093E8600B9
:1013F40001308700403F4001E900413FEA00A53148
:1014040016258931B8304001E700A830E8004201D0
:1014140040080B3E860001308700403F4001E90050
:10142400413FEA00A53116258931C8304001E70063
:10143400A830E800420140080D3E860001308700D4
:10144400403F4001E900413FEA00A53116258931BA
:1014540008304001E700A930E800420140080F3E8F
:10146400860001308700403F4001E900413FEA0027
:10147400A5311625893117304001E700A930E8006D
:1014840042014008113E860001308700403F400180
:10149400E900413FEA00A531162589313530400184
:1014A400E700A930E80042014008133E86000130FD
:1014B4008700403F4001E900413FEA00A53116257D
:1014C400893144304001E700A930E8004201400876
:1014D400153E860001308700403F4001E900413F4E
:1014E400EA00A5311625893162304001E700A930B0
:1014F400E80042014008173E860001308700403F63
:101504004001E900413FEA00A53116258931420135
:101514004008A7313C2789317D084201B7007C0887
:10152400B6007B08B5007A08B40071304001E700CA
:10153400A930E800420137084001EC0042013608B6
:101544004001EB00420135084001EA004201340841
:101554004001E900A53116258931420140080D3EBC
:10156400860001308700403FA200413FA3002208CB
:10157400A4002308A500A601A7013408A800350883
:10158400A9003608AA003708AB002408A8022508D9
:10159400A93B2608AA3B2708AB3B2B08BF002A0817
:1015A400BE002908BD002808BC0000304001A3008B
:1015B4000030A2008030A1000030A00042014008A9
:1015C4000B3E860001308700403FA200413FA3004C
:1015D4002208F0002308F100F201F3013F08F700AC
:1015E4003E08F6003D08F5003C08F400A731092741
:1015F400893173084001A7007208A6007108A5008C
:101604007008A4009C319A248931400123084201C6
:10161400BF00400122084201BE00400121084201EE
:10162400BD00400120084201BC00D8304001E70061
:10163400A830E80042013F084001EC0042013E08A6
:101644004001EB0042013D084001EA0042013C0830
:101654004001E900A5311625893142014008153EB3
:10166400860001308700403FA200413FA3002208CA
:10167400A4002308A5000030A51BFF30A600A70086
:101684000B30A435A50DA60DA70D890B432B2708F8
:10169400BB002608BA002508B9002408B8003C0895
:1016A400A2003D08A3003E08A4003F08A50040088E
:1016B400173E860001308700403FA600413FA70047
:1016C4002608A8002708A9000030A91BFF30AA009B
:1016D400AB002808A2072908A33D2A08A43D2B082B
:1016E400A53D25084001A300420124084001A200B1
:1016F400420123084001A100420122084001A00048
:1017040042013B084001A70042013A084001A600FB
:10171400420139084001A500420138084001A400F3
:101724009C319A248931400123084201BB004001C5
:1017340022084201BA00400121084201B9004001D7
:1017440020084201B800E8304001E700A830E80072
:1017540042013B084001EC0042013A084001EB0021
:10176400420139084001EA00420138084001E90019
:10177400A5311625893142013C083807A2003D08ED
:10178400393DA3003E083A3DA4003F083B3DA50077
:101794002508B3002408B2002308B1002208B000D1
:1017A40026304001E700A930E80042013308400137
:1017B400EC00420132084001EB00420131084001D3
:1017C400EA00420130084001E900A53116258931BB
:1017D40043304001A3002030A2000030A1000030BB
:1017E400A000083042013007F0000030313DF10024
:1017F4000030323DF2000030333DF30001309D31C2
:10180400BB25893173084001A7007208A60071083E
:10181400A5007008A4008831022089314201200803
:1018240086000130870040012008C03F2108C13FE5
:101834002208C23F2308C33F4201400899316C216A
:1018440089317D084201AF007C08AE007B08AD0001
:101854007A08AC00F8304001E700A830E800420103
:101864002F084001EC0042012E084001EB00420128
:101874002D084001EA0042012C084001E900A5318D
:101884001625893108004101EF0040015708860000
:101894008701403FD900413FDA00590884005A08C3
:1018A40085001200253A031D582C592CDA2F5708AD
:1018B400860087010130810741310318810A420102
:1018C400E601E701EA01EB01FF30E800FF30E9003F
:1018D4004101D901DA01B12C42016A1440015708CF
:1018E400860087010130810741310318810AB12C38
:1018F4004201EA14702C42016A15702C4201EA1567
:10190400702C42016A16702C01304101D90000305C
:10191400DA00B12C4001570886008701403FD90006
:10192400413FDA00590884005A0885000008DB00AA
:10193400DC015C08003A0319A02C862C5B08203AD1
:101944000319802C033A0319832C083A03197D2CBC
:10195400063A03196E2C1D3A03197A2C862C410180
:1019640059085A040319B72CB82C8C2C42016A1C50
:10197400BC2CBD2CC12CFD30EA05FF30EB05400129
:10198400570886008701403FD900413FDA005908D3
:1019940084005A08850012002E3A031DD22CD32C41
:1019A4004C2D4201E801E9014001570886008701F6
:1019B4000130810741310318810A570886008701E5
:1019C400403FD900413FDA00590884005A08850095
:1019D40012002A3A031DEF2CF02C062D570886001E
:1019E40087010130810741310318810A58088600B4
:1019F400870101088400850102308107003F42010C
:101A0400E800013FE9004C2D570886008701403F5C
:101A1400F600413FF7009E3167268C31770842017A
:101A2400E9007608E8001F2D400157088600870169
:101A34000130810741310318810A400157088600AB
:101A44008701403FD900413FDA00590884005A0811
:101A540085000008D03EDB00FF3003180030DC00B6
:101A640000305C020A3003195B02031C3A2D3C2D42
:101A740001303D2D0030DD00DE015D084101DB0059
:101A840040015E084101DC005B085C04031D4B2D32
:101A94004C2D162D4001570886008701403FD90080
:101AA400413FDA00590884005A0885000008DB0029
:101AB400DC015B08F6005C08F700A6313A268C319D
:101AC40076084001DD005D084101EB006B08031955
:101AD4006C2D6D2DB02D4001570886008701403FC5
:101AE400D900413FDA000130590784005A0803182D
:101AF4005A0A85000008DB00DC015B08F6005C087C
:101B0400F700A6313A268C3176084001DD005D08E5
:101B14004101EC006C080319902D912DB02D40016A
:101B2400570886008701403FD900413FDA00023060
:101B3400590784005A0803185A0A85000008DB0074
:101B4400DC015B08F6005C08F700A6313A268C310C
:101B540076084001DD005D084101ED0040015708B1
:101B640086008701403FD900413FDA0059088400CC
:101B74005A0885001200643A0319C12DC22DD32DD1
:101B8400570886008701403FD900413FDA005908D1
:101B940084005A0885001200693A031DD22DD32D02
:101BA400212E57088600870101308107413103182F
:101BB400810A5808860087010108840085010230E3
:101BC4008107003FD900013FDA0059084101DF00D5
:101BD40040015A084101E000890D893B8909E1006F
:101BE400E200E300E400E500E6005F084001B00025
:101BF400410160084001B100410161084001B200A7
:101C0400410162084001B300410163084001B4008E
:101C1400410164084001B500410165084001B60076
:101C2400410166084001B70041016F089131FA2172
:101C34008C3140013108D8003008D700FF2F5708F5
:101C440086008701403FF000413FF1009030F200F0
:101C5400A930F3000230F4000030F500993110216E
:101C64008C31700871040319382E392E522E40011C
:101C7400570886008701403FF000413FF10096304D
:101C8400F200A930F3000230F4000030F50099317D
:101C940010218C3170087104031D512E522EAB2E6D
:101CA400400157088600870102308107413103183B
:101CB400810A5808860087010108840085010430E0
:101CC4008107003FD900013FDA00023FDB00033FF8
:101CD400DC0059084101DF0040015A084101E000DD
:101CE40040015B084101E10040015C084101E20060
:101CF4000030E21BFF30E300E400E500E6005F088B
:101D04004001B000410160084001B1004101610897
:101D14004001B200410162084001B300410163087F
:101D24004001B400410164084001B5004101650867
:101D34004001B600410166084001B70041016F0847
:101D44009131FA218C3140013108D8003008D70094
:101D5400FF2F663041016B06031DB12EB22EFD2EFE
:101D64004001570886008701403FD900413FDA000F
:101D7400590884005A0885000008DB005B0841010B
:101D8400EE00400157088600870101308107413188
:101D94000318810A58088600870101088400850118
:101DA40004308107003F4101E700013FE800023FA2
:101DB400E900033FEA006A084001D10041016908D3
:101DC4004001D000410168084001CF00410167088B
:101DD4004001CE0041016E084001D9005908D200EB
:101DE40041016F08803153208C3140014F08D800E5
:101DF4004E08D700FF2FEB30F0000030F100933095
:101E0400F200A930F3000230F4000030F5009931FB
:101E140010218C3170087104031D112F122FA22F71
:101E24004001570886008701403FD900413FDA004E
:101E34000130590784005A0803185A0A850000081B
:101E4400DB005B084101EE00400157088600870172
:101E5400403FD900413FDA00590884005A08850000
:101E64000008BF3EDB00FF3003180030DC00003008
:101E74005C021A3003195B02031C412F432F01300B
:101E8400442F0030DD00DE015D084101DD0040012A
:101E94005E084101DE005D085E040319522F532FD2
:101EA400662F4001580886008701010884008501D7
:101EB40004308107003F4101E700013FE800023F91
:101EC400E900033FEA00782F4001580886008701A3
:101ED40001088400850104308107003F4101E700C7
:101EE400013FE800023FE900033FEA0040015708D0
:101EF400860087010230810741310318810A4101BC
:101F04006A084001D100410169084001D000410143
:101F140068084001CF00410167084001CE0041013B
:101F24006E084001D9005908D20041016F08803180
:101F340053208C3140014F08D8004E08D700FF2FA2
:101F44004001570886008701403FD900413FDA002D
:101F5400590884005A0885001200253A031DB32F3E
:101F6400B42FCF2F570886008701013081074131F4
:101F74000318810A2530F2000030F30041016F0894
:101F84004001D9005908F400A7317B278C31013076
:101F94004001D7000030D800FF2F57088600870182
:101FA4000130810741310318810AD701D801FF2F7D
:101FB400570886008701403FD900413FDA0059089D
:101FC40084005A0885000008DB00DC015B08F2008D
:101FD4005C08F30041016F084001DD005D08F40076
:101FE400A7317B278C3140015708860087010130D7
:101FF400810741310318810AC92F0800F800E03035
:10200400F6007608F200B630F7007708F300780897
:10201400A6315F2690310800430156084001CD00E7
:10202400430155084001CC00430154084001CB0052
:10203400430153084001CA003D08CD003C08CC00D0
:102044003B08CB003A08CA004A08BE004B08BF0050
:102054004C08C0004D08C1001730C136C00CBF0C7D
:10206400BE0C890B2F28FF303E05C20000303F050F
:10207400C3004208813EC800FF30433DC9004908FF
:10208400803ABE0080303E02031D4A2817304802C1
:10209400031C4D284E284F28F8284001C91B5328FB
:1020A4005428B128FF30BE00FF30BF007F30C0008D
:1020B4000030C100480A6228C137C00CBF0CBE0CF6
:1020C400890B5E284108C7004008C6003F08C500C8
:1020D4003E08C4004A084405BE004B084505BF003D
:1020E4004C084605C0004D084705C100410840049E
:1020F4003F043E04031D7F28802881284E284A0877
:10210400BE004B08BF004C08C0004D08C1001F3082
:10211400C136C00CBF0CBE0C890B8A284108400490
:102124003F043E04031997289828A0284408CA07A6
:102134004508CB3D4608CC3D4708CD3D4409BE008B
:102144004509BF004609C0004709C1003E08CA0549
:102154003F08CB054008CC054108CD05F0284A08C6
:10216400BE004B08BF004C08C0004D08C1001F3022
:10217400C136C00CBF0CBE0C890BBA284108400400
:102184003F043E04031DC728C828D1280030CD00D1
:102194000030CC000030CB000030CA00F0284A08E0
:1021A400BE004B08BF004C08C0004D08C100013000
:1021B400BE35BF0DC00DC10D890BDA28410840049E
:1021C4003F043E040319E728E828F028BF30CD0077
:1021D4008030CC000030CB000030CA004D08BD0078
:1021E4004C08BC004B08BB004A08BA000800F201C6
:1021F4002030860000308700473FF000F01F03299D
:10220400042925294001A009A109A209A309A409B7
:10221400A509A609A709A00A031D2329A10A031DCC
:102224002329A20A031D2329A30A031D2329A40A7F
:10223400031D2329A50A031D2329A60A031D2329F7
:10224400A70AF201F20A2830860000308700473FCF
:10225400F000F01F2E292F2952294001A809A909AD
:10226400AA09AB09AC09AD09AE09AF09A80A031D57
:102274004E29A90A031D4E29AA0A031D4E29AB0A99
:10228400031D4E29AC0A031D4E29AD0A031D4E2918
:10229400AE0A031D4E29AF0A0130F0007008F206A1
:1022A40073308600003087000830F00000301E00D4
:1022B400F00B59294001200821042204230424049A
:1022C400250426042704031968296929C529F1016D
:1022D400F10A7829A035A10DA20DA30DA40DA50D19
:1022E400A60DA70D0130F0007008F107A71F7B2988
:1022F4007C296C29F335F40DF50DF60DF70DF80D69
:10230400F90DFA0D27082F02031DA22926082E0213
:10231400031DA22925082D02031DA22924082C022D
:10232400031DA22923082B02031DA22922082A0225
:10233400031DA22921082902031DA229200828021D
:10234400031CA529A629B7292008A8022108A93B0E
:102354002208AA3B2308AB3B2408AC3B2508AD3B31
:102364002608AE3B2708AF3B7314A736A60CA50C72
:10237400A40CA30CA20CA10CA00C0130F102031DAF
:10238400C429C5297C2972080319C929CA29E8293D
:10239400F309F409F509F609F709F809F909FA093D
:1023A400F30A031DE829F40A031DE829F50A031DAD
:1023B400E829F60A031DE829F70A031DE829F80AA3
:1023C400031DE829F90A031DE829FA0A73084001E4
:1023D400A0007408A1007508A2007608A30077087D
:1023E400A4007808A5007908A6007A08A7000800C8
:1023F4004001BF003008C4003108C5003208C600DF
:102404003308C7003408C8003508C9003608CA00B4
:102414003708CB004430860000308700473FB800BF
:10242400B81B152A172A0130182A00304001B900B8
:10243400BA013908C2003A08C30042084304031928
:10244400242A252A432AC409C509C609C709C80973
:10245400C909CA09CB09C40A031D432AC50A031DB5
:10246400432AC60A031D432AC70A031D432AC80A6E
:10247400031D432AC90A031D432ACA0A031D432A0A
:10248400CB0A4201E91B472A482A4C2AFD30EA05B7
:10249400FF30EB056908803A4001B800803038020B
:1024A400031D572A01304201680203185A2A5B2A85
:1024B400612A01304001BD000030BE00692A42019A
:1024C40069084001BE00420168084001BD004201A4
:1024D40067084001C100420166084001C00042088B
:1024E4004304031D762A772A7C2A42016A1D7B2A2B
:1024F4007C2A812AFF304001C007FF30C13D4F30A4
:102504004001CC000030CD004401EF01F22AFF303D
:102514004001CC07FF30CD3D0A30A000A101A2014B
:10252400A301A401A501A601A7014408A800450828
:10253400A9004608AA004708AB004808AC004908AF
:10254400AD004A08AE004B08AF009F311627913109
:1025540040012108F4002008F300A5314025913101
:102564007308303E4001B8004C08203E860002301B
:10257400870038088100FF30BD07FF30BE3DFF30C3
:10258400C007FF30C13D0A30A000A101A201A30190
:10259400A401A501A601A7014408A8004508A900B3
:1025A4004608AA004708AB004808AC004908AD003B
:1025B4004A08AE004B08AF009031F9209131400138
:1025C4002008C4002108C5002208C6002308C7004B
:1025D4002408C8002508C9002608CA002708CB001B
:1025E40040014D08803AB80080303802031DFC2AAF
:1025F40001304C02031CFF2A002B2D2B4001440800
:10260400450446044704480449044A044B04031D92
:102614000C2B0D2B892A3E08803AB80080303802F2
:10262400031D162B01303D020318192B1A2B892A7E
:1026340040014108803AB80080303802031D242B41
:1026440001304002031C272B282B2D2B4201EA18B2
:102654002C2B2D2B892A400142084304031D332BC4
:10266400342B392B42016A1D382B392B562BFF3062
:102674004001CC07FF30CD3D42084304031D432BEA
:10268400442B492B2B30BB000030BC004D2B2D308C
:10269400BB000030BC003B08B8004C08203E86005C
:1026A400023087003808810040014C08203EB80001
:1026B4003808A4004108A6004008A5003F08983146
:1026C400B720913140012508B1002408B00008006A
:1026D400730880394001A0002008F8007335A00079
:1026E4002008FA00F21F772B782B792B7A147A08BA
:1026F40003197D2B7E2B8E2B7A0A031D822B832BB1
:102704008B2B0030F3000030F2000030F100003079
:10271400F000F217F301962B0030F3000030F200C2
:102724000030F1000030F00077088039A000200864
:10273400F900790878060319A02BA12BA22B78178E
:102744007735A0002008F900F61FA92BAA2BAB2B84
:10275400791479080319AF2BB02BC02B790A031D08
:10276400B42BB52BBD2B0030F7000030F600003041
:10277400F5000030F400F617F701C82B0030F7001D
:102784000030F6000030F5000030F4007A087902D9
:102794000318CD2BCE2B122C781FD12BD22BD62B5A
:1027A4008030A0002008F8067A08A0002008FB006A
:1027B4007908A0002008FA007B08A0002008F9008E
:1027C4007008A0002008FB007408A0002008F00096
:1027D4007B08A0002008F4007108A0002008FB007A
:1027E4007508A0002008F1007B08A0002008F5006F
:1027F4007208A0002008FB007608A0002008F20060
:102804007B08A0002008F6007308A0002008FB0045
:102814007708A0002008F3007B08A0002008F70038
:10282400FB017908A000A1012108A3007A08200275
:10283400A200031CA3032308803AA40080302402CE
:10284400031D262C1A302202031C292C2A2C642C4A
:102854007308720471047004031D312C332C01308D
:10286400342C00304001A0002008FB000030F300AD
:102874000030F2000030F1000030F0007908A000D0
:102884002008FA006A2C7B1C482C492C502C7B36DF
:1028940001384001A0002008FB00522C0310FB0C5F
:1028A400701C552C562C572CFB1701304001A000EE
:1028B400F337F20CF10CF00CA00B5A2C0130A000F1
:1028C4002008FA0779087A02031C692C6A2C452C23
:1028D400781B6D2C6E2CA82C7A08031D722C732C7B
:1028E4007C2C0030F3000030F2000030F1000030A6
:1028F400F000A82D7408F0077508F13D7608F23D44
:102904007708F33D731C872C882C352D7B1C8B2C6E
:102914008C2C932C7B3601384001A0002008FB004E
:10292400952C0310FB0C701C982C992C9A2CFB17DB
:1029340001304001A000F337F20CF10CF00CA00BB5
:102944009D2C0130A0002008FA07352D7308803A29
:102954004001A0007708803A2002031DBB2C7608B2
:102964007202031DBB2C75087102031DBB2C740875
:1029740070020318BE2CBF2CF72CFF30A000FF30D0
:10298400A100FF30A200FF30A30070087402A4006D
:102994007108753BA5007208763BA6007308773B67
:1029A400A7002408A0072508A13D2608A23D270862
:1029B400A33D2308F3002208F2002108F1002008B7
:1029C400F0008030A0002008F806FB09FB0A7B0811
:1029D400031DED2CEE2CFF2C0130F0070030F13DEF
:1029E4000030F23D0030F33DFF2C7408F00275080E
:1029F400F13B7608F23B7708F33B730872047104E9
:102A04007004031D062D072D312D7B08031D0B2D8E
:102A14000C2D312D0030F3000030F2000030F100B5
:102A24000030F000A82D0130F035F10DF20DF30D5A
:102A3400890B162DFB1F1F2D202D212D70147B1C9F
:102A4400242D252D282D0314FB0D2A2D0310FB0DF9
:102A54007A0803192E2D2F2D312D0130FA02F21F81
:102A6400342D352D152DF901FB1F392D3A2D482D07
:102A74007B087F3903193F2D402D432DF901F90AB5
:102A8400482D701C462D472D482D402D79080319DB
:102A94004C2D4D2D7B2D0130F0070030F13D0030E1
:102AA400F23D0030F33D731C582D592D7B2D7008D9
:102AB4004001A0007108A1007208A2007308A300DD
:102AC4000130A400A337A20CA10CA00CA40B642D0C
:102AD4002308F3002208F2002108F1002008F00086
:102AE4007A0A0319762D772D7B2D0130A00020085A
:102AF400FA077A0A03197F2D802D852D7A08031D84
:102B0400842D852D932D0030F3000030F200003029
:102B1400F1000030F0007A08031D912D922D932DC1
:102B2400F8017A1C962D972D992DF2179E2D7F3042
:102B34004001A0002008F2057A364001A0002008D8
:102B4400F300F81FA62DA72DA82DF31708004001A8
:102B540023088039F9007908A8002335F900790899
:102B6400AE00A21FB62DB72DB82D2E142E080319B2
:102B7400BC2DBD2DCC2D2E0A031DC12DC22DCA2D59
:102B84000030A3000030A2000030A1000030A000FB
:102B9400A217D42D0030A3000030A2000030A10001
:102BA4000030A00027088039F9007908A8062735E5
:102BB400F9007908AD00A61FE02DE12DE22D2D14BA
:102BC4002D080319E62DE72DF62D2D0A031DEB2DF7
:102BD400EC2DF42D0030A7000030A6000030A50035
:102BE4000030A400A617FE2D0030A7000030A60078
:102BF4000030A5000030A4002D080319022E032E76
:102C0400082E2E08031D072E082E112E0030A300B7
:102C14000030A2000030A1000030A000FF2F2008E7
:102C2400F9007908F0002608A631172695317108B5
:102C34004001B4007008B3003308F900FA01FB0145
:102C4400FC017C08AC007B08AB007A08AA00790878
:102C5400A9003408F900FA01FB01FC017C08B20068
:102C64007B08B1007A08B0007908AF002108F900A8
:102C74007908F0002508A63117269531710840011E
:102C8400B4007008B3003308F900FA01FB01FC0139
:102C94007908A9077A08AA3D7B08AB3D7C08AC3DBE
:102CA4003408F900FA01FB01FC017908AF077A083E
:102CB400B03D7B08B13D7C08B23D2208F90079089B
:102CC400F0002408A6311726953171084001B4009C
:102CD4007008B3003308F900FA01FB01FC0179081C
:102CE400A9077A08AA3D7B08AB3D7C08AC3D3408B3
:102CF400F900FA01FB01FC017908AF077A08B03D3D
:102D04007B08B13D7C08B23D0830A935AA0DAB0D56
:102D1400AC0D890B872E2108F9007908F0002408EE
:102D2400A6311726953171084001B4007008B3002C
:102D34003308A9073408AA3D0030AB3DAC3D200858
:102D4400F9007908F0002508A63117269531710895
:102D54004001B4007008B3003308A9073408AA3D41
:102D64000030AB3DAC3D0830A935AA0DAB0DAC0D20
:102D7400890BB62E2008F9007908F0002408A63142
:102D84001726953171084001B4007008B300330868
:102D9400A9073408AA3D0030AB3DAC3D2108F90039
:102DA4007908F0002608A6311726953171084001EC
:102DB400B4007008B3003308AF073408B03D0030E6
:102DC400B13DB23D2208F9007908F0002508A6318A
:102DD4001726953171084001B4007008B300330818
:102DE400AF073408B03D0030B13DB23D2208F900D0
:102DF4007908F0002608A63117269531710840019C
:102E0400B4007008B3003308F9003408FA00FB0179
:102E1400FC010830F935FA0DFB0DFC0D890B0C2F64
:102E24007908AF077A08B03D7B08B13D7C08B23D14
:102E34002908F9002A08FA002B08FB002C08FC00DA
:102E44001830FC36FB0CFA0CF90C890B232F79088B
:102E5400AF077A08B03D7B08B13D7C08B23D08302D
:102E6400A935AA0DAB0DAC0D890B322F2E082D07F9
:102E7400F900FA01FA0D7908823EB300FF307A3D79
:102E8400B4005B2F0130AF35B00DB10DB20D890B1D
:102E9400452FAC1F4E2F4F2F502F2F140130A93523
:102EA400AA0DAB0DAC0D890B512FFF30B307FF30CA
:102EB400B43DB11F5E2F5F2F442FAD01AC1F632FB4
:102EC400642F802FFF302905F900FF302A05FA000E
:102ED400FF302B05FB007F302C05FC007C087B04B5
:102EE4007A0479040319772F782F7B2FAD01AD0A6B
:102EF400802F2F1C7E2F7F2F802F782F2D080319D2
:102F0400842F852FAD2F0130AF070030B03D003046
:102F1400B13D0030B23D321C902F912FAD2F2F08C0
:102F2400F9003008FA003108FB003208FC000130D7
:102F3400FD00FC37FB0CFA0CF90CFD0B9B2F7C08F5
:102F4400B2007B08B1007A08B0007908AF00013004
:102F5400B3070030B43D3408803AF9008030790278
:102F6400031DB62FFF303302031CB92FBA2FC42F11
:102F74007F304001B2008030B1000030B00000303A
:102F8400AF00F32F40013408803AF9008030790211
:102F9400031DCE2F013033020318D12FD22FDD2F82
:102FA40000304001B2000030B1000030B000003009
:102FB400AF00A801F32F40013308F9007908AE00EF
:102FC400FF30AF05FF30B0057F30B1050030B205EA
:102FD4002E1CED2FEE2FEF2FB1172E36F9007908A6
:102FE400B2002808F9007908B2043208A3003108B5
:0C2FF400A2003008A1002F08A000080077
:103002007008BF3EF200FF30713DF30000307302E2
:103012001A3003197202031C0F28112801301228DA
:103022000030F400F5017408F0007508F1000800A2
:1030320040019C019B01980199019A010F30960071
:10304200FF309200FF309300FA309400FF30950079
:10305200FF307E01D900AD30CE00FF30C300073013
:10306200E400FF30B800DA01E5010430C400B90120
:10307200D830CF00E601BA01C501D001DB01FF3033
:10308200BB00FF30C600FF30D100FF30DC0007304C
:10309200E700FF30BC00FF30C700FF30D200FF3036
:1030A200DD000F30E80014307D01C50015307E01CF
:1030B200A4000F30A2001630A60016307D01C60013
:1030C2001130CB000800F601F31F68286928702828
:1030D200F209F309F20A0319F30AF601F60AF11FDB
:1030E200732874287928F009F109F00A0319F10A02
:1030F2007008710403197E287F28A828F501F50AB3
:103102008B280130F035F10D890B83280130F40052
:103112007408F507F11F8E288F2882287108730220
:10312200031D952870087202031C982899289D286F
:103132007008F2027108F33B0130F136F00C890B92
:103142009E280130F502031DA728A8288F2876089B
:103152000319AC28AD28B228F209F309F20A0319BF
:10316200F30A7308F1007208F00008004001AC0095
:1031720042016A1CBD28BE28C72840012C08A700AE
:103182002708FA002408A631852698314001A61B9B
:10319200CB28CC28D1282608AB002508AA00D328A2
:1031A200AA01AB01A801A901E7282030F2000030F2
:1031B200F30040012C08A7002708F400A7317B2761
:1031C200983101304001A8070030A93D2908803A12
:1031D200A7002B08803A2702031DF1282A0828029B
:1031E200031CF428F528D62842016A18F928FA287F
:1031F200032940012C08A7002708FA002408A63159
:103202008526983140012408A5315A25983140017C
:103212002A087007A4002B08713DA5000800710858
:10322200F8007008F7007308FA007208F90001301C
:10323200F4020030F53B740A031D2329750A031DAD
:10324200232924293329F001F1016B290130F707E1
:103252000030F83D0130F9070030FA3D0130F40248
:103262000030F53B770884007808850012000319C6
:103272003B293C295B29790884007A0885001200E1
:103282000319442945295B297408750403194A293D
:103292004B295B29790884007A0885000008F6002A
:1032A20077088400780885000008760603195A29F1
:1032B2005B29272977088400780885000008F60032
:1032C200790884007A08850000087602F000F1018E
:1032D200031CF10308004001AC000030A5000030DF
:1032E200A6000030A700F430A0002008F20034301D
:1032F200A1002108F3002C08A6315F26993106307F
:103302004001A000D730890B8429A00B8429F63014
:103312004001A0002008F2002530A1002108F3009E
:103322000330A2002208F4002C089A312822993195
:1033320040012708A000A10120082507A8002108B4
:10334200263DA900AA01A91BAA032A08AB00280846
:10335200A0002908A1002A08A2002B08A300063019
:10336200A400A337A20CA10CA00CA40BB229230821
:10337200AB002208AA002108A9002008A8002B08F7
:10338200FD002A08FC002908FB002808FA000800B2
:10339200F601F11FCD29CE29D529F009F109F00A4C
:1033A2000319F10AF601F60AF31FD829D929E229ED
:1033B200F209F309F20A0319F30A0130F40074085E
:1033C200F606F701F801700871040319E929EA29E0
:1033D200192AF501F50AF6290130F035F10D890BAC
:1033E200EE290130F4007408F507F11FF929FA29D2
:1033F200ED290130F735F80D890BFB2971087302AD
:10340200031D052A70087202031C082A092A0E2AC3
:103412007008F2027108F33B77140130F136F00CB8
:10342200890B0F2A0130F502031D182A192AFA29DD
:10343200760803191D2A1E2A232AF709F809F70A12
:103442000319F80A7808F1007708F0000800F9007B
:10345200F801F80A3D2AA43187249A31F00179084B
:103462008600013087000108A431E8249A31003037
:103472004301111B0130F8007808031D412A422A3A
:103482002C2A7208A431DC249A31F801F80A5B2A4A
:10349200A43187249A31F001F00A790886000130BC
:1034A20087000108A431E8249A3100304301111B3E
:1034B2000130F8007808031D5F2A602A492AF701C3
:1034C200752AA431D0249A31F50077087307F600E3
:1034D20076088600870175088100A431AF249A31ED
:1034E2000130F5007508F7077408FF3EF500FF305C
:1034F20003180030F6007608803A803C031D832AC8
:1035020075087702031C862A872A622AA431D024EE
:103512009A31F50074087307F6007608FF3E8600BC
:10352200870175088100A431BA249A31A43191240B
:103532009A3108000310720D730DF4007408FA003A
:103542007A08031DA52AA62AAF2A0030F30000300C
:10355200F2000030F1000030F0000E2B7008F40091
:103562007108F5007208F6007308F7001F30F7368D
:10357200F60CF50CF40C890BB82A7408F8007808DC
:10358200F900F217FF30F005FF30F105FF30F205C8
:103592000030F3059630FA02FA1FD02AD12AE92A1E
:1035A2007A08803A973E0318D72AD82AD92AA62A17
:1035B2000130F336F20CF10CF00C890BDA2A0130EF
:1035C200F4007408FA07031DE72AE82AD92AFE2A1A
:1035D20020307A02031CEE2AEF2AF92AA62A0130A9
:1035E200F035F10DF20DF30D890BF12A0130FA02DB
:1035F2007A08031DFD2AFE2AF02A79080319022BF4
:10360200032B0E2BF009F109F209F309F00A031951
:10361200F10A0319F20A0319F30A080043015A08CE
:103622004001A500430159084001A4004301580884
:103632004001A300430157084001A2007308A500FE
:103642007208A4007108A3007008A2002208F40006
:103652002308F5002408F6002508F7001730F7368E
:10366200F60CF50CF40C890B302BFF307405A0001E
:1036720000307505A10020082104031D412B422BB7
:10368200632B2208F4002308F5002408F60025081D
:10369200F7000130F435F50DF60DF70D890B4B2BC4
:1036A2007708760475047404031D582B592B5E2B7E
:1036B2000230F0000030F1008D2B0330F0000030BA
:1036C200F1008D2B200A2104031D682B692B892B05
:1036D2002208F4002308F5002408F6002508F70064
:1036E2000930F435F50DF60DF70D890B722B7708BD
:1036F20076047504740403197F2B812B0130822B0D
:103702000030F800F9017808F0007908F1008D2BFB
:103712000430F0000030F10008004001B600203013
:103722008600003087001630FA0000301E00FA0BC7
:10373200972BAA30FA007A08F2002030FB007B08AF
:10374200F3001630FC007C08F40036089A31282277
:103752009B3140013608033E860001308700210874
:10376200C03F2008C13F3608053E86000130870071
:103772002308C03F2208C13F3608073E86000130B9
:1037820087002508C03F2408C13F3608093E86004D
:10379200013087002708C03F2608C13F36080B3E8C
:1037A2008600013087002908C03F2808C13F36083B
:1037B2000D3E8600013087002B08C03F2A08C13F1A
:1037C20036080F3E8600013087002D08C03F2C08C6
:1037D200C13F3608113E8600013087002F08C03FE6
:1037E2002E08C13F3608133E86000130870031089B
:1037F200C03F3008C13F3608153E860001308700C1
:103802003308C03F3208C13F3608173E86000130F8
:1038120087003508C03F3408C13F0800003040012E
:103822003505BD0000303605BE0080303705BF00CB
:103832007F303805C00040083F043E043D04031DAC
:10384200232C242C2C2C0030B8000030B700003080
:10385200B6000030B50000303905BD0000303A0531
:10386200BE0080303B05BF007F303C05C0004008F1
:103872003F043E043D04031D3F2C402C482C0030E5
:10388200BC000030BB000030BA000030B900B81FE5
:103892004B2C4C2C642C0030BD000030BE0000309C
:1038A200BF008030C0003508BD023608BE3B370875
:1038B200BF3B3808C03B4008B8003F08B7003E088D
:1038C200B6003D08B500BC1F672C682C802C003068
:1038D200BD000030BE000030BF008030C00039089B
:1038E200BD023A08BE3B3B08BF3B3C08C03B400818
:1038F200BC003F08BB003E08BA003D08B90080305A
:10390200B8068030BC063C083802031D922C3B08E6
:103912003702031D922C3A083602031D922C3908F5
:1039220035020318952C962C982C0310992C03140D
:1039320008004001A901A31F9F2CA02CAD2CA009B7
:10394200A109A209A309A00A0319A10A0319A20A3B
:103952000319A30AA901A90AA71FB02CB12CC02CD4
:10396200A409A509A609A709A40A0319A50A031906
:10397200A60A0319A70A0130FC007C08A906003038
:10398200AD000030AC000030AB000030AA002308CC
:103992002204210420040319CF2CD02C112DA801BC
:1039A200A80ADE2C0130A035A10DA20DA30D890BB2
:1039B200D42C0130FC007C08A807A31FE12CE22CC8
:1039C200D32C0130AA35AB0DAC0DAD0D890BE32C18
:1039D20023082702031DF72C22082602031DF72CB9
:1039E20021082502031DF72C20082402031CFA2CAF
:1039F200FB2C042D2008A4022108A53B2208A63B8B
:103A02002308A73B2A140130A336A20CA10CA00C58
:103A1200890B052D0130A802031D102D112DE22C5A
:103A220029080319152D162D212DAA09AB09AC0958
:103A3200AD09AA0A0319AB0A0319AC0A0319AD0AA4
:103A42002D08A3002C08A2002B08A1002A08A00020
:103A52000800A431F5249D3177304201C1004108AC
:103A6200CB00CD01A4316F249D314B30A53105250A
:103A72009D3147304201C1004108A0004330C200DD
:103A82004208A1004B308931B6219D314F304001AF
:103A9200E700A830E80042014A084001EC00420178
:103AA20049084001EB00420148084001EA00420196
:103AB20047084001E900A53116259D3140011A143D
:103AC20047304201C1004108A0004330C200420811
:103AD200A1004B308931B6219D314F304001E700C2
:103AE200A830E80042014A084001EC0042014908BE
:103AF2004001EB00420148084001EA004201470848
:103B02004001E900A53116259D3106304201C2006F
:103B12001330C100AD30890B8C2DC10B8C2DC20B23
:103B22008C2D00323A304001E700A830E800420113
:103B320046084001EC00420145084001EB00420109
:103B420044084001EA00420143084001E900A5316E
:103B520016259D3106304201C2001330C100AD303E
:103B6200890BB12DC10BB12DC20BB12D0032612DCC
:103B720080310228F80078080319C02DC12DD52DF7
:103B8200F31FC42DC52DD52D7009FA007109FB0054
:103B92007209FC007309FD00FA0A0319FB0A0319F2
:103BA200FC0A0319FD0ADD2D7308FD007208FC00F2
:103BB2007108FB007008FA00730872047104700443
:103BC200031DE42DE52DEE2D0030F3000030F20050
:103BD2000030F1000030F000662E9630F4007408D8
:103BE200F900FE2D0130F4007408F9070130FD36AA
:103BF200FC0CFB0CFA0C890BF82DFE307D05031D25
:103C0200032E042EF32D182E0130F4007408F90748
:103C12000130FA070030FB3D0030FC3D0030FD3D35
:103C22000130FD36FC0CFB0CFA0C890B122EFF3016
:103C32007D05031D1D2E1E2E052E282E0130F90294
:103C42000130FA35FB0DFC0DFD0D890B222EFC1BFC
:103C52002B2E2C2E322E023079020318312E322EC8
:103C62001F2E7918352E362E3E2EFF30FA05FF30E4
:103C7200FB057F30FC05FF30FD050310F90C7908C8
:103C8200F400F501F601F7011830F435F50DF60DE3
:103C9200F70D890B462E7408FA047508FB047608A2
:103CA200FC047708FD0478080319582E592E5E2E5D
:103CB200F31F5C2E5D2E5E2EFD177D08F3007C083F
:103CC200F2007B08F1007A08F00008004001A70129
:103CD200A801A001A101712E0130F6070030F73DC5
:103CE200A601A60A76088400770885001200203A09
:103CF20003197C2E7D2E922E76088400770885008B
:103D02000008F73EF800FF3003180030F9000030D9
:103D12007902053003197802031C902E912E922EFF
:103D2200A6012608F800F9017808A2007908A30084
:103D320022082304031D9E2E9F2E6D2EA92E0130D4
:103D4200A0000030A1000130F6070030F73DDD2E63
:103D520076088400770885000008F800F9017908E0
:103D6200003A0319B52EDD2E78082B3A0319A42E3A
:103D7200063A0319A02EDD2E760884007708850006
:103D82000008F8002808F1002708F0000A30F200C5
:103D92000030F300A53174259E317108FA007808CD
:103DA2007002F900031CFA037908303E4001A700B3
:103DB20000307A3DA800A42E76088400770885009A
:103DC2000008D03EF800FF3003180030F900003040
:103DD20079020A3003197802031CF02EF22E013008
:103DE200F32E0030FA00FB017A08A4007B08A5003C
:103DF20024082504031DFE2EFF2EBD2E20082104BB
:103E0200031D042F052F112F2709F8002809F90097
:103E1200F80A0319F90A7808F6007908F700152F4D
:103E22002808F7002708F6000800F201283086006B
:103E320000308700473FF000F01F202F212F422F34
:103E42004001A809A909AA09AB09AC09AD09AE0943
:103E5200AF09A80A031D402FA90A031D402FAA0A71
:103E6200031D402FAB0A031D402FAC0A031D402F38
:103E7200AD0A031D402FAE0A031D402FAF0AF20107
:103E8200F20A2030860000308700473FF000F01F22
:103E92004B2F4C2F6B2F4001A009A109A209A309A6
:103EA200A409A509A609A709A00A031D6B2FA10A47
:103EB200031D6B2FA20A031D6B2FA30A031D6B2F79
:103EC200A40A031D6B2FA50A031D6B2FA60A031D4F
:103ED2006B2FA70A40012008210422042304240492
:103EE2002504260427040319772F782FCB2FF101FD
:103EF200F10A872FA035A10DA20DA30DA40DA50DCA
:103F0200A60DA70D0130F0007008F107A71F8A2F38
:103F12008B2F7B2F27082F02031DA92F26082E0285
:103F2200031DA92F25082D02031DA92F24082C02E9
:103F3200031DA92F23082B02031DA92F22082A02E1
:103F4200031DA92F21082902031DA92F20082802D9
:103F5200031CAC2FAD2FBD2F2008A8022108A93BBE
:103F62002208AA3B2308AB3B2408AC3B2508AD3B07
:103F72002608AE3B2708AF3BA736A60CA50CA40C1F
:103F8200A30CA20CA10CA00C0130F102031DCA2F3C
:103F9200CB2F8B2F72080319CF2FD02FEE2FA8090A
:103FA200A909AA09AB09AC09AD09AE09AF09A80A6A
:103FB200031DEE2FA90A031DEE2FAA0A031DEE2FE1
:103FC200AB0A031DEE2FAC0A031DEE2FAD0A031D33
:103FD200EE2FAE0A031DEE2FAF0A40012808A00003
:103FE2002908A1002A08A2002B08A3002C08A4007B
:0E3FF2002D08A5002E08A6002F08A700080025
:1048A200F1007108A4319B24A4310800710843016E
:1048B200DF007008DE00080071084301E3007008A1
:1048C200E200080071084301E1007008E0000800FE
:1048D200640080010131890B6A2C00344301100805
:1048E200F03908389000901608004F0196019701A0
:1048F200980199019A019B01080043018F01083038
:104902009000910109308D00901208004E010F10A5
:10491200430111144E010F1C8F2C902C8B2C08007C
:104922004E010F10430111154E010F1C992C9A2CA8
:10493200952C0800F0004E010F1EA02CA12C9C2CDF
:10494200700842019A000800603051018D008F0109
:104952009101023093009001920108004E010F1064
:104962004301911211164E010F1CB82CB92CB42C14
:1049720008004E010F104301911611164E010F1C33
:10498200C32CC42CBF2C0800730872047104700479
:104992000319CC2CCD2CCF2C8030F30608004E010D
:1049A2000F10430191154E010F1CD82CD92CD42C79
:1049B20043010C080800F0004E010F10700843017B
:1049C2008C004E010F1CE62CE72CE22C0800F100B3
:1049D2004E010F107135700743018C004E010F1C00
:1049E200F32CF42CEF2C0800A4317624A431A4314A
:1049F2007E24A43198311920A431A431A524A431F4
:104A0200A531F525A43108004001EF006F0890316F
:104A12000020A53140016F08A631AE26A531400124
:104A22006F089B318E23A531080069304001ED00EB
:104A32006D08EE006808E0006708DF006E30ED00E8
:104A42006D08E1000030A631D826A53108007008B3
:104A5200D03EF200FF30713DF300003073020A30A5
:104A620003197202031C362D382D0130392D003006
:104A7200F400F5017408F0007508F10008007408EC
:104A8200803AF50080307502031D492D0130730212
:104A920003184C2D4D2D592D7309F5007409F6009C
:104AA200F50A0319F60A7508F3007608F400592D81
:104AB2000800F4007408F2007208F300642D01305B
:104AC200F2007208F40774088600023087000108B9
:104AD200031D6C2D6D2D602D73087402F000F10121
:104AE200F01BF1030800F401F501701C792D7A2DF9
:104AF2007E2D7208F4077308F53D0130F235F30D8F
:104B0200890B7F2D0130F136F00C890B842D700852
:104B12007104031D8D2D8E2D762D7508F1007408FC
:104B2200F000080080304001B8063C08F3003B0862
:104B3200F2003A08F1003908F0003808F7003708A7
:104B4200F6003608F5003508F40093316A23A531E2
:104B520073084001B8007208B7007108B600700807
:104B6200B5000800F401F40A20307006710403193C
:104B7200BB2DBC2DCC2D7008F73EF200FF30713DED
:104B8200F30000307302053003197202031CCA2DB0
:104B9200CB2DCC2DF4017408F200F3017208F00061
:104BA2007308F1000800F7007108F5007008F400BE
:104BB2007708F2007208F600760886000230870055
:104BC200F60A7508F3007408F200F40A0319F50AEC
:104BD20072088400730885000008C03F8908031D1D
:104BE200F32DF42DDD2D0800083042019F00903096
:104BF2009D0024309E0067309B009C010030F00035
:104C02000030F100A4315D24A5310030F000003005
:104C1200F100A4316324A5310030F0000030F1002E
:104C2200A4315724A5314201EE010800F800F40135
:104C3200F5017008F200F3017208F6007308F7003C
:104C4200781C242E252E292E7608F4077708F53DA8
:104C52000130F635F70D890B2A2E0310F80C78086F
:104C6200031D342E352E212E7508F1007408F00034
:104C720008007608BF3EF800FF30773DF9000030AB
:104C820079021A3003197802031C482E4A2E013089
:104C92004B2E0030FA00FB017A08FC007B08FD0075
:104CA2007C087D040319562E572E5E2E2030760482
:104CB200F60000307704F7005E2E0800F500F401DC
:104CC200F40A742EA4318724A631F00175088600F7
:104CD200013087000108A431E824A63100304301E5
:104CE200111B0130F4007408031D782E792E632EF7
:104CF2007208A431DC24A6317308A431DC24A63165
:104D0200A4319124A63108004001A300A101A2010F
:104D12009D2E2008FB00FC017B08F2007C08F300BA
:104D22007A08FD007D08F400A7317B27A631013007
:104D32004001A1070030A23D21082307FB007B08A8
:104D42008600023087000108FC007C08A0002008D1
:104D5200031DAC2EAD2E8A2E08004201A200D030D7
:104D6200A0002008F2002208A731BA27A63142018A
:104D7200A1002108A3002308A000220A8600013016
:104D820087002008810053304001E700A930E80085
:104D920042012308A000A10120084001E9004201CC
:104DA20021084001EA00A5311625A631080040017C
:104DB200E4006008E6005F08E5004201E401E50165
:104DC200F62E6530E2006208D7006108E30063084E
:104DD200D80064088C314524A631400157084201AD
:104DE200E407400158084201E53D4001650884009E
:104DF200660885001200031DFF2E002FE22E4201DD
:104E020065084001E000420164084001DF0008003B
:104E12000030FB000030FA000030F9000030F800EA
:104E2200701C142F152F1D2F7408F8077508F93DF3
:104E32007608FA3D7708FB3D0130F435F50DF60DA5
:104E4200F70D890B1E2F0130F336F20CF10CF00C2A
:104E5200890B252F7308720471047004031D322F0D
:104E6200332F112F7B08F3007A08F2007908F10042
:104E72007808F00008004001A700A501A601F4305F
:104E8200A0002008F2002E30A1002108F30027081C
:104E9200A6315F26A73107304001A0007D30890B83
:104EA200502FA00B502FF6304001A0002008F20036
:104EB2002530A1002108F3000230A2002208F400EC
:104EC20027089A312822A73140012608A000A10113
:104ED2002508A200A3012208A300A201200822079C
:104EE200FA002108233DFB00FC01FB1BFC037C08AC
:104EF200FD000800740803197F2F802F852F740886
:104F0200031D842F852F8A2F7208A4315124A731C3
:104F1200B92F7408033E86008701160001040319A5
:104F2200932F942FB12F7408033E86008701403FD0
:104F3200F500413FF600740A86008701403FF70002
:104F4200413FF8007808803AF9007608803A790201
:104F5200031DAD2F750877020318B02FB12FB92F9B
:104F6200740A860087010130810741310318810AE2
:104F72000800F500F601F60ACF2FA4318724A731E5
:104F8200F00175088600013087000108A431E82489
:104F9200A73100304301111B0130F6007608031DD2
:104FA200D32FD42FBE2F7208A431DC24A731F601EF
:104FB200F60AED2FA4318724A731F001F00A750813
:104FC2008600013087000108A431E824A7310030AF
:104FD2004301111B0130F6007608031DF12FF22F59
:104FE200DB2FA431D024A731F3007308F400A431DD
:104FF200BA24A731A4319124A731740808000034DF
:1050020000340034003400340034003400340034FE
:1050120000340034003400340034003400340034EE
:1050220000340034003400340034003400340034DE
:10503200003400340034003400340034003444348A
:1050420065347634693463346534203441346434ED
:105052006434723465347334733420346E346F3490
:105062007434203466346F3475346E3464340A34E4
:10507200003442344D343134333438343334203410
:10508200703472346534733473343A3420342534D2
:1050920030342E34323466340A34003442344D34DF
:1050A20031343334383433342034743465346D3429
:1050B20070343A342034253430342E343234663469
:1050C2000A340034443465347634693463346534E4
:1050D2002034413464346434723465347334733448
:1050E2003A342034253464340A3400340A344234E5
:1050F2004D3450343134383430345F3441344334F5
:1051020031343A342034253464340A34003442349D
:105112004D3450343134383430345F3441344334D4
:1051220032343A342034253464340A34003442347C
:105132004D3450343134383430345F3441344334B4
:1051420033343A342034253464340A34003442345B
:105152004D3450343134383430345F344134433494
:1051620034343A342034253464340A34003442343A
:105172004D3450343134383430345F344134433474
:1051820035343A342034253464340A340034423419
:105192004D3450343134383430345F344134433454
:1051A20036343A342034253464340A3400344234F8
:1051B2004D3450343134383430345F34583431342F
:1051C2003A34203425346C3464340A3400344234A2
:1051D2004D3450343134383430345F34583432340E
:1051E2003A34203425346C3464340A340034423482
:1051F2004D3450343134383430345F3455345034D3
:105202003A34203425346C3464340A340034423461
:105212004D3450343134383430345F3442343134E4
:105222003A342034253464340A34003442344D3460
:1052320050343134383430345F34423432343A34D6
:105242002034253464340A34003442344D3450342A
:105252003134383430345F34423435343A342034E3
:10526200253464340A34003442344D3450343134F9
:10527200383430345F344D3442343A3420342534B7
:1052820064340A34003442344D34503431343834C6
:1052920030345F344D3443343A342034253464346A
:1052A2000A34003442344D345034313438343034DA
:1052B2002034493444343A342034253464340A34B2
:1052C200003442344D3450343134383430345F3465
:1052D2004D3444343A342034253464340A340034AE
:1052E20042344D3450343134383430345F345534F0
:1052F20054343A342034253464340A340034493482
:105302004E34463400344E3441344E340034693421
:105312006E34663400346E3461346E3400346C346E
:10532200643400346C34663400346C3469340034D0
:020000040001F9
:0A000E00EC3FFF3F9F3FFF1FFF3F45
:00000001FF
