:020000040000FA
:08000000803102288731F52F41
:100CDC00713086319D268631080071084001D5009F
:100CEC007008D400080071084001D9007008D800C1
:100CFC00080071084001D7007008D6000800640095
:100D0C0080010131890B862E00344F019601970129
:100D1C00980199019A019B010800623051018D00E4
:100D2C008F01910102309300900192010800F000B4
:100D3C004E010F1EA22EA32E9E2E700842019A0069
:100D4C00080086318B26863187313C2786318631E7
:100D5C00932686318631F2268631080052304001C6
:100D6C00D2005208D3005108CB005008CA005330AF
:100D7C00D2005208CC00003087311427863108008D
:100D8C008631A726863100304001D0008830D10052
:100D9C008631B42686310B30F1008830F200863172
:100DAC00DB268631D82E80310228E82E710884008B
:100DBC0072088500000886319D2686310130F107C6
:100DCC000030F23D71088400720885001200031D8A
:100DDC00F02EF12EDC2E0800083042019F009030DE
:100DEC009D0024309E0019309B009C010030F000C7
:100DFC000030F1008631792686310030F000003069
:100E0C00F10086317F2686310030F0000030F10091
:100E1C008631732686314001C90108004001CD009E
:100E2C004B08CF004A08CE00C001C1012E2F4E3016
:100E3C00FC007C08F4004C08FD007D08F5004D0812
:100E4C0087317B27873174084001C0077508C13D85
:100E5C004E0884004F0885001200031D362F372FD3
:100E6C001D2F4108CB004008CA00080040019C011E
:100E7C009B01980199019A010F309600FF30920066
:100E8C00FF309300FB309400FF309500FF307E0163
:100E9C00D900FD30CE00FF30C3000730E400FF3036
:100EAC00B800DA01E501C401B901CF01E601BA01CC
:100EBC00C501D001DB01FF30BB00FF30C600FF30A5
:100ECC00D100FF30DC000730E700FF30BC00FF3002
:100EDC00C700FF30D200FF30DD000F30E8000F30CC
:100EEC00A20011307D01CB000800FB0074088600C5
:100EFC008701403FF600413FF700760884007708F1
:100F0C0085001200253A031D8C2F8D2FD22F7408CB
:100F1C00860087010130810741310318810A4001A5
:100F2C00C201C301C601C701FF30C400FF30C500B8
:100F3C00740886008701403FF600413FF7007608B1
:100F4C008400770885001200253A031DAE2FAF2FC1
:100F5C00C72F7408860087010130810741310318BF
:100F6C00810A2530F1000030F2007B08F60076088B
:100F7C00F30086316E2687310130F4000030F50025
:100F8C00F42F740886008701013081074131031862
:100F9C00810AF401F501F42F740886008701403FA3
:100FAC00F600413FF70076088400770885000008BA
:100FBC00F800F9017808F1007908F2007B08FA00D2
:100FCC007A08F30086316E26873174088600870113
:100FDC000130810741310318810AC22F08002030EB
:100FEC008400003085002A30863185268731400107
:100FFC008631C62E48344F3441344E344734203475
:10100C0054344F3441344E34003468346F346134CA
:0E101C006E34673474346F3461346E340034D3
:020000040001F9
:0A000E00EC3FFF3F9F3FFF3FFF3F25
:00000001FF
