:0400000080312B28F8
:1000060008007E1480310B1F09280A2829284E0172
:10001600191E0E280F281A280F1E122813281A2810
:1000260041016D088A006C080A0080312928991E52
:100036001D281E2829288F1E21282228292841010B
:100046006B088A006A080A00803129287E10090098
:1000560080312D28B93084008C308500E13086004F
:100066000030870009308C31A2248031FC01A03099
:1000760084000030850021308C319C248031203072
:100086008400023085003D308C319C248031A030C4
:1000960084000230850040308C319C2480317E10F3
:1000A600400183317C2B4001EC0057088600870114
:1000B600403FD900413FDA00590884005A088500BC
:1000C6001200253A031D68286928E1295708860089
:1000D60087010130810741310318810A4101B201CC
:1000E600B301B601B701FF30B400FF30B5004001DF
:1000F600E801E901BF28410136144001570886008E
:1001060087010130810741310318810ABF28410167
:10011600B61480284101361580284101B61580287D
:100126004101361680280130E8000030E900BF287A
:10013600570886008701403FD900413FDA00590839
:1001460084005A0885000008DB00DC015C08003AE0
:100156000319AE2896285B08203A03199028033A1B
:1001660003199328083A03198D28063A03197E289D
:100176001D3A03198A289628680869040319C428B1
:10018600C5289B284101361CC928CA28CE28FD301F
:10019600B605FF30B7054001570886008701403F86
:1001A600D900413FDA00590884005A088500120038
:1001B6002A3A031DDF28E028002957088600870110
:1001C6000130810741310318810A580886008701EA
:1001D60001088400850102308107003F4101B20019
:1001E600013FB300B31FF828F92842293614B20993
:1001F600B309B20A0319B30A4229570886008701D0
:10020600403FF700413FF80084313D2480317808B3
:100216004101B3007708B200182957088600870104
:100226000130810741310318810A400157088600D1
:100236008701403FD900413FDA00590884005A0837
:1002460085000008D03EDB00FF3003180030DC00DC
:1002560000305C020A3003195B02031C332935297E
:10026600013036290030DD00DE015D08EA005E0857
:10027600EB006A086B04031D41294229102940013D
:10028600570886008701403FD900413FDA005908E8
:1002960084005A0885001200783A03195329542914
:1002A6006529570886008701403FD900413FDA009B
:1002B600590884005A0885001200583A031D64291B
:1002C6006529AC29570886008701403FD900413F80
:1002D600DA00590884005A0885000008DB005B082C
:1002E600E70057088600870101308107413103186E
:1002F600810A5808860087010108840085010230BA
:100306008107003FDF00013FE000E101E201E30178
:10031600E401E501E6015F08B1006008B20061088A
:10032600B3006208B4006308B5006408B600650847
:10033600B7006608B8006708D9005908B9006C0804
:1003460082310522803140013208D8003108D700B9
:10035600042A570886008701403FD900413FDA004A
:10036600590884005A0885001200253A031DBC2945
:10037600BD29D629570886008701013081074131FA
:100386000318810A2530F4000030F5006C08D90006
:100396005908F60086315B26803101304001D700CE
:1003A6000030D800042A57088600870101308107EB
:1003B60041310318810AD701D801042A570886005B
:1003C6008701403FD900413FDA00590884005A08A6
:1003D60085000008DB00DC015B08F4005C08F50022
:1003E6006C08DD005D08F60086315B268031400131
:1003F6005708860087010130810741310318810AB9
:10040600D02908004001C6004101B51B0B2A0C2A61
:10041600102AFD30B605FF30B7053508803A400191
:10042600BA0080303A02031D1B2A01304101340212
:1004360003181E2A1F2A252A01304001C700003052
:10044600C8002D2A410135084001C8004101340881
:100456004001C700410133084001CA00410132088A
:100466004001C9004101361E392A3A2A3F2AFE3088
:100476004001C907FF30CA3D40013108CB003208B0
:10048600CC003308CD003408CE003508CF0036083E
:10049600D0003708D1003808D2001F30D300003012
:1004A600D4004401DC010D2BFF304001D307FF309F
:1004B600D43D0F304B05D50000304C05D60056080C
:1004C600803ABA0080303A02031D6B2A0A30550280
:1004D600031C6E2A6F2A772A40015508573ED5001D
:1004E6000030563DD6007E2A40015508303ED500E4
:1004F6000030563DD6003908BF3EBA00FF3003181B
:100506000030BB0000303B021A3003193A02031CCC
:100516008D2A8F2A0130902A0030BC00BD013C088C
:10052600C2003D08C3004208430403199B2A9C2AC3
:10053600CB2A20305504BA0000305604BB003A08D6
:100546009F3EBC00FF303B3DBD0000303D021A30EF
:1005560003193C02031CB02AB22A0130B32A003028
:10056600BE00BF013E08C4003F08C500440845045C
:100576000319BE2ABF2ACB2A5608F8005508F700E9
:100586008F315A27823178084001D6007708D50086
:100596005508BA0053083D3E8600023087003A08E7
:1005A6008100FF30C707FF30C83DFF30C907FF3065
:1005B600CA3D4B30860000308700403FBA00413FBD
:1005C600BB00423FBC00433FBD00443FBE00453F29
:1005D600BF00463FC000473FC10004304001C1365E
:1005E600C00CBF0CBE0CBD0CBC0CBB0CBA0C890BF2
:1005F600F12A40014108D2004008D1003F08D0004E
:100606003E08CF003D08CE003C08CD003B08CC009C
:100616003A08CB0040015408803ABA0080303A02CA
:10062600031D172B02305302031C1A2B1B2B482BBE
:1006360040014B084C044D044E044F045004510431
:100646005204031D272B282B572A4808803ABA0044
:1006560080303A02031D312B013047020318342B38
:10066600352B572A40014A08803ABA0080303A02B0
:10067600031D3F2B01304902031C422B432B482B01
:100686004101B618472B482B572A4101361E4C2BE1
:100696004D2B682BFF304001D307FF30D43D39087E
:1006A600BA0053083D3E8600023087003A088100B2
:1006B600FF30D307FF30D43D3030BA0053083D3EFB
:1006C6008600023087003A088100400153083D3E0B
:1006D600BA003A08A8004A08AA004908A90046082C
:1006E6008431EC24823140012908B2002808B10087
:1006F60008004101E0018C31D92483318C31E62494
:1007060083318B170B1758304101C6009030C70054
:100716008D314525833100304001A400A500AA3063
:100726004101DD005D084001A6008F3111278331AC
:1007360034304101DD00F130890B9F2BDD0B9F2BFF
:1007460000322D2C6E30C6009030C7008D31452505
:1007560083314201E001E10140304101DD005D08E5
:100766004001AA00A0308D31F02583314201610895
:100776004001A500420160084001A400A0304101EB
:10078600DD005D084001A6008F31D3278331420189
:1007960061084001A900420160084001A80020301C
:1007A6004101DD005D084001AA008E31EE2683314D
:1007B600420161084101D100420160084101D000B7
:1007C600A030DD005D08D2002030DE005E08D300D8
:1007D6004030DF005F08D400853145258331003A7B
:1007E6000319F62BF72BFF2B7B304101C600903007
:1007F600C7008D314525833140304201E007003086
:10080600E13D40306102003003196002031C0C2CEC
:100816000D2CAF2B01304101DD005D08E0072030D3
:10082600C6009030C7008D31452583312D2C8C3183
:10083600B0248331003A0319212C222C2D2C8F3120
:10084600A9278331543A031D292C2A2C2D2C41012A
:10085600E0012D2C41016008DD00DE015E08003A52
:100866000319362C1A2C5D08003A0319A52B1A2CED
:1008760080312B284001AB01AC01A401A501472C16
:100886000130F7070030F83DAA01AA0A770884006C
:10089600780885001200203A0319522C532C682C34
:1008A60077088400780885000008F73EA000FF302E
:1008B60003180030A1000030210205300319200280
:1008C600031C662C672C682CAA012A08A000A1012B
:1008D6002008A6002108A70026082704031D742C5B
:1008E600752C432C7F2C0130A4000030A50001306C
:1008F600F7070030F83DB32C7708840078088500A8
:100906000008A000A1012108003A03198B2CB32C82
:1009160020082B3A03197A2C063A0319762CB32CA5
:1009260077088400780885000008A0002C08F200EB
:100936002B08F1000A30F3000030F4008E31462611
:10094600843172084001A20020087102A100031C34
:10095600A2032108303EAB000030223DAC007A2CC9
:1009660077088400780885000008D03EA000FF3094
:1009760003180030A100003021020A3003192002BA
:10098600031CC62CC82C0130C92C0030A200A301C0
:100996002208A8002308A90028082904031DD42C2E
:1009A600D52C932C24082504031DDA2CDB2CE72CEC
:1009B6002B09A0002C09A100A00A0319A10A2008EE
:1009C600F7002108F800EB2C2C08F8002B08F7009C
:1009D60008004001B0004101361CF22CF32CFC2C1F
:1009E60040013008AB002B08A00028088F31802773
:1009F60084314001AA1B002D012D062D2A08AF00C7
:100A06002908AE00082DAE01AF01AC01AD011C2DC9
:100A16002030F4000030F50040013008AB002B0810
:100A2600F60086315B26843101304001AC07003088
:100A3600AD3D2D08803AAB002F08803A2B02031DEE
:100A4600262D2E082C02031C292D2A2D0B2D4101A3
:100A560036182E2D2F2D382D40013008AB002B08CF
:100A6600A00028088F3180278431400128088D3165
:100A7600D625843140012E087107A8002F08723D43
:100A8600A90008004101DB01DB0ADC018E2D5C08B0
:100A96005307D50055088600013087005C085207C9
:100AA600D6005608840001308500000801060319A7
:100AB6005D2D5E2D892DDB013E30C6009030C700CE
:100AC6005C085007C80051080318510AC9005C08A1
:100AD6005207D50055088600013087000108D60068
:100AE600D7015608CA005708CB005C085307D80040
:100AF60058088600013087000108D900DA01590834
:100B0600CC005A08CD008D31452585310130410193
:100B1600D5005508DC0754085C02031C932D942D60
:100B26004A2D5B080800FA008D310425853103142F
:100B36007A0D8E3186268531FB01B52D01308C313B
:100B4600CC2485314001A4002008860021088700B6
:100B5600240881000130A0070030A13D0130A40027
:100B66002408FB0740012208FF3EA400FF30233D76
:100B7600A5007B08A600A70125082702031DC52D91
:100B860024082602031CC82DC92DA12D00308C3146
:100B9600CC2485314001A400200886002108870066
:100BA600240881008E310B268531080040019C0106
:100BB6009B0198010130990054309A000F3096003D
:100BC600FF309200F8309300FB3094007F309500A0
:100BD6007F307E01D900A930CE00F830C30007303F
:100BE600E400FF30B800DA01E501C401B901503074
:100BF600CF00E601BA01C501D001DB01FF30BB0021
:100C0600FF30C600FF30D100FF30DC000730E700C0
:100C1600FF30BC00FF30C700FF30D200FF30DD00E0
:100C26000F30E8000F30A20011307D01CB00080024
:100C36004E019912D630F1000630F2008C31902424
:100C460086314E011912A830F1000E30F2008C31B7
:100C560096248631083042019F0090309D00243052
:100C66009E0040309B0003309C000330F1000030B2
:100C7600F2008C31842486317430F1000C30F2009D
:100C86008C318A2486317030F1000C30F2008C31C0
:100C96007E2486314101B801BC01BB014030F3001E
:100CA6007308EE00FC01BA01B9014E01991608005D
:100CB600760803195F2E602E652E7608031D642EB6
:100CC600652E6A2E74088C3178248631992E760822
:100CD600033E86008701160001040319732E742E45
:100CE600912E7608033E86008701403FF700413F7C
:100CF600F800760A86008701403FF900413FFA0076
:100D06007A08803AFB007808803A7B02031D8D2E14
:100D1600770879020318902E912E992E760A86006E
:100D260087010130810741310318810A080041011A
:100D36004008F4003F08F3003E08F2003D08F100C9
:100D46004C30F8009530F7007F30F6002D30F50076
:100D560087310D278631013071074101BD00003012
:100D6600723DBE000030733DBF000030743DC000D0
:100D76003D084001A60041013E084001A70041018F
:100D86003F084001A800410140084001A900113078
:100D9600A936A80CA70CA60C890BCB2E2708A500F4
:100DA6002608A40008007C08A03E86008701810171
:100DB60042011D1DDF2EE02EEA2E7C08A03E860095
:100DC6008701811467088A0066080A008631420195
:100DD6009D1CEE2EEF2EF92E7C08A03E8600870184
:100DE600011565088A0064080A0086317C08A03E61
:100DF6008600870101080319012F022F092F4201DE
:100E060063088A0062080A0087310C2F8D31BC25E1
:100E16008631080000304001A3000030A2000030F7
:100E2600A1000030A000711C192F1A2F232F75085E
:100E36004001A0077608A13D7708A23D7808A33DAA
:100E46000130F535F60DF70DF80D890B242F01301D
:100E5600F436F30CF20CF10C890B2B2F7408730487
:100E660072047104031D382F392F162F40012308F1
:100E7600F4002208F3002108F2002008F10008001F
:100E86004101C30040016E084101C50040016D08E3
:100E96004101C400B001B101682FC430C10041084E
:100EA6004001D7006F084101C20042084001D80046
:100EB60041014308803156208731400157084101DE
:100EC600B007400158084101B13D44088400450877
:100ED60085001200031D702F712F502F310840011D
:100EE600EE00410130084001ED000800F6007108EF
:100EF600F4007408F8007608F4007408F7009A2FD6
:100F060078088600013087000108F4007408F500AF
:100F16000130F4007408F8077508F40077088600B5
:100F26008701740881000130F4007408F707013066
:100F3600F2020030F33B720A031DA52F730A031D4C
:100F4600A52FA62F832F08004001A2008D3104256E
:100F56008731400122358E31862687314001A30133
:100F6600C42F78088600870101088E3186268731CE
:100F760001304001A0002008F8070130A000200839
:100F8600A3072308A000A1017A082102031DCD2F83
:100F960079082002031CD02FD12FB42F8E310B26B7
:100FA60087310800F20041016E080319DB2FDC2FA0
:100FB600D62F4E01191AE02FE12FE52F72084201B4
:100FC6009A00FD2F19127208F10041013C08A03E5B
:100FD600860002308700710881000130F100710837
:100FE600BC0740303C02031CF92FFA2FFB2FBC0133
:0A0FF6000130EE024E01191608004A
:1018E0008D31BC258C31080042011D121D160800E7
:1018F000F30073088731D5278C3108007208420144
:10190000E3007108E200080072084201E700710874
:10191000E600080072084201E5007108E4000800D2
:1019200072084101EB007108EA00080072084101E9
:10193000ED007108EC000800640080010131890BA2
:101940009D2C0034FE0012001E00FE0BA32C003460
:101950004F0196019701980199019A019B01080096
:1019600041013908031DB52CB72C0130B82C0030CB
:1019700008000034003400340034003400340034F3
:101980000034FF34603051018D008F019101063029
:101990009300900192010800F8008D3119258C31D7
:1019A000F7007708F90078088C31F4248C31790835
:1019B00008008C31A8248C318531D9258C318C31AB
:1019C000C2248C3186311B268C3108004101E9018B
:1019D000E903E80140011A161A177E015016501744
:1019E0004001141614170800F50075080319F92CA6
:1019F000FA2CFF2C00308D312F258C31032D013036
:101A00008D312F258C31080001308E31CB268D3160
:101A100001308F3135278D312A30890B0D2D003261
:101A200000308F3135278D312A30890B152D00324A
:101A30000800F501F6010310F50D8D315C258D319F
:101A4000F4007408F5040130F4007408F607083057
:101A50007602031C2C2D2D2D1B2D75080800F4007B
:101A600000308E31CB268D312A30890B352D003256
:101A700074088F3135278D3101308E31CB268D3171
:101A80002A30890B412D00320800C8304101CE00B8
:101A90004E08CF0047084001EE00410146084001D2
:101AA000ED00CF304101CE004E084001EF00003084
:101AB000873143278D31080000308E31CB268D31A0
:101AC000400114172A30890B632D003201308E310A
:101AD000CB268D312A30890B6B2D003240010E0E42
:101AE000890C890C013908007108D03EF300FF30E1
:101AF000723DF400003074020A3003197302031CB3
:101B0000822D842D0130852D0030F500F6017508F9
:101B1000F1007608F20008007108BF3EF300FF30C4
:101B2000723DF400003074021A3003197302031C72
:101B30009A2D9C2D01309D2D0030F500F601750881
:101B4000F1007608F200080071089F3EF300FF30B4
:101B5000723DF400003074021A3003197302031C42
:101B6000B22DB42D0130B52D0030F500F601750809
:101B7000F1007608F200080042011908F0007C0824
:101B8000A83E86008701700881000130F0007008CF
:101B9000FC0708307C02031CCE2DCF2DD02DFC017C
:101BA0000130F00070084101B9070800F500750820
:101BB000F3007308F400E02D0130F3007308F5071B
:101BC00075088600023087000108031DE82DE92D05
:101BD000DC2D74087502F100F201F11BF20308001C
:101BE000FA00042E86319A268D3140012408F9002E
:101BF0007A08860001308700790881000130F900F9
:101C00007908FA070130AA0240012A08031D092EAB
:101C10000A2EF22D080000308E31CB268E312A306C
:101C2000890B102E003200308F3135278E31013074
:101C30008E31CB268E312A30890B1C2E003201309A
:101C40008F3135278E312A30890B242E003208003F
:101C500020307104F30000307204F40073089F3EDA
:101C6000F500FF30743DF600003076021A3003199B
:101C70007502031C3C2E3E2E01303F2E0030F70033
:101C8000F8017708F1007808F2000800F501F60184
:101C9000711C4B2E4C2E502E7308F5077408F63D20
:101CA0000130F335F40D890B512E0130F236F10C71
:101CB000890B562E71087204031D5F2E602E482E6C
:101CC0007608F2007508F1000800F501F50A2030E9
:101CD0007106720403196D2E6E2E7E2E7108F73E6A
:101CE000F300FF30723DF400003074020530031938
:101CF0007302031C7C2E7D2E7E2EF5017508F300E9
:101D0000F4017308F1007408F2000800F600F7010E
:101D1000F61B8B2E8D2E01308E2E00308D312F250F
:101D20008E310310F60D0130F5007508F707083005
:101D30007702031C9C2E9D2E882E8D315C258E31C2
:101D4000003A0319A42EA62E0130A72E0030080059
:101D5000403041016E020318AE2EAF2EC82E3B0854
:101D6000A03E860002308700010842019A0001303F
:101D7000F00070084101BB0740303B02031CC12E3C
:101D8000C22EC32EBB010130F0007008EE07CA2E30
:101D90004E0119120800F30073080319D02ED12E3A
:101DA000D52E400114161A16D82E40011A121412FC
:101DB000F201E62E0130F1007108F207031DE12E59
:101DC000E22EE62E4101E901E903ED2E0E0E013966
:101DD0007306031DEC2EED2EDA2E080040012908B3
:101DE000AB002B08AC002808AB002B08AD002C3052
:101DF000AB002B08F8000230F9000030FA00503038
:101E00008731A7278E3140012A08A0000130A100A8
:101E10004030A2000030A3005030853196258E312D
:101E2000080040012508FB007B08A7002408FB00F0
:101E30007B08A8002608FB007B08A90019102730A2
:101E4000FB007B08F8000330F9000030FA00503046
:101E50008731A7278F313430FB00F230890B2E2FCA
:101E6000FB0B2E2F400119140800F300730803190F
:101E70003A2F3B2F3F2F400114171A17422F4001D2
:101E80001A131413F201502F0130F1007108F207F8
:101E9000031D4B2F4C2F502F4101E901E903592F0E
:101EA0000E0E890C890C01397306031D582F592F0A
:101EB000442F080077089F3E4001A000FF30783D86
:101EC000A100003021021A3003192002031C692FDF
:101ED0006B2F01306C2F0030A200A3012208F90003
:101EE0002308FA0079087A040319772F782F7F2FB7
:101EF0005F307705F70000307805F8007F2F080085
:101F00004001A700A501A601982F2408A100A20165
:101F10002108F4002208F5002008A3002308F60099
:101F200086315B268F3101304001A5070030A63D88
:101F300025082707A1002108860002308700010834
:101F4000A2002208A4002408031DA72FA82F852F74
:101F50000800410139080319AE2FAF2FA92F3A0805
:101F6000A03E860087010108F1007108B8003A0818
:101F7000A83E860087010108F1007108F2000130D7
:101F8000F1007108BA0708303A02031CC82FC92FA4
:101F9000CA2FBA014E01991201304101B9024E0116
:101FA00099167208080040012508FB007B08A7006D
:101FB0002408FB007B08A8002608FB007B08F10032
:101FC0004030F2000030F3002930873179278F311B
:101FD000400119102730FB007B08F8004230F9005F
:101FE0000030FA0050308731A7278F313430FB00A2
:101FF000F230890BF92FFB0BF92F4001191408005F
:102000000034003400340034003400340034003430
:102010000034003400340034003400340034003420
:102020000034003400340034003400340034003410
:102030000034003400340034003400340034003400
:1020400044346F346E3465340A3450347234653439
:1020500073347334203427345434273420347434A4
:102060006F34203474346534733474342034613400
:102070006734613469346E340A3400340A344534C8
:10208000723472346F347234203440342534303436
:10209000343458343A3420342534303432345834DB
:1020A000203423342034253430343234583400344E
:1020B0000A3445344534503452344F344D3420348E
:1020C00032343434413441343134323438342034CD
:1020D00054344534533454340A3400340A345334B9
:1020E0007434613472347434203454346534733449
:0A20F00074343A3400342E34003406
:020000040001F9
:0A000E00EC3FFF3F9F3FFF3FFF3F25
:00000001FF
